{
  "_format": "hh-sol-artifact-1",
  "contractName": "ExclusiveRightsNFT",
  "sourceName": "contracts/ExclusiveRightsNFT.sol",
  "abi": [
    {
      "inputs": [
        {
          "internalType": "contract ShutterProof",
          "name": "shutterProof",
          "type": "address"
        }
      ],
      "stateMutability": "nonpayable",
      "type": "constructor"
    },
    {
      "anonymous": false,
      "inputs": [
        {
          "indexed": true,
          "internalType": "address",
          "name": "owner",
          "type": "address"
        },
        {
          "indexed": true,
          "internalType": "address",
          "name": "approved",
          "type": "address"
        },
        {
          "indexed": true,
          "internalType": "uint256",
          "name": "tokenId",
          "type": "uint256"
        }
      ],
      "name": "Approval",
      "type": "event"
    },
    {
      "anonymous": false,
      "inputs": [
        {
          "indexed": true,
          "internalType": "address",
          "name": "owner",
          "type": "address"
        },
        {
          "indexed": true,
          "internalType": "address",
          "name": "operator",
          "type": "address"
        },
        {
          "indexed": false,
          "internalType": "bool",
          "name": "approved",
          "type": "bool"
        }
      ],
      "name": "ApprovalForAll",
      "type": "event"
    },
    {
      "anonymous": false,
      "inputs": [
        {
          "indexed": true,
          "internalType": "address",
          "name": "from",
          "type": "address"
        },
        {
          "indexed": true,
          "internalType": "address",
          "name": "to",
          "type": "address"
        },
        {
          "indexed": true,
          "internalType": "uint256",
          "name": "tokenId",
          "type": "uint256"
        }
      ],
      "name": "Transfer",
      "type": "event"
    },
    {
      "inputs": [],
      "name": "_balance",
      "outputs": [
        {
          "internalType": "uint256",
          "name": "",
          "type": "uint256"
        }
      ],
      "stateMutability": "view",
      "type": "function"
    },
    {
      "inputs": [
        {
          "internalType": "address",
          "name": "to",
          "type": "address"
        },
        {
          "internalType": "uint256",
          "name": "tokenId",
          "type": "uint256"
        }
      ],
      "name": "approve",
      "outputs": [],
      "stateMutability": "nonpayable",
      "type": "function"
    },
    {
      "inputs": [
        {
          "internalType": "address",
          "name": "owner",
          "type": "address"
        }
      ],
      "name": "balanceOf",
      "outputs": [
        {
          "internalType": "uint256",
          "name": "",
          "type": "uint256"
        }
      ],
      "stateMutability": "view",
      "type": "function"
    },
    {
      "inputs": [
        {
          "internalType": "uint256",
          "name": "tokenId",
          "type": "uint256"
        }
      ],
      "name": "getApproved",
      "outputs": [
        {
          "internalType": "address",
          "name": "",
          "type": "address"
        }
      ],
      "stateMutability": "view",
      "type": "function"
    },
    {
      "inputs": [
        {
          "internalType": "uint256",
          "name": "tokenId",
          "type": "uint256"
        }
      ],
      "name": "getPrice",
      "outputs": [
        {
          "internalType": "uint256",
          "name": "",
          "type": "uint256"
        }
      ],
      "stateMutability": "view",
      "type": "function"
    },
    {
      "inputs": [
        {
          "internalType": "uint256",
          "name": "tokenId",
          "type": "uint256"
        }
      ],
      "name": "getSBT",
      "outputs": [
        {
          "components": [
            {
              "internalType": "address",
              "name": "sbtAddress",
              "type": "address"
            },
            {
              "internalType": "uint256",
              "name": "tokenId",
              "type": "uint256"
            }
          ],
          "internalType": "struct ExclusiveRightsNFT.SBT",
          "name": "",
          "type": "tuple"
        }
      ],
      "stateMutability": "view",
      "type": "function"
    },
    {
      "inputs": [
        {
          "internalType": "address",
          "name": "owner",
          "type": "address"
        },
        {
          "internalType": "address",
          "name": "operator",
          "type": "address"
        }
      ],
      "name": "isApprovedForAll",
      "outputs": [
        {
          "internalType": "bool",
          "name": "",
          "type": "bool"
        }
      ],
      "stateMutability": "view",
      "type": "function"
    },
    {
      "inputs": [
        {
          "internalType": "uint256",
          "name": "idPaternitySBT",
          "type": "uint256"
        }
      ],
      "name": "mint",
      "outputs": [],
      "stateMutability": "nonpayable",
      "type": "function"
    },
    {
      "inputs": [],
      "name": "name",
      "outputs": [
        {
          "internalType": "string",
          "name": "",
          "type": "string"
        }
      ],
      "stateMutability": "view",
      "type": "function"
    },
    {
      "inputs": [
        {
          "internalType": "uint256",
          "name": "tokenId",
          "type": "uint256"
        }
      ],
      "name": "ownerOf",
      "outputs": [
        {
          "internalType": "address",
          "name": "",
          "type": "address"
        }
      ],
      "stateMutability": "view",
      "type": "function"
    },
    {
      "inputs": [
        {
          "internalType": "address",
          "name": "from",
          "type": "address"
        },
        {
          "internalType": "address",
          "name": "to",
          "type": "address"
        },
        {
          "internalType": "uint256",
          "name": "tokenId",
          "type": "uint256"
        }
      ],
      "name": "safeTransferFrom",
      "outputs": [],
      "stateMutability": "nonpayable",
      "type": "function"
    },
    {
      "inputs": [
        {
          "internalType": "address",
          "name": "from",
          "type": "address"
        },
        {
          "internalType": "address",
          "name": "to",
          "type": "address"
        },
        {
          "internalType": "uint256",
          "name": "tokenId",
          "type": "uint256"
        },
        {
          "internalType": "bytes",
          "name": "data",
          "type": "bytes"
        }
      ],
      "name": "safeTransferFrom",
      "outputs": [],
      "stateMutability": "nonpayable",
      "type": "function"
    },
    {
      "inputs": [
        {
          "internalType": "uint256",
          "name": "tokenId",
          "type": "uint256"
        },
        {
          "internalType": "uint256",
          "name": "price",
          "type": "uint256"
        }
      ],
      "name": "saleExclusiveRights",
      "outputs": [],
      "stateMutability": "nonpayable",
      "type": "function"
    },
    {
      "inputs": [
        {
          "internalType": "address",
          "name": "operator",
          "type": "address"
        },
        {
          "internalType": "bool",
          "name": "approved",
          "type": "bool"
        }
      ],
      "name": "setApprovalForAll",
      "outputs": [],
      "stateMutability": "nonpayable",
      "type": "function"
    },
    {
      "inputs": [
        {
          "internalType": "bytes4",
          "name": "interfaceId",
          "type": "bytes4"
        }
      ],
      "name": "supportsInterface",
      "outputs": [
        {
          "internalType": "bool",
          "name": "",
          "type": "bool"
        }
      ],
      "stateMutability": "view",
      "type": "function"
    },
    {
      "inputs": [],
      "name": "symbol",
      "outputs": [
        {
          "internalType": "string",
          "name": "",
          "type": "string"
        }
      ],
      "stateMutability": "view",
      "type": "function"
    },
    {
      "inputs": [
        {
          "internalType": "uint256",
          "name": "tokenId",
          "type": "uint256"
        }
      ],
      "name": "tokenURI",
      "outputs": [
        {
          "internalType": "string",
          "name": "",
          "type": "string"
        }
      ],
      "stateMutability": "view",
      "type": "function"
    },
    {
      "inputs": [
        {
          "internalType": "address",
          "name": "from",
          "type": "address"
        },
        {
          "internalType": "address",
          "name": "to",
          "type": "address"
        },
        {
          "internalType": "uint256",
          "name": "tokenId",
          "type": "uint256"
        }
      ],
      "name": "transferFrom",
      "outputs": [],
      "stateMutability": "nonpayable",
      "type": "function"
    },
    {
      "inputs": [
        {
          "internalType": "uint256",
          "name": "tokenId",
          "type": "uint256"
        }
      ],
      "name": "unsaleExclusiveRights",
      "outputs": [],
      "stateMutability": "nonpayable",
      "type": "function"
    }
  ],
  "bytecode": "0x60806040523480156200001157600080fd5b5060405162003a1f38038062003a1f8339818101604052810190620000379190620001ca565b6040518060400160405280601d81526020017f5368757474657250726f6f66204578636c7573697665205269676874730000008152506040518060400160405280600481526020017f53504552000000000000000000000000000000000000000000000000000000008152508160009081620000b4919062000476565b508060019081620000c6919062000476565b505050620000e5676959ce8a3686ef1f60c01b6200014960201b60201c565b620001016792603ee44f067aba60c01b6200014960201b60201c565b80600660006101000a81548173ffffffffffffffffffffffffffffffffffffffff021916908373ffffffffffffffffffffffffffffffffffffffff160217905550506200055d565b50565b600080fd5b600073ffffffffffffffffffffffffffffffffffffffff82169050919050565b60006200017e8262000151565b9050919050565b6000620001928262000171565b9050919050565b620001a48162000185565b8114620001b057600080fd5b50565b600081519050620001c48162000199565b92915050565b600060208284031215620001e357620001e26200014c565b5b6000620001f384828501620001b3565b91505092915050565b600081519050919050565b7f4e487b7100000000000000000000000000000000000000000000000000000000600052604160045260246000fd5b7f4e487b7100000000000000000000000000000000000000000000000000000000600052602260045260246000fd5b600060028204905060018216806200027e57607f821691505b60208210810362000294576200029362000236565b5b50919050565b60008190508160005260206000209050919050565b60006020601f8301049050919050565b600082821b905092915050565b600060088302620002fe7fffffffffffffffffffffffffffffffffffffffffffffffffffffffffffffffff82620002bf565b6200030a8683620002bf565b95508019841693508086168417925050509392505050565b6000819050919050565b6000819050919050565b600062000357620003516200034b8462000322565b6200032c565b62000322565b9050919050565b6000819050919050565b620003738362000336565b6200038b62000382826200035e565b848454620002cc565b825550505050565b600090565b620003a262000393565b620003af81848462000368565b505050565b5b81811015620003d757620003cb60008262000398565b600181019050620003b5565b5050565b601f8211156200042657620003f0816200029a565b620003fb84620002af565b810160208510156200040b578190505b620004236200041a85620002af565b830182620003b4565b50505b505050565b600082821c905092915050565b60006200044b600019846008026200042b565b1980831691505092915050565b600062000466838362000438565b9150826002028217905092915050565b6200048182620001fc565b67ffffffffffffffff8111156200049d576200049c62000207565b5b620004a9825462000265565b620004b6828285620003db565b600060209050601f831160018114620004ee5760008415620004d9578287015190505b620004e5858262000458565b86555062000555565b601f198416620004fe866200029a565b60005b82811015620005285784890151825560018201915060208501945060208101905062000501565b8683101562000548578489015162000544601f89168262000438565b8355505b6001600288020188555050505b505050505050565b6134b2806200056d6000396000f3fe608060405234801561001057600080fd5b50600436106101215760003560e01c806370a08231116100ad578063b90bb4e911610071578063b90bb4e914610304578063c87b56dd14610334578063e757223014610364578063e985e9c514610394578063f2d56853146103c457610121565b806370a082311461026257806395d89b4114610292578063a0712d68146102b0578063a22cb465146102cc578063b88d4fde146102e857610121565b806323b872dd116100f457806323b872dd146101c057806342842e0e146101dc57806356c4e05a146101f85780636352211e146102165780637016f6151461024657610121565b806301ffc9a71461012657806306fdde0314610156578063081812fc14610174578063095ea7b3146101a4575b600080fd5b610140600480360381019061013b919061221f565b6103e0565b60405161014d9190612267565b60405180910390f35b61015e6104c2565b60405161016b9190612312565b60405180910390f35b61018e6004803603810190610189919061236a565b610554565b60405161019b91906123d8565b60405180910390f35b6101be60048036038101906101b9919061241f565b61059a565b005b6101da60048036038101906101d5919061245f565b6106b1565b005b6101f660048036038101906101f1919061245f565b610711565b005b610200610731565b60405161020d91906124c1565b60405180910390f35b610230600480360381019061022b919061236a565b610737565b60405161023d91906123d8565b60405180910390f35b610260600480360381019061025b91906124dc565b6107bd565b005b61027c6004803603810190610277919061251c565b6109ac565b60405161028991906124c1565b60405180910390f35b61029a610a63565b6040516102a79190612312565b60405180910390f35b6102ca60048036038101906102c5919061236a565b610af5565b005b6102e660048036038101906102e19190612575565b610e36565b005b61030260048036038101906102fd91906126ea565b610e4c565b005b61031e6004803603810190610319919061236a565b610eae565b60405161032b91906127ba565b60405180910390f35b61034e6004803603810190610349919061236a565b610f77565b60405161035b9190612312565b60405180910390f35b61037e6004803603810190610379919061236a565b610fdf565b60405161038b91906124c1565b60405180910390f35b6103ae60048036038101906103a991906127d5565b611038565b6040516103bb9190612267565b60405180910390f35b6103de60048036038101906103d9919061236a565b6110cc565b005b60007f80ac58cd000000000000000000000000000000000000000000000000000000007bffffffffffffffffffffffffffffffffffffffffffffffffffffffff1916827bffffffffffffffffffffffffffffffffffffffffffffffffffffffff191614806104ab57507f5b5e139f000000000000000000000000000000000000000000000000000000007bffffffffffffffffffffffffffffffffffffffffffffffffffffffff1916827bffffffffffffffffffffffffffffffffffffffffffffffffffffffff1916145b806104bb57506104ba82611228565b5b9050919050565b6060600080546104d190612844565b80601f01602080910402602001604051908101604052809291908181526020018280546104fd90612844565b801561054a5780601f1061051f5761010080835404028352916020019161054a565b820191906000526020600020905b81548152906001019060200180831161052d57829003601f168201915b5050505050905090565b600061055f82611292565b6004600083815260200190815260200160002060009054906101000a900473ffffffffffffffffffffffffffffffffffffffff169050919050565b60006105a582610737565b90508073ffffffffffffffffffffffffffffffffffffffff168373ffffffffffffffffffffffffffffffffffffffff1603610615576040517f08c379a000000000000000000000000000000000000000000000000000000000815260040161060c906128e7565b60405180910390fd5b8073ffffffffffffffffffffffffffffffffffffffff166106346112dd565b73ffffffffffffffffffffffffffffffffffffffff16148061066357506106628161065d6112dd565b611038565b5b6106a2576040517f08c379a000000000000000000000000000000000000000000000000000000000815260040161069990612979565b60405180910390fd5b6106ac83836112e5565b505050565b6106c26106bc6112dd565b8261139e565b610701576040517f08c379a00000000000000000000000000000000000000000000000000000000081526004016106f890612a0b565b60405180910390fd5b61070c838383611433565b505050565b61072c83838360405180602001604052806000815250610e4c565b505050565b60075481565b6000806107438361172c565b9050600073ffffffffffffffffffffffffffffffffffffffff168173ffffffffffffffffffffffffffffffffffffffff16036107b4576040517f08c379a00000000000000000000000000000000000000000000000000000000081526004016107ab90612a77565b60405180910390fd5b80915050919050565b6107d167380b8e7e0c7405c660c01b611769565b816107e667963bb2761cc7066360c01b611769565b6107fa67656c5bb6c983810960c01b611769565b61080e67bbfed99e4a1cb60460c01b611769565b610822671b0a97b2989689f060c01b611769565b3373ffffffffffffffffffffffffffffffffffffffff1661084282610737565b73ffffffffffffffffffffffffffffffffffffffff1614610898576040517f08c379a000000000000000000000000000000000000000000000000000000000815260040161088f90612ae3565b60405180910390fd5b6108ac671f2f43c95b90967660c01b611769565b6108c06738c7247480207dd660c01b611769565b6108d4676e0040d5e73cf2d160c01b611769565b6108e867a0f6f5bf618603b660c01b611769565b6108fc673c8d7520f27e314260c01b611769565b6109106797cc3e1280ae948b60c01b611769565b61092467464b52336512331660c01b611769565b60008211610967576040517f08c379a000000000000000000000000000000000000000000000000000000000815260040161095e90612b4f565b60405180910390fd5b61097b675e3d9b0fb07e3a8060c01b611769565b61098f67dce147927d9d184b60c01b611769565b816008600085815260200190815260200160002081905550505050565b60008073ffffffffffffffffffffffffffffffffffffffff168273ffffffffffffffffffffffffffffffffffffffff1603610a1c576040517f08c379a0000000000000000000000000000000000000000000000000000000008152600401610a1390612be1565b60405180910390fd5b600360008373ffffffffffffffffffffffffffffffffffffffff1673ffffffffffffffffffffffffffffffffffffffff168152602001908152602001600020549050919050565b606060018054610a7290612844565b80601f0160208091040260200160405190810160405280929190818152602001828054610a9e90612844565b8015610aeb5780601f10610ac057610100808354040283529160200191610aeb565b820191906000526020600020905b815481529060010190602001808311610ace57829003601f168201915b5050505050905090565b610b0967685575c5c912500760c01b611769565b610b1d6772c41baedb2485a360c01b611769565b610b31678f5d9fc4a398fd7a60c01b611769565b6000339050610b4a67d018c69e727c6d4d60c01b611769565b610b5e67edce89e8b40f345260c01b611769565b60008173ffffffffffffffffffffffffffffffffffffffff1663893d20e86040518163ffffffff1660e01b8152600401602060405180830381865afa158015610bab573d6000803e3d6000fd5b505050506040513d601f19601f82011682018060405250810190610bcf9190612c16565b9050610be567080d4a94a6b6811f60c01b611769565b610bf9674f0cd6785db6eaed60c01b611769565b610c0d6701dd93d8dc1fef4860c01b611769565b600660009054906101000a900473ffffffffffffffffffffffffffffffffffffffff1673ffffffffffffffffffffffffffffffffffffffff16636f77926b826040518263ffffffff1660e01b8152600401610c6891906123d8565b600060405180830381865afa158015610c85573d6000803e3d6000fd5b505050506040513d6000823e3d601f19601f82011682018060405250810190610cae9190612e66565b6000015173ffffffffffffffffffffffffffffffffffffffff163373ffffffffffffffffffffffffffffffffffffffff1614610d1f576040517f08c379a0000000000000000000000000000000000000000000000000000000008152600401610d1690612efb565b60405180910390fd5b610d33673bfbcfe26d1cfb2560c01b611769565b610d4767f78a300a0f9d249a60c01b611769565b610d5b674beb2cf78fff59ed60c01b611769565b610d678160075461176c565b610d7b6773e38432eb0e241360c01b611769565b8260096000600754815260200190815260200160002060010181905550610dac67612df2863c83b87360c01b611769565b3360096000600754815260200190815260200160002060000160006101000a81548173ffffffffffffffffffffffffffffffffffffffff021916908373ffffffffffffffffffffffffffffffffffffffff160217905550610e1767ccae431c143144c760c01b611769565b600160076000828254610e2a9190612f4a565b92505081905550505050565b610e48610e416112dd565b8383611989565b5050565b610e5d610e576112dd565b8361139e565b610e9c576040517f08c379a0000000000000000000000000000000000000000000000000000000008152600401610e9390612a0b565b60405180910390fd5b610ea884848484611af5565b50505050565b610eb6612183565b610eca6701b0486a5fe32dec60c01b611769565b610ede676e98b8fbc9ba51af60c01b611769565b610ef26794e5635a3d74421460c01b611769565b600960008381526020019081526020016000206040518060400160405290816000820160009054906101000a900473ffffffffffffffffffffffffffffffffffffffff1673ffffffffffffffffffffffffffffffffffffffff1673ffffffffffffffffffffffffffffffffffffffff1681526020016001820154815250509050919050565b6060610f8282611292565b6000610f8c611b51565b90506000815111610fac5760405180602001604052806000815250610fd7565b80610fb684611b68565b604051602001610fc7929190612fba565b6040516020818303038152906040525b915050919050565b6000610ff5670ae2fe0e1e413e6860c01b611769565b61100967aa52dd7857c45d5d60c01b611769565b61101d67ad97c7a6a422a09860c01b611769565b60086000838152602001908152602001600020549050919050565b6000600560008473ffffffffffffffffffffffffffffffffffffffff1673ffffffffffffffffffffffffffffffffffffffff16815260200190815260200160002060008373ffffffffffffffffffffffffffffffffffffffff1673ffffffffffffffffffffffffffffffffffffffff16815260200190815260200160002060009054906101000a900460ff16905092915050565b6110e06702876ebc49b7941160c01b611769565b806110f567963bb2761cc7066360c01b611769565b61110967656c5bb6c983810960c01b611769565b61111d67bbfed99e4a1cb60460c01b611769565b611131671b0a97b2989689f060c01b611769565b3373ffffffffffffffffffffffffffffffffffffffff1661115182610737565b73ffffffffffffffffffffffffffffffffffffffff16146111a7576040517f08c379a000000000000000000000000000000000000000000000000000000000815260040161119e90612ae3565b60405180910390fd5b6111bb671f2f43c95b90967660c01b611769565b6111cf6738c7247480207dd660c01b611769565b6111e367c220c13ee719c76760c01b611769565b6111f767974356de33525b9660c01b611769565b61120b67e75c812f387a587d60c01b611769565b600060086000848152602001908152602001600020819055505050565b60007f01ffc9a7000000000000000000000000000000000000000000000000000000007bffffffffffffffffffffffffffffffffffffffffffffffffffffffff1916827bffffffffffffffffffffffffffffffffffffffffffffffffffffffff1916149050919050565b61129b81611c36565b6112da576040517f08c379a00000000000000000000000000000000000000000000000000000000081526004016112d190612a77565b60405180910390fd5b50565b600033905090565b816004600083815260200190815260200160002060006101000a81548173ffffffffffffffffffffffffffffffffffffffff021916908373ffffffffffffffffffffffffffffffffffffffff160217905550808273ffffffffffffffffffffffffffffffffffffffff1661135883610737565b73ffffffffffffffffffffffffffffffffffffffff167f8c5be1e5ebec7d5bd14f71427d1e84f3dd0314c0f7b2291e5b200ac8c7c3b92560405160405180910390a45050565b6000806113aa83610737565b90508073ffffffffffffffffffffffffffffffffffffffff168473ffffffffffffffffffffffffffffffffffffffff1614806113ec57506113eb8185611038565b5b8061142a57508373ffffffffffffffffffffffffffffffffffffffff1661141284610554565b73ffffffffffffffffffffffffffffffffffffffff16145b91505092915050565b8273ffffffffffffffffffffffffffffffffffffffff1661145382610737565b73ffffffffffffffffffffffffffffffffffffffff16146114a9576040517f08c379a00000000000000000000000000000000000000000000000000000000081526004016114a090613050565b60405180910390fd5b600073ffffffffffffffffffffffffffffffffffffffff168273ffffffffffffffffffffffffffffffffffffffff1603611518576040517f08c379a000000000000000000000000000000000000000000000000000000000815260040161150f906130e2565b60405180910390fd5b6115258383836001611c77565b8273ffffffffffffffffffffffffffffffffffffffff1661154582610737565b73ffffffffffffffffffffffffffffffffffffffff161461159b576040517f08c379a000000000000000000000000000000000000000000000000000000000815260040161159290613050565b60405180910390fd5b6004600082815260200190815260200160002060006101000a81549073ffffffffffffffffffffffffffffffffffffffff02191690556001600360008573ffffffffffffffffffffffffffffffffffffffff1673ffffffffffffffffffffffffffffffffffffffff168152602001908152602001600020600082825403925050819055506001600360008473ffffffffffffffffffffffffffffffffffffffff1673ffffffffffffffffffffffffffffffffffffffff16815260200190815260200160002060008282540192505081905550816002600083815260200190815260200160002060006101000a81548173ffffffffffffffffffffffffffffffffffffffff021916908373ffffffffffffffffffffffffffffffffffffffff160217905550808273ffffffffffffffffffffffffffffffffffffffff168473ffffffffffffffffffffffffffffffffffffffff167fddf252ad1be2c89b69c2b068fc378daa952ba7f163c4a11628f55a4df523b3ef60405160405180910390a46117278383836001611e34565b505050565b60006002600083815260200190815260200160002060009054906101000a900473ffffffffffffffffffffffffffffffffffffffff169050919050565b50565b600073ffffffffffffffffffffffffffffffffffffffff168273ffffffffffffffffffffffffffffffffffffffff16036117db576040517f08c379a00000000000000000000000000000000000000000000000000000000081526004016117d29061314e565b60405180910390fd5b6117e481611c36565b15611824576040517f08c379a000000000000000000000000000000000000000000000000000000000815260040161181b906131ba565b60405180910390fd5b611832600083836001611c77565b61183b81611c36565b1561187b576040517f08c379a0000000000000000000000000000000000000000000000000000000008152600401611872906131ba565b60405180910390fd5b6001600360008473ffffffffffffffffffffffffffffffffffffffff1673ffffffffffffffffffffffffffffffffffffffff16815260200190815260200160002060008282540192505081905550816002600083815260200190815260200160002060006101000a81548173ffffffffffffffffffffffffffffffffffffffff021916908373ffffffffffffffffffffffffffffffffffffffff160217905550808273ffffffffffffffffffffffffffffffffffffffff16600073ffffffffffffffffffffffffffffffffffffffff167fddf252ad1be2c89b69c2b068fc378daa952ba7f163c4a11628f55a4df523b3ef60405160405180910390a4611985600083836001611e34565b5050565b8173ffffffffffffffffffffffffffffffffffffffff168373ffffffffffffffffffffffffffffffffffffffff16036119f7576040517f08c379a00000000000000000000000000000000000000000000000000000000081526004016119ee90613226565b60405180910390fd5b80600560008573ffffffffffffffffffffffffffffffffffffffff1673ffffffffffffffffffffffffffffffffffffffff16815260200190815260200160002060008473ffffffffffffffffffffffffffffffffffffffff1673ffffffffffffffffffffffffffffffffffffffff16815260200190815260200160002060006101000a81548160ff0219169083151502179055508173ffffffffffffffffffffffffffffffffffffffff168373ffffffffffffffffffffffffffffffffffffffff167f17307eab39ab6107e8899845ad3d59bd9653f200f220920489ca2b5937696c3183604051611ae89190612267565b60405180910390a3505050565b611b00848484611433565b611b0c84848484611e7b565b611b4b576040517f08c379a0000000000000000000000000000000000000000000000000000000008152600401611b42906132b8565b60405180910390fd5b50505050565b606060405180602001604052806000815250905090565b606060006001611b7784612002565b01905060008167ffffffffffffffff811115611b9657611b956125bf565b5b6040519080825280601f01601f191660200182016040528015611bc85781602001600182028036833780820191505090505b509050600082602001820190505b600115611c2b578080600190039150507f3031323334353637383961626364656600000000000000000000000000000000600a86061a8153600a8581611c1f57611c1e6132d8565b5b04945060008503611bd6575b819350505050919050565b60008073ffffffffffffffffffffffffffffffffffffffff16611c588361172c565b73ffffffffffffffffffffffffffffffffffffffff1614159050919050565b611c8b67e62e43756015986860c01b611769565b611c9f674ddb61bd9fe4456660c01b611769565b611cb367381c1967fa24c4b460c01b611769565b611cc767b6f69bbc7560371260c01b611769565b600073ffffffffffffffffffffffffffffffffffffffff168373ffffffffffffffffffffffffffffffffffffffff16148015611d135750611d1267c57139229523513660c01b612155565b5b80611ddb5750600660009054906101000a900473ffffffffffffffffffffffffffffffffffffffff1673ffffffffffffffffffffffffffffffffffffffff16636f77926b846040518263ffffffff1660e01b8152600401611d7491906123d8565b600060405180830381865afa158015611d91573d6000803e3d6000fd5b505050506040513d6000823e3d601f19601f82011682018060405250810190611dba9190612e66565b608001518015611dda5750611dd967c671903bcbd246a160c01b612155565b5b5b611e1a576040517f08c379a0000000000000000000000000000000000000000000000000000000008152600401611e1190613379565b60405180910390fd5b611e2e672b25a02f71af2b9960c01b611769565b50505050565b611e4867c728ba468c8936f060c01b611769565b611e5c678437fa196061872360c01b611769565b6000600860008481526020019081526020016000208190555050505050565b6000611e9c8473ffffffffffffffffffffffffffffffffffffffff16612160565b15611ff5578373ffffffffffffffffffffffffffffffffffffffff1663150b7a02611ec56112dd565b8786866040518563ffffffff1660e01b8152600401611ee794939291906133ee565b6020604051808303816000875af1925050508015611f2357506040513d601f19601f82011682018060405250810190611f20919061344f565b60015b611fa5573d8060008114611f53576040519150601f19603f3d011682016040523d82523d6000602084013e611f58565b606091505b506000815103611f9d576040517f08c379a0000000000000000000000000000000000000000000000000000000008152600401611f94906132b8565b60405180910390fd5b805181602001fd5b63150b7a0260e01b7bffffffffffffffffffffffffffffffffffffffffffffffffffffffff1916817bffffffffffffffffffffffffffffffffffffffffffffffffffffffff191614915050611ffa565b600190505b949350505050565b600080600090507a184f03e93ff9f4daa797ed6e38ed64bf6a1f0100000000000000008310612060577a184f03e93ff9f4daa797ed6e38ed64bf6a1f0100000000000000008381612056576120556132d8565b5b0492506040810190505b6d04ee2d6d415b85acef8100000000831061209d576d04ee2d6d415b85acef81000000008381612093576120926132d8565b5b0492506020810190505b662386f26fc1000083106120cc57662386f26fc1000083816120c2576120c16132d8565b5b0492506010810190505b6305f5e10083106120f5576305f5e10083816120eb576120ea6132d8565b5b0492506008810190505b612710831061211a5761271083816121105761210f6132d8565b5b0492506004810190505b6064831061213d5760648381612133576121326132d8565b5b0492506002810190505b600a831061214c576001810190505b80915050919050565b600060019050919050565b6000808273ffffffffffffffffffffffffffffffffffffffff163b119050919050565b6040518060400160405280600073ffffffffffffffffffffffffffffffffffffffff168152602001600081525090565b6000604051905090565b600080fd5b600080fd5b60007fffffffff0000000000000000000000000000000000000000000000000000000082169050919050565b6121fc816121c7565b811461220757600080fd5b50565b600081359050612219816121f3565b92915050565b600060208284031215612235576122346121bd565b5b60006122438482850161220a565b91505092915050565b60008115159050919050565b6122618161224c565b82525050565b600060208201905061227c6000830184612258565b92915050565b600081519050919050565b600082825260208201905092915050565b60005b838110156122bc5780820151818401526020810190506122a1565b60008484015250505050565b6000601f19601f8301169050919050565b60006122e482612282565b6122ee818561228d565b93506122fe81856020860161229e565b612307816122c8565b840191505092915050565b6000602082019050818103600083015261232c81846122d9565b905092915050565b6000819050919050565b61234781612334565b811461235257600080fd5b50565b6000813590506123648161233e565b92915050565b6000602082840312156123805761237f6121bd565b5b600061238e84828501612355565b91505092915050565b600073ffffffffffffffffffffffffffffffffffffffff82169050919050565b60006123c282612397565b9050919050565b6123d2816123b7565b82525050565b60006020820190506123ed60008301846123c9565b92915050565b6123fc816123b7565b811461240757600080fd5b50565b600081359050612419816123f3565b92915050565b60008060408385031215612436576124356121bd565b5b60006124448582860161240a565b925050602061245585828601612355565b9150509250929050565b600080600060608486031215612478576124776121bd565b5b60006124868682870161240a565b93505060206124978682870161240a565b92505060406124a886828701612355565b9150509250925092565b6124bb81612334565b82525050565b60006020820190506124d660008301846124b2565b92915050565b600080604083850312156124f3576124f26121bd565b5b600061250185828601612355565b925050602061251285828601612355565b9150509250929050565b600060208284031215612532576125316121bd565b5b60006125408482850161240a565b91505092915050565b6125528161224c565b811461255d57600080fd5b50565b60008135905061256f81612549565b92915050565b6000806040838503121561258c5761258b6121bd565b5b600061259a8582860161240a565b92505060206125ab85828601612560565b9150509250929050565b600080fd5b600080fd5b7f4e487b7100000000000000000000000000000000000000000000000000000000600052604160045260246000fd5b6125f7826122c8565b810181811067ffffffffffffffff82111715612616576126156125bf565b5b80604052505050565b60006126296121b3565b905061263582826125ee565b919050565b600067ffffffffffffffff821115612655576126546125bf565b5b61265e826122c8565b9050602081019050919050565b82818337600083830152505050565b600061268d6126888461263a565b61261f565b9050828152602081018484840111156126a9576126a86125ba565b5b6126b484828561266b565b509392505050565b600082601f8301126126d1576126d06125b5565b5b81356126e184826020860161267a565b91505092915050565b60008060008060808587031215612704576127036121bd565b5b60006127128782880161240a565b94505060206127238782880161240a565b935050604061273487828801612355565b925050606085013567ffffffffffffffff811115612755576127546121c2565b5b612761878288016126bc565b91505092959194509250565b612776816123b7565b82525050565b61278581612334565b82525050565b6040820160008201516127a1600085018261276d565b5060208201516127b4602085018261277c565b50505050565b60006040820190506127cf600083018461278b565b92915050565b600080604083850312156127ec576127eb6121bd565b5b60006127fa8582860161240a565b925050602061280b8582860161240a565b9150509250929050565b7f4e487b7100000000000000000000000000000000000000000000000000000000600052602260045260246000fd5b6000600282049050600182168061285c57607f821691505b60208210810361286f5761286e612815565b5b50919050565b7f4552433732313a20617070726f76616c20746f2063757272656e74206f776e6560008201527f7200000000000000000000000000000000000000000000000000000000000000602082015250565b60006128d160218361228d565b91506128dc82612875565b604082019050919050565b60006020820190508181036000830152612900816128c4565b9050919050565b7f4552433732313a20617070726f76652063616c6c6572206973206e6f7420746f60008201527f6b656e206f776e6572206f7220617070726f76656420666f7220616c6c000000602082015250565b6000612963603d8361228d565b915061296e82612907565b604082019050919050565b6000602082019050818103600083015261299281612956565b9050919050565b7f4552433732313a2063616c6c6572206973206e6f7420746f6b656e206f776e6560008201527f72206f7220617070726f76656400000000000000000000000000000000000000602082015250565b60006129f5602d8361228d565b9150612a0082612999565b604082019050919050565b60006020820190508181036000830152612a24816129e8565b9050919050565b7f4552433732313a20696e76616c696420746f6b656e2049440000000000000000600082015250565b6000612a6160188361228d565b9150612a6c82612a2b565b602082019050919050565b60006020820190508181036000830152612a9081612a54565b9050919050565b7f43616c6c6572206973206e6f7420746f6b656e206f776e657200000000000000600082015250565b6000612acd60198361228d565b9150612ad882612a97565b602082019050919050565b60006020820190508181036000830152612afc81612ac0565b9050919050565b7f5072696365206d7573742062652067726561746572207468616e203000000000600082015250565b6000612b39601c8361228d565b9150612b4482612b03565b602082019050919050565b60006020820190508181036000830152612b6881612b2c565b9050919050565b7f4552433732313a2061646472657373207a65726f206973206e6f74206120766160008201527f6c6964206f776e65720000000000000000000000000000000000000000000000602082015250565b6000612bcb60298361228d565b9150612bd682612b6f565b604082019050919050565b60006020820190508181036000830152612bfa81612bbe565b9050919050565b600081519050612c10816123f3565b92915050565b600060208284031215612c2c57612c2b6121bd565b5b6000612c3a84828501612c01565b91505092915050565b600080fd5b600080fd5b6000612c58826123b7565b9050919050565b612c6881612c4d565b8114612c7357600080fd5b50565b600081519050612c8581612c5f565b92915050565b600067ffffffffffffffff821115612ca657612ca56125bf565b5b612caf826122c8565b9050602081019050919050565b6000612ccf612cca84612c8b565b61261f565b905082815260208101848484011115612ceb57612cea6125ba565b5b612cf684828561229e565b509392505050565b600082601f830112612d1357612d126125b5565b5b8151612d23848260208601612cbc565b91505092915050565b60028110612d3957600080fd5b50565b600081519050612d4b81612d2c565b92915050565b60007fffffffffffffffffffffffffffff00000000000000000000000000000000000082169050919050565b612d8681612d51565b8114612d9157600080fd5b50565b600081519050612da381612d7d565b92915050565b600081519050612db881612549565b92915050565b600060a08284031215612dd457612dd3612c43565b5b612dde60a061261f565b90506000612dee84828501612c76565b600083015250602082015167ffffffffffffffff811115612e1257612e11612c48565b5b612e1e84828501612cfe565b6020830152506040612e3284828501612d3c565b6040830152506060612e4684828501612d94565b6060830152506080612e5a84828501612da9565b60808301525092915050565b600060208284031215612e7c57612e7b6121bd565b5b600082015167ffffffffffffffff811115612e9a57612e996121c2565b5b612ea684828501612dbe565b91505092915050565b7f43616c6c6572206973206e6f7420616c6c6f77656420746f206d696e74000000600082015250565b6000612ee5601d8361228d565b9150612ef082612eaf565b602082019050919050565b60006020820190508181036000830152612f1481612ed8565b9050919050565b7f4e487b7100000000000000000000000000000000000000000000000000000000600052601160045260246000fd5b6000612f5582612334565b9150612f6083612334565b9250828201905080821115612f7857612f77612f1b565b5b92915050565b600081905092915050565b6000612f9482612282565b612f9e8185612f7e565b9350612fae81856020860161229e565b80840191505092915050565b6000612fc68285612f89565b9150612fd28284612f89565b91508190509392505050565b7f4552433732313a207472616e736665722066726f6d20696e636f72726563742060008201527f6f776e6572000000000000000000000000000000000000000000000000000000602082015250565b600061303a60258361228d565b915061304582612fde565b604082019050919050565b600060208201905081810360008301526130698161302d565b9050919050565b7f4552433732313a207472616e7366657220746f20746865207a65726f2061646460008201527f7265737300000000000000000000000000000000000000000000000000000000602082015250565b60006130cc60248361228d565b91506130d782613070565b604082019050919050565b600060208201905081810360008301526130fb816130bf565b9050919050565b7f4552433732313a206d696e7420746f20746865207a65726f2061646472657373600082015250565b600061313860208361228d565b915061314382613102565b602082019050919050565b600060208201905081810360008301526131678161312b565b9050919050565b7f4552433732313a20746f6b656e20616c7265616479206d696e74656400000000600082015250565b60006131a4601c8361228d565b91506131af8261316e565b602082019050919050565b600060208201905081810360008301526131d381613197565b9050919050565b7f4552433732313a20617070726f766520746f2063616c6c657200000000000000600082015250565b600061321060198361228d565b915061321b826131da565b602082019050919050565b6000602082019050818103600083015261323f81613203565b9050919050565b7f4552433732313a207472616e7366657220746f206e6f6e20455243373231526560008201527f63656976657220696d706c656d656e7465720000000000000000000000000000602082015250565b60006132a260328361228d565b91506132ad82613246565b604082019050919050565b600060208201905081810360008301526132d181613295565b9050919050565b7f4e487b7100000000000000000000000000000000000000000000000000000000600052601260045260246000fd5b7f5265636569766572206d7573742062652061205368757474657270726f6f662060008201527f7573657200000000000000000000000000000000000000000000000000000000602082015250565b600061336360248361228d565b915061336e82613307565b604082019050919050565b6000602082019050818103600083015261339281613356565b9050919050565b600081519050919050565b600082825260208201905092915050565b60006133c082613399565b6133ca81856133a4565b93506133da81856020860161229e565b6133e3816122c8565b840191505092915050565b600060808201905061340360008301876123c9565b61341060208301866123c9565b61341d60408301856124b2565b818103606083015261342f81846133b5565b905095945050505050565b600081519050613449816121f3565b92915050565b600060208284031215613465576134646121bd565b5b60006134738482850161343a565b9150509291505056fea26469706673582212208eed507fb990e37240bb5790116b00cc1623c2c7ed94f2c9b138642ae9dfcb3264736f6c63430008120033",
  "linkReferences": {},
  "deployedLinkReferences": {}
}