{
  "contractName": "ExclusiveRightsNFT",
  "abi": [
    {
      "inputs": [
        {
          "internalType": "contract ShutterProof",
          "name": "shutterProof",
          "type": "address"
        }
      ],
      "stateMutability": "nonpayable",
      "type": "constructor"
    },
    {
      "anonymous": false,
      "inputs": [
        {
          "indexed": true,
          "internalType": "address",
          "name": "owner",
          "type": "address"
        },
        {
          "indexed": true,
          "internalType": "address",
          "name": "approved",
          "type": "address"
        },
        {
          "indexed": true,
          "internalType": "uint256",
          "name": "tokenId",
          "type": "uint256"
        }
      ],
      "name": "Approval",
      "type": "event"
    },
    {
      "anonymous": false,
      "inputs": [
        {
          "indexed": true,
          "internalType": "address",
          "name": "owner",
          "type": "address"
        },
        {
          "indexed": true,
          "internalType": "address",
          "name": "operator",
          "type": "address"
        },
        {
          "indexed": false,
          "internalType": "bool",
          "name": "approved",
          "type": "bool"
        }
      ],
      "name": "ApprovalForAll",
      "type": "event"
    },
    {
      "anonymous": false,
      "inputs": [
        {
          "indexed": true,
          "internalType": "address",
          "name": "from",
          "type": "address"
        },
        {
          "indexed": true,
          "internalType": "address",
          "name": "to",
          "type": "address"
        },
        {
          "indexed": true,
          "internalType": "uint256",
          "name": "tokenId",
          "type": "uint256"
        }
      ],
      "name": "Transfer",
      "type": "event"
    },
    {
      "inputs": [],
      "name": "_balance",
      "outputs": [
        {
          "internalType": "uint256",
          "name": "",
          "type": "uint256"
        }
      ],
      "stateMutability": "view",
      "type": "function"
    },
    {
      "inputs": [
        {
          "internalType": "address",
          "name": "to",
          "type": "address"
        },
        {
          "internalType": "uint256",
          "name": "tokenId",
          "type": "uint256"
        }
      ],
      "name": "approve",
      "outputs": [],
      "stateMutability": "nonpayable",
      "type": "function"
    },
    {
      "inputs": [
        {
          "internalType": "address",
          "name": "owner",
          "type": "address"
        }
      ],
      "name": "balanceOf",
      "outputs": [
        {
          "internalType": "uint256",
          "name": "",
          "type": "uint256"
        }
      ],
      "stateMutability": "view",
      "type": "function"
    },
    {
      "inputs": [
        {
          "internalType": "uint256",
          "name": "tokenId",
          "type": "uint256"
        }
      ],
      "name": "getApproved",
      "outputs": [
        {
          "internalType": "address",
          "name": "",
          "type": "address"
        }
      ],
      "stateMutability": "view",
      "type": "function"
    },
    {
      "inputs": [
        {
          "internalType": "address",
          "name": "owner",
          "type": "address"
        },
        {
          "internalType": "address",
          "name": "operator",
          "type": "address"
        }
      ],
      "name": "isApprovedForAll",
      "outputs": [
        {
          "internalType": "bool",
          "name": "",
          "type": "bool"
        }
      ],
      "stateMutability": "view",
      "type": "function"
    },
    {
      "inputs": [],
      "name": "name",
      "outputs": [
        {
          "internalType": "string",
          "name": "",
          "type": "string"
        }
      ],
      "stateMutability": "view",
      "type": "function"
    },
    {
      "inputs": [
        {
          "internalType": "uint256",
          "name": "tokenId",
          "type": "uint256"
        }
      ],
      "name": "ownerOf",
      "outputs": [
        {
          "internalType": "address",
          "name": "",
          "type": "address"
        }
      ],
      "stateMutability": "view",
      "type": "function"
    },
    {
      "inputs": [
        {
          "internalType": "address",
          "name": "from",
          "type": "address"
        },
        {
          "internalType": "address",
          "name": "to",
          "type": "address"
        },
        {
          "internalType": "uint256",
          "name": "tokenId",
          "type": "uint256"
        }
      ],
      "name": "safeTransferFrom",
      "outputs": [],
      "stateMutability": "nonpayable",
      "type": "function"
    },
    {
      "inputs": [
        {
          "internalType": "address",
          "name": "from",
          "type": "address"
        },
        {
          "internalType": "address",
          "name": "to",
          "type": "address"
        },
        {
          "internalType": "uint256",
          "name": "tokenId",
          "type": "uint256"
        },
        {
          "internalType": "bytes",
          "name": "data",
          "type": "bytes"
        }
      ],
      "name": "safeTransferFrom",
      "outputs": [],
      "stateMutability": "nonpayable",
      "type": "function"
    },
    {
      "inputs": [
        {
          "internalType": "address",
          "name": "operator",
          "type": "address"
        },
        {
          "internalType": "bool",
          "name": "approved",
          "type": "bool"
        }
      ],
      "name": "setApprovalForAll",
      "outputs": [],
      "stateMutability": "nonpayable",
      "type": "function"
    },
    {
      "inputs": [
        {
          "internalType": "bytes4",
          "name": "interfaceId",
          "type": "bytes4"
        }
      ],
      "name": "supportsInterface",
      "outputs": [
        {
          "internalType": "bool",
          "name": "",
          "type": "bool"
        }
      ],
      "stateMutability": "view",
      "type": "function"
    },
    {
      "inputs": [],
      "name": "symbol",
      "outputs": [
        {
          "internalType": "string",
          "name": "",
          "type": "string"
        }
      ],
      "stateMutability": "view",
      "type": "function"
    },
    {
      "inputs": [
        {
          "internalType": "uint256",
          "name": "tokenId",
          "type": "uint256"
        }
      ],
      "name": "tokenURI",
      "outputs": [
        {
          "internalType": "string",
          "name": "",
          "type": "string"
        }
      ],
      "stateMutability": "view",
      "type": "function"
    },
    {
      "inputs": [
        {
          "internalType": "address",
          "name": "from",
          "type": "address"
        },
        {
          "internalType": "address",
          "name": "to",
          "type": "address"
        },
        {
          "internalType": "uint256",
          "name": "tokenId",
          "type": "uint256"
        }
      ],
      "name": "transferFrom",
      "outputs": [],
      "stateMutability": "nonpayable",
      "type": "function"
    },
    {
      "inputs": [
        {
          "internalType": "uint256",
          "name": "tokenId",
          "type": "uint256"
        },
        {
          "internalType": "uint256",
          "name": "price",
          "type": "uint256"
        }
      ],
      "name": "saleExclusiveRights",
      "outputs": [],
      "stateMutability": "nonpayable",
      "type": "function"
    },
    {
      "inputs": [
        {
          "internalType": "uint256",
          "name": "tokenId",
          "type": "uint256"
        }
      ],
      "name": "unsaleExclusiveRights",
      "outputs": [],
      "stateMutability": "nonpayable",
      "type": "function"
    },
    {
      "inputs": [
        {
          "internalType": "uint256",
          "name": "idPaternitySBT",
          "type": "uint256"
        }
      ],
      "name": "mint",
      "outputs": [],
      "stateMutability": "nonpayable",
      "type": "function"
    },
    {
      "inputs": [
        {
          "internalType": "uint256",
          "name": "tokenId",
          "type": "uint256"
        }
      ],
      "name": "getPrice",
      "outputs": [
        {
          "internalType": "uint256",
          "name": "",
          "type": "uint256"
        }
      ],
      "stateMutability": "view",
      "type": "function"
    },
    {
      "inputs": [
        {
          "internalType": "uint256",
          "name": "tokenId",
          "type": "uint256"
        }
      ],
      "name": "getSBT",
      "outputs": [
        {
          "components": [
            {
              "internalType": "address",
              "name": "sbtAddress",
              "type": "address"
            },
            {
              "internalType": "uint256",
              "name": "tokenId",
              "type": "uint256"
            }
          ],
          "internalType": "struct ExclusiveRightsNFT.SBT",
          "name": "",
          "type": "tuple"
        }
      ],
      "stateMutability": "view",
      "type": "function"
    }
  ],
  "bytecode": "0x60806040523480156200001157600080fd5b506040516200356b3803806200356b83398181016040528101906200003791906200018f565b6040518060400160405280601d81526020017f5368757474657250726f6f66204578636c7573697665205269676874730000008152506040518060400160405280600481526020017f53504552000000000000000000000000000000000000000000000000000000008152508160009081620000b491906200043b565b508060019081620000c691906200043b565b50505080600660006101000a81548173ffffffffffffffffffffffffffffffffffffffff021916908373ffffffffffffffffffffffffffffffffffffffff1602179055505062000522565b600080fd5b600073ffffffffffffffffffffffffffffffffffffffff82169050919050565b6000620001438262000116565b9050919050565b6000620001578262000136565b9050919050565b62000169816200014a565b81146200017557600080fd5b50565b60008151905062000189816200015e565b92915050565b600060208284031215620001a857620001a762000111565b5b6000620001b88482850162000178565b91505092915050565b600081519050919050565b7f4e487b7100000000000000000000000000000000000000000000000000000000600052604160045260246000fd5b7f4e487b7100000000000000000000000000000000000000000000000000000000600052602260045260246000fd5b600060028204905060018216806200024357607f821691505b602082108103620002595762000258620001fb565b5b50919050565b60008190508160005260206000209050919050565b60006020601f8301049050919050565b600082821b905092915050565b600060088302620002c37fffffffffffffffffffffffffffffffffffffffffffffffffffffffffffffffff8262000284565b620002cf868362000284565b95508019841693508086168417925050509392505050565b6000819050919050565b6000819050919050565b60006200031c620003166200031084620002e7565b620002f1565b620002e7565b9050919050565b6000819050919050565b6200033883620002fb565b62000350620003478262000323565b84845462000291565b825550505050565b600090565b6200036762000358565b620003748184846200032d565b505050565b5b818110156200039c57620003906000826200035d565b6001810190506200037a565b5050565b601f821115620003eb57620003b5816200025f565b620003c08462000274565b81016020851015620003d0578190505b620003e8620003df8562000274565b83018262000379565b50505b505050565b600082821c905092915050565b60006200041060001984600802620003f0565b1980831691505092915050565b60006200042b8383620003fd565b9150826002028217905092915050565b6200044682620001c1565b67ffffffffffffffff811115620004625762000461620001cc565b5b6200046e82546200022a565b6200047b828285620003a0565b600060209050601f831160018114620004b357600084156200049e578287015190505b620004aa85826200041d565b8655506200051a565b601f198416620004c3866200025f565b60005b82811015620004ed57848901518255600182019150602085019450602081019050620004c6565b868310156200050d578489015162000509601f891682620003fd565b8355505b6001600288020188555050505b505050505050565b61303980620005326000396000f3fe608060405234801561001057600080fd5b50600436106101215760003560e01c806370a08231116100ad578063b90bb4e911610071578063b90bb4e914610304578063c87b56dd14610334578063e757223014610364578063e985e9c514610394578063f2d56853146103c457610121565b806370a082311461026257806395d89b4114610292578063a0712d68146102b0578063a22cb465146102cc578063b88d4fde146102e857610121565b806323b872dd116100f457806323b872dd146101c057806342842e0e146101dc57806356c4e05a146101f85780636352211e146102165780637016f6151461024657610121565b806301ffc9a71461012657806306fdde0314610156578063081812fc14610174578063095ea7b3146101a4575b600080fd5b610140600480360381019061013b9190611da6565b6103e0565b60405161014d9190611dee565b60405180910390f35b61015e6104c2565b60405161016b9190611e99565b60405180910390f35b61018e60048036038101906101899190611ef1565b610554565b60405161019b9190611f5f565b60405180910390f35b6101be60048036038101906101b99190611fa6565b61059a565b005b6101da60048036038101906101d59190611fe6565b6106b1565b005b6101f660048036038101906101f19190611fe6565b610711565b005b610200610731565b60405161020d9190612048565b60405180910390f35b610230600480360381019061022b9190611ef1565b610737565b60405161023d9190611f5f565b60405180910390f35b610260600480360381019061025b9190612063565b6107bd565b005b61027c600480360381019061027791906120a3565b610894565b6040516102899190612048565b60405180910390f35b61029a61094b565b6040516102a79190611e99565b60405180910390f35b6102ca60048036038101906102c59190611ef1565b6109dd565b005b6102e660048036038101906102e191906120fc565b610c06565b005b61030260048036038101906102fd9190612271565b610c1c565b005b61031e60048036038101906103199190611ef1565b610c7e565b60405161032b9190612341565b60405180910390f35b61034e60048036038101906103499190611ef1565b610d0b565b60405161035b9190611e99565b60405180910390f35b61037e60048036038101906103799190611ef1565b610d73565b60405161038b9190612048565b60405180910390f35b6103ae60048036038101906103a9919061235c565b610d90565b6040516103bb9190611dee565b60405180910390f35b6103de60048036038101906103d99190611ef1565b610e24565b005b60007f80ac58cd000000000000000000000000000000000000000000000000000000007bffffffffffffffffffffffffffffffffffffffffffffffffffffffff1916827bffffffffffffffffffffffffffffffffffffffffffffffffffffffff191614806104ab57507f5b5e139f000000000000000000000000000000000000000000000000000000007bffffffffffffffffffffffffffffffffffffffffffffffffffffffff1916827bffffffffffffffffffffffffffffffffffffffffffffffffffffffff1916145b806104bb57506104ba82610eb8565b5b9050919050565b6060600080546104d1906123cb565b80601f01602080910402602001604051908101604052809291908181526020018280546104fd906123cb565b801561054a5780601f1061051f5761010080835404028352916020019161054a565b820191906000526020600020905b81548152906001019060200180831161052d57829003601f168201915b5050505050905090565b600061055f82610f22565b6004600083815260200190815260200160002060009054906101000a900473ffffffffffffffffffffffffffffffffffffffff169050919050565b60006105a582610737565b90508073ffffffffffffffffffffffffffffffffffffffff168373ffffffffffffffffffffffffffffffffffffffff1603610615576040517f08c379a000000000000000000000000000000000000000000000000000000000815260040161060c9061246e565b60405180910390fd5b8073ffffffffffffffffffffffffffffffffffffffff16610634610f6d565b73ffffffffffffffffffffffffffffffffffffffff16148061066357506106628161065d610f6d565b610d90565b5b6106a2576040517f08c379a000000000000000000000000000000000000000000000000000000000815260040161069990612500565b60405180910390fd5b6106ac8383610f75565b505050565b6106c26106bc610f6d565b8261102e565b610701576040517f08c379a00000000000000000000000000000000000000000000000000000000081526004016106f890612592565b60405180910390fd5b61070c8383836110c3565b505050565b61072c83838360405180602001604052806000815250610c1c565b505050565b60075481565b600080610743836113bc565b9050600073ffffffffffffffffffffffffffffffffffffffff168173ffffffffffffffffffffffffffffffffffffffff16036107b4576040517f08c379a00000000000000000000000000000000000000000000000000000000081526004016107ab906125fe565b60405180910390fd5b80915050919050565b813373ffffffffffffffffffffffffffffffffffffffff166107de82610737565b73ffffffffffffffffffffffffffffffffffffffff1614610834576040517f08c379a000000000000000000000000000000000000000000000000000000000815260040161082b9061266a565b60405180910390fd5b60008211610877576040517f08c379a000000000000000000000000000000000000000000000000000000000815260040161086e906126d6565b60405180910390fd5b816008600085815260200190815260200160002081905550505050565b60008073ffffffffffffffffffffffffffffffffffffffff168273ffffffffffffffffffffffffffffffffffffffff1603610904576040517f08c379a00000000000000000000000000000000000000000000000000000000081526004016108fb90612768565b60405180910390fd5b600360008373ffffffffffffffffffffffffffffffffffffffff1673ffffffffffffffffffffffffffffffffffffffff168152602001908152602001600020549050919050565b60606001805461095a906123cb565b80601f0160208091040260200160405190810160405280929190818152602001828054610986906123cb565b80156109d35780601f106109a8576101008083540402835291602001916109d3565b820191906000526020600020905b8154815290600101906020018083116109b657829003601f168201915b5050505050905090565b600033905060008173ffffffffffffffffffffffffffffffffffffffff1663893d20e86040518163ffffffff1660e01b8152600401602060405180830381865afa158015610a2f573d6000803e3d6000fd5b505050506040513d601f19601f82011682018060405250810190610a53919061279d565b9050600660009054906101000a900473ffffffffffffffffffffffffffffffffffffffff1673ffffffffffffffffffffffffffffffffffffffff16636f77926b826040518263ffffffff1660e01b8152600401610ab09190611f5f565b600060405180830381865afa158015610acd573d6000803e3d6000fd5b505050506040513d6000823e3d601f19601f82011682018060405250810190610af691906129ed565b6000015173ffffffffffffffffffffffffffffffffffffffff163373ffffffffffffffffffffffffffffffffffffffff1614610b67576040517f08c379a0000000000000000000000000000000000000000000000000000000008152600401610b5e90612a82565b60405180910390fd5b610b73816007546113f9565b82600960006007548152602001908152602001600020600101819055503360096000600754815260200190815260200160002060000160006101000a81548173ffffffffffffffffffffffffffffffffffffffff021916908373ffffffffffffffffffffffffffffffffffffffff160217905550600160076000828254610bfa9190612ad1565b92505081905550505050565b610c18610c11610f6d565b8383611616565b5050565b610c2d610c27610f6d565b8361102e565b610c6c576040517f08c379a0000000000000000000000000000000000000000000000000000000008152600401610c6390612592565b60405180910390fd5b610c7884848484611782565b50505050565b610c86611d0a565b600960008381526020019081526020016000206040518060400160405290816000820160009054906101000a900473ffffffffffffffffffffffffffffffffffffffff1673ffffffffffffffffffffffffffffffffffffffff1673ffffffffffffffffffffffffffffffffffffffff1681526020016001820154815250509050919050565b6060610d1682610f22565b6000610d206117de565b90506000815111610d405760405180602001604052806000815250610d6b565b80610d4a846117f5565b604051602001610d5b929190612b41565b6040516020818303038152906040525b915050919050565b600060086000838152602001908152602001600020549050919050565b6000600560008473ffffffffffffffffffffffffffffffffffffffff1673ffffffffffffffffffffffffffffffffffffffff16815260200190815260200160002060008373ffffffffffffffffffffffffffffffffffffffff1673ffffffffffffffffffffffffffffffffffffffff16815260200190815260200160002060009054906101000a900460ff16905092915050565b803373ffffffffffffffffffffffffffffffffffffffff16610e4582610737565b73ffffffffffffffffffffffffffffffffffffffff1614610e9b576040517f08c379a0000000000000000000000000000000000000000000000000000000008152600401610e929061266a565b60405180910390fd5b600060086000848152602001908152602001600020819055505050565b60007f01ffc9a7000000000000000000000000000000000000000000000000000000007bffffffffffffffffffffffffffffffffffffffffffffffffffffffff1916827bffffffffffffffffffffffffffffffffffffffffffffffffffffffff1916149050919050565b610f2b816118c3565b610f6a576040517f08c379a0000000000000000000000000000000000000000000000000000000008152600401610f61906125fe565b60405180910390fd5b50565b600033905090565b816004600083815260200190815260200160002060006101000a81548173ffffffffffffffffffffffffffffffffffffffff021916908373ffffffffffffffffffffffffffffffffffffffff160217905550808273ffffffffffffffffffffffffffffffffffffffff16610fe883610737565b73ffffffffffffffffffffffffffffffffffffffff167f8c5be1e5ebec7d5bd14f71427d1e84f3dd0314c0f7b2291e5b200ac8c7c3b92560405160405180910390a45050565b60008061103a83610737565b90508073ffffffffffffffffffffffffffffffffffffffff168473ffffffffffffffffffffffffffffffffffffffff16148061107c575061107b8185610d90565b5b806110ba57508373ffffffffffffffffffffffffffffffffffffffff166110a284610554565b73ffffffffffffffffffffffffffffffffffffffff16145b91505092915050565b8273ffffffffffffffffffffffffffffffffffffffff166110e382610737565b73ffffffffffffffffffffffffffffffffffffffff1614611139576040517f08c379a000000000000000000000000000000000000000000000000000000000815260040161113090612bd7565b60405180910390fd5b600073ffffffffffffffffffffffffffffffffffffffff168273ffffffffffffffffffffffffffffffffffffffff16036111a8576040517f08c379a000000000000000000000000000000000000000000000000000000000815260040161119f90612c69565b60405180910390fd5b6111b58383836001611904565b8273ffffffffffffffffffffffffffffffffffffffff166111d582610737565b73ffffffffffffffffffffffffffffffffffffffff161461122b576040517f08c379a000000000000000000000000000000000000000000000000000000000815260040161122290612bd7565b60405180910390fd5b6004600082815260200190815260200160002060006101000a81549073ffffffffffffffffffffffffffffffffffffffff02191690556001600360008573ffffffffffffffffffffffffffffffffffffffff1673ffffffffffffffffffffffffffffffffffffffff168152602001908152602001600020600082825403925050819055506001600360008473ffffffffffffffffffffffffffffffffffffffff1673ffffffffffffffffffffffffffffffffffffffff16815260200190815260200160002060008282540192505081905550816002600083815260200190815260200160002060006101000a81548173ffffffffffffffffffffffffffffffffffffffff021916908373ffffffffffffffffffffffffffffffffffffffff160217905550808273ffffffffffffffffffffffffffffffffffffffff168473ffffffffffffffffffffffffffffffffffffffff167fddf252ad1be2c89b69c2b068fc378daa952ba7f163c4a11628f55a4df523b3ef60405160405180910390a46113b783838360016119ee565b505050565b60006002600083815260200190815260200160002060009054906101000a900473ffffffffffffffffffffffffffffffffffffffff169050919050565b600073ffffffffffffffffffffffffffffffffffffffff168273ffffffffffffffffffffffffffffffffffffffff1603611468576040517f08c379a000000000000000000000000000000000000000000000000000000000815260040161145f90612cd5565b60405180910390fd5b611471816118c3565b156114b1576040517f08c379a00000000000000000000000000000000000000000000000000000000081526004016114a890612d41565b60405180910390fd5b6114bf600083836001611904565b6114c8816118c3565b15611508576040517f08c379a00000000000000000000000000000000000000000000000000000000081526004016114ff90612d41565b60405180910390fd5b6001600360008473ffffffffffffffffffffffffffffffffffffffff1673ffffffffffffffffffffffffffffffffffffffff16815260200190815260200160002060008282540192505081905550816002600083815260200190815260200160002060006101000a81548173ffffffffffffffffffffffffffffffffffffffff021916908373ffffffffffffffffffffffffffffffffffffffff160217905550808273ffffffffffffffffffffffffffffffffffffffff16600073ffffffffffffffffffffffffffffffffffffffff167fddf252ad1be2c89b69c2b068fc378daa952ba7f163c4a11628f55a4df523b3ef60405160405180910390a46116126000838360016119ee565b5050565b8173ffffffffffffffffffffffffffffffffffffffff168373ffffffffffffffffffffffffffffffffffffffff1603611684576040517f08c379a000000000000000000000000000000000000000000000000000000000815260040161167b90612dad565b60405180910390fd5b80600560008573ffffffffffffffffffffffffffffffffffffffff1673ffffffffffffffffffffffffffffffffffffffff16815260200190815260200160002060008473ffffffffffffffffffffffffffffffffffffffff1673ffffffffffffffffffffffffffffffffffffffff16815260200190815260200160002060006101000a81548160ff0219169083151502179055508173ffffffffffffffffffffffffffffffffffffffff168373ffffffffffffffffffffffffffffffffffffffff167f17307eab39ab6107e8899845ad3d59bd9653f200f220920489ca2b5937696c31836040516117759190611dee565b60405180910390a3505050565b61178d8484846110c3565b61179984848484611a0d565b6117d8576040517f08c379a00000000000000000000000000000000000000000000000000000000081526004016117cf90612e3f565b60405180910390fd5b50505050565b606060405180602001604052806000815250905090565b60606000600161180484611b94565b01905060008167ffffffffffffffff81111561182357611822612146565b5b6040519080825280601f01601f1916602001820160405280156118555781602001600182028036833780820191505090505b509050600082602001820190505b6001156118b8578080600190039150507f3031323334353637383961626364656600000000000000000000000000000000600a86061a8153600a85816118ac576118ab612e5f565b5b04945060008503611863575b819350505050919050565b60008073ffffffffffffffffffffffffffffffffffffffff166118e5836113bc565b73ffffffffffffffffffffffffffffffffffffffff1614159050919050565b600660009054906101000a900473ffffffffffffffffffffffffffffffffffffffff1673ffffffffffffffffffffffffffffffffffffffff16636f77926b846040518263ffffffff1660e01b815260040161195f9190611f5f565b600060405180830381865afa15801561197c573d6000803e3d6000fd5b505050506040513d6000823e3d601f19601f820116820180604052508101906119a591906129ed565b608001516119e8576040517f08c379a00000000000000000000000000000000000000000000000000000000081526004016119df90612f00565b60405180910390fd5b50505050565b6000600860008481526020019081526020016000208190555050505050565b6000611a2e8473ffffffffffffffffffffffffffffffffffffffff16611ce7565b15611b87578373ffffffffffffffffffffffffffffffffffffffff1663150b7a02611a57610f6d565b8786866040518563ffffffff1660e01b8152600401611a799493929190612f75565b6020604051808303816000875af1925050508015611ab557506040513d601f19601f82011682018060405250810190611ab29190612fd6565b60015b611b37573d8060008114611ae5576040519150601f19603f3d011682016040523d82523d6000602084013e611aea565b606091505b506000815103611b2f576040517f08c379a0000000000000000000000000000000000000000000000000000000008152600401611b2690612e3f565b60405180910390fd5b805181602001fd5b63150b7a0260e01b7bffffffffffffffffffffffffffffffffffffffffffffffffffffffff1916817bffffffffffffffffffffffffffffffffffffffffffffffffffffffff191614915050611b8c565b600190505b949350505050565b600080600090507a184f03e93ff9f4daa797ed6e38ed64bf6a1f0100000000000000008310611bf2577a184f03e93ff9f4daa797ed6e38ed64bf6a1f0100000000000000008381611be857611be7612e5f565b5b0492506040810190505b6d04ee2d6d415b85acef81000000008310611c2f576d04ee2d6d415b85acef81000000008381611c2557611c24612e5f565b5b0492506020810190505b662386f26fc100008310611c5e57662386f26fc100008381611c5457611c53612e5f565b5b0492506010810190505b6305f5e1008310611c87576305f5e1008381611c7d57611c7c612e5f565b5b0492506008810190505b6127108310611cac576127108381611ca257611ca1612e5f565b5b0492506004810190505b60648310611ccf5760648381611cc557611cc4612e5f565b5b0492506002810190505b600a8310611cde576001810190505b80915050919050565b6000808273ffffffffffffffffffffffffffffffffffffffff163b119050919050565b6040518060400160405280600073ffffffffffffffffffffffffffffffffffffffff168152602001600081525090565b6000604051905090565b600080fd5b600080fd5b60007fffffffff0000000000000000000000000000000000000000000000000000000082169050919050565b611d8381611d4e565b8114611d8e57600080fd5b50565b600081359050611da081611d7a565b92915050565b600060208284031215611dbc57611dbb611d44565b5b6000611dca84828501611d91565b91505092915050565b60008115159050919050565b611de881611dd3565b82525050565b6000602082019050611e036000830184611ddf565b92915050565b600081519050919050565b600082825260208201905092915050565b60005b83811015611e43578082015181840152602081019050611e28565b60008484015250505050565b6000601f19601f8301169050919050565b6000611e6b82611e09565b611e758185611e14565b9350611e85818560208601611e25565b611e8e81611e4f565b840191505092915050565b60006020820190508181036000830152611eb38184611e60565b905092915050565b6000819050919050565b611ece81611ebb565b8114611ed957600080fd5b50565b600081359050611eeb81611ec5565b92915050565b600060208284031215611f0757611f06611d44565b5b6000611f1584828501611edc565b91505092915050565b600073ffffffffffffffffffffffffffffffffffffffff82169050919050565b6000611f4982611f1e565b9050919050565b611f5981611f3e565b82525050565b6000602082019050611f746000830184611f50565b92915050565b611f8381611f3e565b8114611f8e57600080fd5b50565b600081359050611fa081611f7a565b92915050565b60008060408385031215611fbd57611fbc611d44565b5b6000611fcb85828601611f91565b9250506020611fdc85828601611edc565b9150509250929050565b600080600060608486031215611fff57611ffe611d44565b5b600061200d86828701611f91565b935050602061201e86828701611f91565b925050604061202f86828701611edc565b9150509250925092565b61204281611ebb565b82525050565b600060208201905061205d6000830184612039565b92915050565b6000806040838503121561207a57612079611d44565b5b600061208885828601611edc565b925050602061209985828601611edc565b9150509250929050565b6000602082840312156120b9576120b8611d44565b5b60006120c784828501611f91565b91505092915050565b6120d981611dd3565b81146120e457600080fd5b50565b6000813590506120f6816120d0565b92915050565b6000806040838503121561211357612112611d44565b5b600061212185828601611f91565b9250506020612132858286016120e7565b9150509250929050565b600080fd5b600080fd5b7f4e487b7100000000000000000000000000000000000000000000000000000000600052604160045260246000fd5b61217e82611e4f565b810181811067ffffffffffffffff8211171561219d5761219c612146565b5b80604052505050565b60006121b0611d3a565b90506121bc8282612175565b919050565b600067ffffffffffffffff8211156121dc576121db612146565b5b6121e582611e4f565b9050602081019050919050565b82818337600083830152505050565b600061221461220f846121c1565b6121a6565b9050828152602081018484840111156122305761222f612141565b5b61223b8482856121f2565b509392505050565b600082601f8301126122585761225761213c565b5b8135612268848260208601612201565b91505092915050565b6000806000806080858703121561228b5761228a611d44565b5b600061229987828801611f91565b94505060206122aa87828801611f91565b93505060406122bb87828801611edc565b925050606085013567ffffffffffffffff8111156122dc576122db611d49565b5b6122e887828801612243565b91505092959194509250565b6122fd81611f3e565b82525050565b61230c81611ebb565b82525050565b60408201600082015161232860008501826122f4565b50602082015161233b6020850182612303565b50505050565b60006040820190506123566000830184612312565b92915050565b6000806040838503121561237357612372611d44565b5b600061238185828601611f91565b925050602061239285828601611f91565b9150509250929050565b7f4e487b7100000000000000000000000000000000000000000000000000000000600052602260045260246000fd5b600060028204905060018216806123e357607f821691505b6020821081036123f6576123f561239c565b5b50919050565b7f4552433732313a20617070726f76616c20746f2063757272656e74206f776e6560008201527f7200000000000000000000000000000000000000000000000000000000000000602082015250565b6000612458602183611e14565b9150612463826123fc565b604082019050919050565b600060208201905081810360008301526124878161244b565b9050919050565b7f4552433732313a20617070726f76652063616c6c6572206973206e6f7420746f60008201527f6b656e206f776e6572206f7220617070726f76656420666f7220616c6c000000602082015250565b60006124ea603d83611e14565b91506124f58261248e565b604082019050919050565b60006020820190508181036000830152612519816124dd565b9050919050565b7f4552433732313a2063616c6c6572206973206e6f7420746f6b656e206f776e6560008201527f72206f7220617070726f76656400000000000000000000000000000000000000602082015250565b600061257c602d83611e14565b915061258782612520565b604082019050919050565b600060208201905081810360008301526125ab8161256f565b9050919050565b7f4552433732313a20696e76616c696420746f6b656e2049440000000000000000600082015250565b60006125e8601883611e14565b91506125f3826125b2565b602082019050919050565b60006020820190508181036000830152612617816125db565b9050919050565b7f43616c6c6572206973206e6f7420746f6b656e206f776e657200000000000000600082015250565b6000612654601983611e14565b915061265f8261261e565b602082019050919050565b6000602082019050818103600083015261268381612647565b9050919050565b7f5072696365206d7573742062652067726561746572207468616e203000000000600082015250565b60006126c0601c83611e14565b91506126cb8261268a565b602082019050919050565b600060208201905081810360008301526126ef816126b3565b9050919050565b7f4552433732313a2061646472657373207a65726f206973206e6f74206120766160008201527f6c6964206f776e65720000000000000000000000000000000000000000000000602082015250565b6000612752602983611e14565b915061275d826126f6565b604082019050919050565b6000602082019050818103600083015261278181612745565b9050919050565b60008151905061279781611f7a565b92915050565b6000602082840312156127b3576127b2611d44565b5b60006127c184828501612788565b91505092915050565b600080fd5b600080fd5b60006127df82611f3e565b9050919050565b6127ef816127d4565b81146127fa57600080fd5b50565b60008151905061280c816127e6565b92915050565b600067ffffffffffffffff82111561282d5761282c612146565b5b61283682611e4f565b9050602081019050919050565b600061285661285184612812565b6121a6565b90508281526020810184848401111561287257612871612141565b5b61287d848285611e25565b509392505050565b600082601f83011261289a5761289961213c565b5b81516128aa848260208601612843565b91505092915050565b600281106128c057600080fd5b50565b6000815190506128d2816128b3565b92915050565b60007fffffffffffffffffffffffffffff00000000000000000000000000000000000082169050919050565b61290d816128d8565b811461291857600080fd5b50565b60008151905061292a81612904565b92915050565b60008151905061293f816120d0565b92915050565b600060a0828403121561295b5761295a6127ca565b5b61296560a06121a6565b90506000612975848285016127fd565b600083015250602082015167ffffffffffffffff811115612999576129986127cf565b5b6129a584828501612885565b60208301525060406129b9848285016128c3565b60408301525060606129cd8482850161291b565b60608301525060806129e184828501612930565b60808301525092915050565b600060208284031215612a0357612a02611d44565b5b600082015167ffffffffffffffff811115612a2157612a20611d49565b5b612a2d84828501612945565b91505092915050565b7f43616c6c6572206973206e6f7420616c6c6f77656420746f206d696e74000000600082015250565b6000612a6c601d83611e14565b9150612a7782612a36565b602082019050919050565b60006020820190508181036000830152612a9b81612a5f565b9050919050565b7f4e487b7100000000000000000000000000000000000000000000000000000000600052601160045260246000fd5b6000612adc82611ebb565b9150612ae783611ebb565b9250828201905080821115612aff57612afe612aa2565b5b92915050565b600081905092915050565b6000612b1b82611e09565b612b258185612b05565b9350612b35818560208601611e25565b80840191505092915050565b6000612b4d8285612b10565b9150612b598284612b10565b91508190509392505050565b7f4552433732313a207472616e736665722066726f6d20696e636f72726563742060008201527f6f776e6572000000000000000000000000000000000000000000000000000000602082015250565b6000612bc1602583611e14565b9150612bcc82612b65565b604082019050919050565b60006020820190508181036000830152612bf081612bb4565b9050919050565b7f4552433732313a207472616e7366657220746f20746865207a65726f2061646460008201527f7265737300000000000000000000000000000000000000000000000000000000602082015250565b6000612c53602483611e14565b9150612c5e82612bf7565b604082019050919050565b60006020820190508181036000830152612c8281612c46565b9050919050565b7f4552433732313a206d696e7420746f20746865207a65726f2061646472657373600082015250565b6000612cbf602083611e14565b9150612cca82612c89565b602082019050919050565b60006020820190508181036000830152612cee81612cb2565b9050919050565b7f4552433732313a20746f6b656e20616c7265616479206d696e74656400000000600082015250565b6000612d2b601c83611e14565b9150612d3682612cf5565b602082019050919050565b60006020820190508181036000830152612d5a81612d1e565b9050919050565b7f4552433732313a20617070726f766520746f2063616c6c657200000000000000600082015250565b6000612d97601983611e14565b9150612da282612d61565b602082019050919050565b60006020820190508181036000830152612dc681612d8a565b9050919050565b7f4552433732313a207472616e7366657220746f206e6f6e20455243373231526560008201527f63656976657220696d706c656d656e7465720000000000000000000000000000602082015250565b6000612e29603283611e14565b9150612e3482612dcd565b604082019050919050565b60006020820190508181036000830152612e5881612e1c565b9050919050565b7f4e487b7100000000000000000000000000000000000000000000000000000000600052601260045260246000fd5b7f5265636569766572206d7573742062652061205368757474657270726f6f662060008201527f7573657200000000000000000000000000000000000000000000000000000000602082015250565b6000612eea602483611e14565b9150612ef582612e8e565b604082019050919050565b60006020820190508181036000830152612f1981612edd565b9050919050565b600081519050919050565b600082825260208201905092915050565b6000612f4782612f20565b612f518185612f2b565b9350612f61818560208601611e25565b612f6a81611e4f565b840191505092915050565b6000608082019050612f8a6000830187611f50565b612f976020830186611f50565b612fa46040830185612039565b8181036060830152612fb68184612f3c565b905095945050505050565b600081519050612fd081611d7a565b92915050565b600060208284031215612fec57612feb611d44565b5b6000612ffa84828501612fc1565b9150509291505056fea26469706673582212209986fe2dc57b95561a24cacae5146855494bf2b0aa97b50afe9ecb97f88c579464736f6c63430008120033",
  "immutableReferences": {},
  "source": "// SPDX-License-Identifier: MIT\n\npragma solidity 0.8.18;\n\nimport \"./PaternitySBT.sol\";\nimport \"./ShutterProof.sol\";\nimport \"../node_modules/@openzeppelin/contracts/token/ERC721/ERC721.sol\";\n\n/// @title ExclusiveRightsNFT manages NTF that represents exclusive rights \n/// @dev Part of ShutterProof\n/// @author asaintvanne\ncontract ExclusiveRightsNFT is ERC721 {\n\n    /// @notice SBT is a PaternitySBT contract address and SBT id\n    struct SBT {\n        address sbtAddress;\n        uint256 tokenId;\n    }\n\n    /// @notice ShutterProof contract\n    ShutterProof _shutterProof;\n    /// @notice Token index\n    uint256 public _balance;\n    /// @notice Sale price for each NTF\n    mapping(uint256 => uint) salePrice;\n    /// @notice PaternitySBT for each NTF\n    mapping(uint256 => SBT) sbt;\n\n    constructor(ShutterProof shutterProof) ERC721(\"ShutterProof Exclusive Rights\", \"SPER\")\n    {\n        _shutterProof = shutterProof;\n    }\n\n    modifier onlyOwner(uint tokenId) {\n        require(ownerOf(tokenId) == msg.sender, \"Caller is not token owner\");\n        _;\n    }\n\n    /// @notice Put in sale a NFT\n    /// @param tokenId NFT id\n    /// @param price NFT price\n    function saleExclusiveRights(uint tokenId, uint price) external onlyOwner(tokenId)\n    {\n        require(price > 0, \"Price must be greater than 0\");\n\n        salePrice[tokenId] = price;\n        \n    }\n\n    /// @notice Remove from sale a NFT\n    /// @param tokenId NFT id\n    function unsaleExclusiveRights(uint tokenId) external onlyOwner(tokenId)\n    {\n        salePrice[tokenId] = 0;\n    }\n\n    /// @notice Mint a new exclusive rights NFT\n    ///@dev Only a ParternitySBT contract can mint a NFT\n    /// @param idPaternitySBT PaternitySBT token id\n    function mint(uint idPaternitySBT) external \n    {\n        PaternitySBT paternitySBT = PaternitySBT(msg.sender);\n        address owner = paternitySBT.getOwner();\n\n        //Protect form attack by contract implements same functions like PaternitySBT (see PaternitySBTAttacker)\n        require(msg.sender == address(_shutterProof.getUser(owner).sbt), \"Caller is not allowed to mint\");\n\n        _mint(owner, _balance);\n        \n        sbt[_balance].tokenId = idPaternitySBT;\n        sbt[_balance].sbtAddress = msg.sender;\n\n        _balance += 1;\n    }\n\n    /// @notice Check before transfer\n    /// @dev Overrride OpenZeppelin ERC721 _beforeTokenTransfer\n    /// @param to Token recipient (others params unused)\n    function _beforeTokenTransfer(address from, address to, uint256 tokenId, uint256 batchSize) internal view override\n    {\n        require(_shutterProof.getUser(to).registered, \"Receiver must be a Shutterproof user\");\n    }\n\n    /// @notice Operations after transfer\n    /// @dev Overrride OpenZeppelin ERC721 _afterTokenTransfer\n    /// @param tokenId NFT id (others params unused)\n    function _afterTokenTransfer(address from, address to, uint256 tokenId, uint256 batchSize) internal override\n    {\n        salePrice[tokenId] = 0;\n    }\n\n    /// @notice Get NFT Price\n    /// @dev If price = 0, NFT is not in sale\n    /// @param tokenId NFT id\n    function getPrice(uint256 tokenId) external view returns(uint256)\n    {\n        return salePrice[tokenId];\n    }\n\n    /// @notice Get NFT PaternitySBT informations\n    /// @param tokenId NFT id\n    function getSBT(uint tokenId) external view returns(SBT memory)\n    {\n        return sbt[tokenId];\n    }\n}",
  "sourcePath": "/Users/a.saintvanne/Desktop/BC/shutter-proof/truffle/contracts/ExclusiveRightsNFT.sol",
  "compiler": {
    "name": "solc",
    "version": "0.8.18+commit.87f61d96.Emscripten.clang"
  },
  "schemaVersion": "3.4.12",
  "updatedAt": "2023-04-08T09:58:16.831Z",
  "devdoc": {
    "author": "asaintvanne",
    "details": "Part of ShutterProof",
    "events": {
      "Approval(address,address,uint256)": {
        "details": "Emitted when `owner` enables `approved` to manage the `tokenId` token."
      },
      "ApprovalForAll(address,address,bool)": {
        "details": "Emitted when `owner` enables or disables (`approved`) `operator` to manage all of its assets."
      },
      "Transfer(address,address,uint256)": {
        "details": "Emitted when `tokenId` token is transferred from `from` to `to`."
      }
    },
    "kind": "dev",
    "methods": {
      "approve(address,uint256)": {
        "details": "See {IERC721-approve}."
      },
      "balanceOf(address)": {
        "details": "See {IERC721-balanceOf}."
      },
      "getApproved(uint256)": {
        "details": "See {IERC721-getApproved}."
      },
      "getPrice(uint256)": {
        "details": "If price = 0, NFT is not in sale",
        "params": {
          "tokenId": "NFT id"
        }
      },
      "getSBT(uint256)": {
        "params": {
          "tokenId": "NFT id"
        }
      },
      "isApprovedForAll(address,address)": {
        "details": "See {IERC721-isApprovedForAll}."
      },
      "mint(uint256)": {
        "details": "Only a ParternitySBT contract can mint a NFT",
        "params": {
          "idPaternitySBT": "PaternitySBT token id"
        }
      },
      "name()": {
        "details": "See {IERC721Metadata-name}."
      },
      "ownerOf(uint256)": {
        "details": "See {IERC721-ownerOf}."
      },
      "safeTransferFrom(address,address,uint256)": {
        "details": "See {IERC721-safeTransferFrom}."
      },
      "safeTransferFrom(address,address,uint256,bytes)": {
        "details": "See {IERC721-safeTransferFrom}."
      },
      "saleExclusiveRights(uint256,uint256)": {
        "params": {
          "price": "NFT price",
          "tokenId": "NFT id"
        }
      },
      "setApprovalForAll(address,bool)": {
        "details": "See {IERC721-setApprovalForAll}."
      },
      "supportsInterface(bytes4)": {
        "details": "See {IERC165-supportsInterface}."
      },
      "symbol()": {
        "details": "See {IERC721Metadata-symbol}."
      },
      "tokenURI(uint256)": {
        "details": "See {IERC721Metadata-tokenURI}."
      },
      "transferFrom(address,address,uint256)": {
        "details": "See {IERC721-transferFrom}."
      },
      "unsaleExclusiveRights(uint256)": {
        "params": {
          "tokenId": "NFT id"
        }
      }
    },
    "title": "ExclusiveRightsNFT manages NTF that represents exclusive rights ",
    "version": 1
  },
  "userdoc": {
    "kind": "user",
    "methods": {
      "_balance()": {
        "notice": "Token index"
      },
      "getPrice(uint256)": {
        "notice": "Get NFT Price"
      },
      "getSBT(uint256)": {
        "notice": "Get NFT PaternitySBT informations"
      },
      "mint(uint256)": {
        "notice": "Mint a new exclusive rights NFT"
      },
      "saleExclusiveRights(uint256,uint256)": {
        "notice": "Put in sale a NFT"
      },
      "unsaleExclusiveRights(uint256)": {
        "notice": "Remove from sale a NFT"
      }
    },
    "version": 1
  }
}