{
  "contractName": "ShutterProof",
  "abi": [
    {
      "inputs": [],
      "stateMutability": "nonpayable",
      "type": "constructor"
    },
    {
      "anonymous": false,
      "inputs": [
        {
          "indexed": false,
          "internalType": "address",
          "name": "userAdress",
          "type": "address"
        },
        {
          "indexed": false,
          "internalType": "enum ShutterProof.UserRole",
          "name": "role",
          "type": "uint8"
        }
      ],
      "name": "UserRegistered",
      "type": "event"
    },
    {
      "inputs": [
        {
          "internalType": "string",
          "name": "_name",
          "type": "string"
        },
        {
          "internalType": "bytes14",
          "name": "_siret",
          "type": "bytes14"
        },
        {
          "internalType": "enum ShutterProof.UserRole",
          "name": "_role",
          "type": "uint8"
        }
      ],
      "name": "register",
      "outputs": [],
      "stateMutability": "nonpayable",
      "type": "function"
    },
    {
      "inputs": [
        {
          "internalType": "address",
          "name": "_address",
          "type": "address"
        }
      ],
      "name": "getUser",
      "outputs": [
        {
          "components": [
            {
              "internalType": "contract PaternitySBT",
              "name": "sbt",
              "type": "address"
            },
            {
              "internalType": "string",
              "name": "name",
              "type": "string"
            },
            {
              "internalType": "enum ShutterProof.UserRole",
              "name": "role",
              "type": "uint8"
            },
            {
              "internalType": "bytes14",
              "name": "siret",
              "type": "bytes14"
            },
            {
              "internalType": "bool",
              "name": "registered",
              "type": "bool"
            }
          ],
          "internalType": "struct ShutterProof.User",
          "name": "",
          "type": "tuple"
        }
      ],
      "stateMutability": "view",
      "type": "function",
      "constant": true
    },
    {
      "inputs": [
        {
          "internalType": "address",
          "name": "_address",
          "type": "address"
        }
      ],
      "name": "getPaternitySBT",
      "outputs": [
        {
          "internalType": "contract PaternitySBT",
          "name": "",
          "type": "address"
        }
      ],
      "stateMutability": "view",
      "type": "function",
      "constant": true
    },
    {
      "inputs": [
        {
          "internalType": "uint256",
          "name": "tokenId",
          "type": "uint256"
        }
      ],
      "name": "buyExclusiveRights",
      "outputs": [],
      "stateMutability": "payable",
      "type": "function",
      "payable": true
    },
    {
      "inputs": [],
      "name": "getExclusiveRightsNFT",
      "outputs": [
        {
          "internalType": "contract ExclusiveRightsNFT",
          "name": "",
          "type": "address"
        }
      ],
      "stateMutability": "view",
      "type": "function",
      "constant": true
    }
  ],
  "bytecode": "0x60806040523480156200001157600080fd5b50600160008190555030604051620000299062000099565b62000035919062000132565b604051809103906000f08015801562000052573d6000803e3d6000fd5b50600260006101000a81548173ffffffffffffffffffffffffffffffffffffffff021916908373ffffffffffffffffffffffffffffffffffffffff1602179055506200014f565b61356b806200300c83390190565b600073ffffffffffffffffffffffffffffffffffffffff82169050919050565b6000819050919050565b6000620000f2620000ec620000e684620000a7565b620000c7565b620000a7565b9050919050565b60006200010682620000d1565b9050919050565b60006200011a82620000f9565b9050919050565b6200012c816200010d565b82525050565b600060208201905062000149600083018462000121565b92915050565b612ead806200015f6000396000f3fe608060405260043610620000505760003560e01c80634afe99ad14620000555780635049b90414620000995780636f77926b14620000c957806392736077146200010d578063a6280cd6146200012d575b600080fd5b3480156200006257600080fd5b506200008160048036038101906200007b91906200119d565b6200015b565b6040516200009091906200123a565b60405180910390f35b348015620000a657600080fd5b50620000b16200029a565b604051620000c091906200127c565b60405180910390f35b348015620000d657600080fd5b50620000f56004803603810190620000ef91906200119d565b620002c4565b6040516200010491906200149e565b60405180910390f35b6200012b6004803603810190620001259190620014fd565b620004ac565b005b3480156200013a57600080fd5b50620001596004803603810190620001539190620015f6565b620009b9565b005b60008073ffffffffffffffffffffffffffffffffffffffff16600160008473ffffffffffffffffffffffffffffffffffffffff1673ffffffffffffffffffffffffffffffffffffffff16815260200190815260200160002060000160009054906101000a900473ffffffffffffffffffffffffffffffffffffffff1673ffffffffffffffffffffffffffffffffffffffff160362000230576040517f08c379a00000000000000000000000000000000000000000000000000000000081526004016200022790620016fd565b60405180910390fd5b600160008373ffffffffffffffffffffffffffffffffffffffff1673ffffffffffffffffffffffffffffffffffffffff16815260200190815260200160002060000160009054906101000a900473ffffffffffffffffffffffffffffffffffffffff169050919050565b6000600260009054906101000a900473ffffffffffffffffffffffffffffffffffffffff16905090565b620002ce620010af565b600160008373ffffffffffffffffffffffffffffffffffffffff1673ffffffffffffffffffffffffffffffffffffffff1681526020019081526020016000206040518060a00160405290816000820160009054906101000a900473ffffffffffffffffffffffffffffffffffffffff1673ffffffffffffffffffffffffffffffffffffffff1673ffffffffffffffffffffffffffffffffffffffff16815260200160018201805462000380906200174e565b80601f0160208091040260200160405190810160405280929190818152602001828054620003ae906200174e565b8015620003ff5780601f10620003d357610100808354040283529160200191620003ff565b820191906000526020600020905b815481529060010190602001808311620003e157829003601f168201915b505050505081526020016002820160009054906101000a900460ff16600181111562000430576200042f62001344565b5b600181111562000445576200044462001344565b5b81526020016002820160019054906101000a900460901b71ffffffffffffffffffffffffffffffffffff191671ffffffffffffffffffffffffffffffffffff1916815260200160028201600f9054906101000a900460ff1615151515815250509050919050565b620004b662001053565b600160003373ffffffffffffffffffffffffffffffffffffffff1673ffffffffffffffffffffffffffffffffffffffff168152602001908152602001600020600201600f9054906101000a900460ff1662000548576040517f08c379a00000000000000000000000000000000000000000000000000000000081526004016200053f90620017d3565b60405180910390fd5b6000600260009054906101000a900473ffffffffffffffffffffffffffffffffffffffff1673ffffffffffffffffffffffffffffffffffffffff1663e7572230836040518263ffffffff1660e01b8152600401620005a7919062001806565b602060405180830381865afa158015620005c5573d6000803e3d6000fd5b505050506040513d601f19601f82011682018060405250810190620005eb91906200183a565b90506000811162000633576040517f08c379a00000000000000000000000000000000000000000000000000000000081526004016200062a90620018bc565b60405180910390fd5b6000600260009054906101000a900473ffffffffffffffffffffffffffffffffffffffff1673ffffffffffffffffffffffffffffffffffffffff16636352211e846040518263ffffffff1660e01b815260040162000692919062001806565b602060405180830381865afa158015620006b0573d6000803e3d6000fd5b505050506040513d601f19601f82011682018060405250810190620006d69190620018f5565b90503373ffffffffffffffffffffffffffffffffffffffff168173ffffffffffffffffffffffffffffffffffffffff160362000749576040517f08c379a0000000000000000000000000000000000000000000000000000000008152600401620007409062001977565b60405180910390fd5b813410156200078f576040517f08c379a00000000000000000000000000000000000000000000000000000000081526004016200078690620019e9565b60405180910390fd5b600260009054906101000a900473ffffffffffffffffffffffffffffffffffffffff1673ffffffffffffffffffffffffffffffffffffffff166342842e0e8233866040518463ffffffff1660e01b8152600401620007f09392919062001a1c565b600060405180830381600087803b1580156200080b57600080fd5b505af115801562000820573d6000803e3d6000fd5b5050505060008173ffffffffffffffffffffffffffffffffffffffff16836040516200084c9062001a8e565b60006040518083038185875af1925050503d80600081146200088b576040519150601f19603f3d011682016040523d82523d6000602084013e62000890565b606091505b5050905080620008d7576040517f08c379a0000000000000000000000000000000000000000000000000000000008152600401620008ce9062001af5565b60405180910390fd5b60008334620008e7919062001b46565b90506000811115620009a85760003373ffffffffffffffffffffffffffffffffffffffff16826040516200091b9062001a8e565b60006040518083038185875af1925050503d80600081146200095a576040519150601f19603f3d011682016040523d82523d6000602084013e6200095f565b606091505b5050905080620009a6576040517f08c379a00000000000000000000000000000000000000000000000000000000081526004016200099d9062001bd1565b60405180910390fd5b505b50505050620009b6620010a5565b50565b6000600160003373ffffffffffffffffffffffffffffffffffffffff1673ffffffffffffffffffffffffffffffffffffffff1681526020019081526020016000206040518060a00160405290816000820160009054906101000a900473ffffffffffffffffffffffffffffffffffffffff1673ffffffffffffffffffffffffffffffffffffffff1673ffffffffffffffffffffffffffffffffffffffff16815260200160018201805462000a6d906200174e565b80601f016020809104026020016040519081016040528092919081815260200182805462000a9b906200174e565b801562000aec5780601f1062000ac05761010080835404028352916020019162000aec565b820191906000526020600020905b81548152906001019060200180831162000ace57829003601f168201915b505050505081526020016002820160009054906101000a900460ff16600181111562000b1d5762000b1c62001344565b5b600181111562000b325762000b3162001344565b5b81526020016002820160019054906101000a900460901b71ffffffffffffffffffffffffffffffffffff191671ffffffffffffffffffffffffffffffffffff1916815260200160028201600f9054906101000a900460ff161515151581525050905080608001511562000bdc576040517f08c379a000000000000000000000000000000000000000000000000000000000815260040162000bd39062001c43565b60405180910390fd5b6040518060200160405280600081525080519060200120858560405162000c0592919062001c9d565b60405180910390200362000c50576040517f08c379a000000000000000000000000000000000000000000000000000000000815260040162000c479062001d08565b60405180910390fd5b60005b600e81101562000d7c577f30000000000000000000000000000000000000000000000000000000000000008482600e811062000c945762000c9362001d2a565b5b1a60f81b7effffffffffffffffffffffffffffffffffffffffffffffffffffffffffffff19161015801562000d2457507f39000000000000000000000000000000000000000000000000000000000000008482600e811062000cfb5762000cfa62001d2a565b5b1a60f81b7effffffffffffffffffffffffffffffffffffffffffffffffffffffffffffff191611155b62000d66576040517f08c379a000000000000000000000000000000000000000000000000000000000815260040162000d5d9062001da9565b60405180910390fd5b808062000d739062001dcb565b91505062000c53565b508484600160003373ffffffffffffffffffffffffffffffffffffffff1673ffffffffffffffffffffffffffffffffffffffff168152602001908152602001600020600101918262000dd09291906200201a565b5082600160003373ffffffffffffffffffffffffffffffffffffffff1673ffffffffffffffffffffffffffffffffffffffff16815260200190815260200160002060020160016101000a8154816dffffffffffffffffffffffffffff021916908360901c021790555081600160003373ffffffffffffffffffffffffffffffffffffffff1673ffffffffffffffffffffffffffffffffffffffff16815260200190815260200160002060020160006101000a81548160ff0219169083600181111562000ea15762000ea062001344565b5b021790555060018060003373ffffffffffffffffffffffffffffffffffffffff1673ffffffffffffffffffffffffffffffffffffffff168152602001908152602001600020600201600f6101000a81548160ff0219169083151502179055506000600181111562000f175762000f1662001344565b5b82600181111562000f2d5762000f2c62001344565b5b03620010115733600260009054906101000a900473ffffffffffffffffffffffffffffffffffffffff1660405162000f659062001120565b62000f72929190620020ff565b604051809103906000f08015801562000f8f573d6000803e3d6000fd5b50600160003373ffffffffffffffffffffffffffffffffffffffff1673ffffffffffffffffffffffffffffffffffffffff16815260200190815260200160002060000160006101000a81548173ffffffffffffffffffffffffffffffffffffffff021916908373ffffffffffffffffffffffffffffffffffffffff1602179055505b7f8e18574f8a7333e6a87112742a55853a643e2f0550f4e1a3a2c3f1bb2994441d3383604051620010449291906200213d565b60405180910390a15050505050565b6002600054036200109b576040517f08c379a00000000000000000000000000000000000000000000000000000000081526004016200109290620021ba565b60405180910390fd5b6002600081905550565b6001600081905550565b6040518060a00160405280600073ffffffffffffffffffffffffffffffffffffffff1681526020016060815260200160006001811115620010f557620010f462001344565b5b8152602001600071ffffffffffffffffffffffffffffffffffff191681526020016000151581525090565b610c9b80620021dd83390190565b600080fd5b600080fd5b600073ffffffffffffffffffffffffffffffffffffffff82169050919050565b6000620011658262001138565b9050919050565b620011778162001158565b81146200118357600080fd5b50565b60008135905062001197816200116c565b92915050565b600060208284031215620011b657620011b56200112e565b5b6000620011c68482850162001186565b91505092915050565b6000819050919050565b6000620011fa620011f4620011ee8462001138565b620011cf565b62001138565b9050919050565b60006200120e82620011d9565b9050919050565b6000620012228262001201565b9050919050565b620012348162001215565b82525050565b600060208201905062001251600083018462001229565b92915050565b6000620012648262001201565b9050919050565b620012768162001257565b82525050565b60006020820190506200129360008301846200126b565b92915050565b620012a48162001215565b82525050565b600081519050919050565b600082825260208201905092915050565b60005b83811015620012e6578082015181840152602081019050620012c9565b60008484015250505050565b6000601f19601f8301169050919050565b60006200131082620012aa565b6200131c8185620012b5565b93506200132e818560208601620012c6565b6200133981620012f2565b840191505092915050565b7f4e487b7100000000000000000000000000000000000000000000000000000000600052602160045260246000fd5b6002811062001387576200138662001344565b5b50565b60008190506200139a8262001373565b919050565b6000620013ac826200138a565b9050919050565b620013be816200139f565b82525050565b60007fffffffffffffffffffffffffffff00000000000000000000000000000000000082169050919050565b620013fb81620013c4565b82525050565b60008115159050919050565b620014188162001401565b82525050565b600060a08301600083015162001438600086018262001299565b506020830151848203602086015262001452828262001303565b9150506040830151620014696040860182620013b3565b5060608301516200147e6060860182620013f0565b5060808301516200149360808601826200140d565b508091505092915050565b60006020820190508181036000830152620014ba81846200141e565b905092915050565b6000819050919050565b620014d781620014c2565b8114620014e357600080fd5b50565b600081359050620014f781620014cc565b92915050565b6000602082840312156200151657620015156200112e565b5b60006200152684828501620014e6565b91505092915050565b600080fd5b600080fd5b600080fd5b60008083601f8401126200155757620015566200152f565b5b8235905067ffffffffffffffff81111562001577576200157662001534565b5b60208301915083600182028301111562001596576200159562001539565b5b9250929050565b620015a881620013c4565b8114620015b457600080fd5b50565b600081359050620015c8816200159d565b92915050565b60028110620015dc57600080fd5b50565b600081359050620015f081620015ce565b92915050565b600080600080606085870312156200161357620016126200112e565b5b600085013567ffffffffffffffff81111562001634576200163362001133565b5b62001642878288016200153e565b945094505060206200165787828801620015b7565b92505060406200166a87828801620015df565b91505092959194509250565b600082825260208201905092915050565b7f5573657220686173206e6f2050617465726e69747953425420636f6e7472616360008201527f7400000000000000000000000000000000000000000000000000000000000000602082015250565b6000620016e560218362001676565b9150620016f28262001687565b604082019050919050565b600060208201905081810360008301526200171881620016d6565b9050919050565b7f4e487b7100000000000000000000000000000000000000000000000000000000600052602260045260246000fd5b600060028204905060018216806200176757607f821691505b6020821081036200177d576200177c6200171f565b5b50919050565b7f43616c6c6572206973206e6f7420726567697374657265640000000000000000600082015250565b6000620017bb60188362001676565b9150620017c88262001783565b602082019050919050565b60006020820190508181036000830152620017ee81620017ac565b9050919050565b6200180081620014c2565b82525050565b60006020820190506200181d6000830184620017f5565b92915050565b6000815190506200183481620014cc565b92915050565b6000602082840312156200185357620018526200112e565b5b6000620018638482850162001823565b91505092915050565b7f50686f746f677261706879206973206e6f7420666f722073616c650000000000600082015250565b6000620018a4601b8362001676565b9150620018b1826200186c565b602082019050919050565b60006020820190508181036000830152620018d78162001895565b9050919050565b600081519050620018ef816200116c565b92915050565b6000602082840312156200190e576200190d6200112e565b5b60006200191e84828501620018de565b91505092915050565b7f42757965722063616e6e6f742062757920686973206f776e204e465400000000600082015250565b60006200195f601c8362001676565b91506200196c8262001927565b602082019050919050565b60006020820190508181036000830152620019928162001950565b9050919050565b7f496e73756666696369656e74207061796d656e74000000000000000000000000600082015250565b6000620019d160148362001676565b9150620019de8262001999565b602082019050919050565b6000602082019050818103600083015262001a0481620019c2565b9050919050565b62001a168162001158565b82525050565b600060608201905062001a33600083018662001a0b565b62001a42602083018562001a0b565b62001a516040830184620017f5565b949350505050565b600081905092915050565b50565b600062001a7660008362001a59565b915062001a838262001a64565b600082019050919050565b600062001a9b8262001a67565b9150819050919050565b7f5472616e7366657220746f2073656c6c6572206661696c656400000000000000600082015250565b600062001add60198362001676565b915062001aea8262001aa5565b602082019050919050565b6000602082019050818103600083015262001b108162001ace565b9050919050565b7f4e487b7100000000000000000000000000000000000000000000000000000000600052601160045260246000fd5b600062001b5382620014c2565b915062001b6083620014c2565b925082820390508181111562001b7b5762001b7a62001b17565b5b92915050565b7f526566756e6420746f206275796572206661696c656400000000000000000000600082015250565b600062001bb960168362001676565b915062001bc68262001b81565b602082019050919050565b6000602082019050818103600083015262001bec8162001baa565b9050919050565b7f5573657220697320616c72656164792072656769737465726564000000000000600082015250565b600062001c2b601a8362001676565b915062001c388262001bf3565b602082019050919050565b6000602082019050818103600083015262001c5e8162001c1c565b9050919050565b82818337600083830152505050565b600062001c82838562001a59565b935062001c9183858462001c65565b82840190509392505050565b600062001cac82848662001c74565b91508190509392505050565b7f4e616d652063616e6e6f7420626520656d707479000000000000000000000000600082015250565b600062001cf060148362001676565b915062001cfd8262001cb8565b602082019050919050565b6000602082019050818103600083015262001d238162001ce1565b9050919050565b7f4e487b7100000000000000000000000000000000000000000000000000000000600052603260045260246000fd5b7f5349524554206973206e6f742077656c6c20666f726d65640000000000000000600082015250565b600062001d9160188362001676565b915062001d9e8262001d59565b602082019050919050565b6000602082019050818103600083015262001dc48162001d82565b9050919050565b600062001dd882620014c2565b91507fffffffffffffffffffffffffffffffffffffffffffffffffffffffffffffffff820362001e0d5762001e0c62001b17565b5b600182019050919050565b600082905092915050565b7f4e487b7100000000000000000000000000000000000000000000000000000000600052604160045260246000fd5b60008190508160005260206000209050919050565b60006020601f8301049050919050565b600082821b905092915050565b60006008830262001eb67fffffffffffffffffffffffffffffffffffffffffffffffffffffffffffffffff8262001e77565b62001ec2868362001e77565b95508019841693508086168417925050509392505050565b600062001efb62001ef562001eef84620014c2565b620011cf565b620014c2565b9050919050565b6000819050919050565b62001f178362001eda565b62001f2f62001f268262001f02565b84845462001e84565b825550505050565b600090565b62001f4662001f37565b62001f5381848462001f0c565b505050565b5b8181101562001f7b5762001f6f60008262001f3c565b60018101905062001f59565b5050565b601f82111562001fca5762001f948162001e52565b62001f9f8462001e67565b8101602085101562001faf578190505b62001fc762001fbe8562001e67565b83018262001f58565b50505b505050565b600082821c905092915050565b600062001fef6000198460080262001fcf565b1980831691505092915050565b60006200200a838362001fdc565b9150826002028217905092915050565b62002026838362001e18565b67ffffffffffffffff81111562002042576200204162001e23565b5b6200204e82546200174e565b6200205b82828562001f7f565b6000601f8311600181146200208f57600084156200207a578287013590505b62002086858262001ffc565b865550620020f6565b601f1984166200209f8662001e52565b60005b82811015620020c957848901358255600182019150602085019450602081019050620020a2565b86831015620020e95784890135620020e5601f89168262001fdc565b8355505b6001600288020188555050505b50505050505050565b600060408201905062002116600083018562001a0b565b6200212560208301846200126b565b9392505050565b62002137816200139f565b82525050565b600060408201905062002154600083018562001a0b565b6200216360208301846200212c565b9392505050565b7f5265656e7472616e637947756172643a207265656e7472616e742063616c6c00600082015250565b6000620021a2601f8362001676565b9150620021af826200216a565b602082019050919050565b60006020820190508181036000830152620021d58162002193565b905091905056fe60806040523480156200001157600080fd5b5060405162000c9b38038062000c9b83398181016040528101906200003791906200016f565b81600160006101000a81548173ffffffffffffffffffffffffffffffffffffffff021916908373ffffffffffffffffffffffffffffffffffffffff160217905550806000806101000a81548173ffffffffffffffffffffffffffffffffffffffff021916908373ffffffffffffffffffffffffffffffffffffffff1602179055505050620001b6565b600080fd5b600073ffffffffffffffffffffffffffffffffffffffff82169050919050565b6000620000f282620000c5565b9050919050565b6200010481620000e5565b81146200011057600080fd5b50565b6000815190506200012481620000f9565b92915050565b60006200013782620000e5565b9050919050565b62000149816200012a565b81146200015557600080fd5b50565b60008151905062000169816200013e565b92915050565b60008060408385031215620001895762000188620000c0565b5b6000620001998582860162000113565b9250506020620001ac8582860162000158565b9150509250929050565b610ad580620001c66000396000f3fe608060405234801561001057600080fd5b50600436106100575760003560e01c8063893d20e81461005c5780638da5cb5b1461007a578063b69ef8a814610098578063d85d3d27146100b6578063e4b50cb8146100e6575b600080fd5b610064610116565b6040516100719190610438565b60405180910390f35b610082610140565b60405161008f9190610438565b60405180910390f35b6100a0610166565b6040516100ad919061046c565b60405180910390f35b6100d060048036038101906100cb91906104f6565b61016c565b6040516100dd919061046c565b60405180910390f35b61010060048036038101906100fb919061056f565b61030e565b60405161010d919061062c565b60405180910390f35b6000600160009054906101000a900473ffffffffffffffffffffffffffffffffffffffff16905090565b600160009054906101000a900473ffffffffffffffffffffffffffffffffffffffff1681565b60025481565b60003373ffffffffffffffffffffffffffffffffffffffff16600160009054906101000a900473ffffffffffffffffffffffffffffffffffffffff1673ffffffffffffffffffffffffffffffffffffffff16146101fe576040517f08c379a00000000000000000000000000000000000000000000000000000000081526004016101f59061069a565b60405180910390fd5b600060025490508383600360008481526020019081526020016000209182610227929190610900565b5060008054906101000a900473ffffffffffffffffffffffffffffffffffffffff1673ffffffffffffffffffffffffffffffffffffffff1663a0712d68826040518263ffffffff1660e01b8152600401610281919061046c565b600060405180830381600087803b15801561029b57600080fd5b505af11580156102af573d6000803e3d6000fd5b505050506001600260008282546102c691906109ff565b925050819055507f07883703ed0e86588a40d76551c92f8a4b329e3bf19765e0e6749473c1a84665816040516102fc919061046c565b60405180910390a18091505092915050565b60606002548210610354576040517f08c379a000000000000000000000000000000000000000000000000000000000815260040161034b90610a7f565b60405180910390fd5b60036000838152602001908152602001600020805461037290610723565b80601f016020809104026020016040519081016040528092919081815260200182805461039e90610723565b80156103eb5780601f106103c0576101008083540402835291602001916103eb565b820191906000526020600020905b8154815290600101906020018083116103ce57829003601f168201915b50505050509050919050565b600073ffffffffffffffffffffffffffffffffffffffff82169050919050565b6000610422826103f7565b9050919050565b61043281610417565b82525050565b600060208201905061044d6000830184610429565b92915050565b6000819050919050565b61046681610453565b82525050565b6000602082019050610481600083018461045d565b92915050565b600080fd5b600080fd5b600080fd5b600080fd5b600080fd5b60008083601f8401126104b6576104b5610491565b5b8235905067ffffffffffffffff8111156104d3576104d2610496565b5b6020830191508360018202830111156104ef576104ee61049b565b5b9250929050565b6000806020838503121561050d5761050c610487565b5b600083013567ffffffffffffffff81111561052b5761052a61048c565b5b610537858286016104a0565b92509250509250929050565b61054c81610453565b811461055757600080fd5b50565b60008135905061056981610543565b92915050565b60006020828403121561058557610584610487565b5b60006105938482850161055a565b91505092915050565b600081519050919050565b600082825260208201905092915050565b60005b838110156105d65780820151818401526020810190506105bb565b60008484015250505050565b6000601f19601f8301169050919050565b60006105fe8261059c565b61060881856105a7565b93506106188185602086016105b8565b610621816105e2565b840191505092915050565b6000602082019050818103600083015261064681846105f3565b905092915050565b7f43616c6c6572206973206e6f74206f776e657200000000000000000000000000600082015250565b60006106846013836105a7565b915061068f8261064e565b602082019050919050565b600060208201905081810360008301526106b381610677565b9050919050565b600082905092915050565b7f4e487b7100000000000000000000000000000000000000000000000000000000600052604160045260246000fd5b7f4e487b7100000000000000000000000000000000000000000000000000000000600052602260045260246000fd5b6000600282049050600182168061073b57607f821691505b60208210810361074e5761074d6106f4565b5b50919050565b60008190508160005260206000209050919050565b60006020601f8301049050919050565b600082821b905092915050565b6000600883026107b67fffffffffffffffffffffffffffffffffffffffffffffffffffffffffffffffff82610779565b6107c08683610779565b95508019841693508086168417925050509392505050565b6000819050919050565b60006107fd6107f86107f384610453565b6107d8565b610453565b9050919050565b6000819050919050565b610817836107e2565b61082b61082382610804565b848454610786565b825550505050565b600090565b610840610833565b61084b81848461080e565b505050565b5b8181101561086f57610864600082610838565b600181019050610851565b5050565b601f8211156108b45761088581610754565b61088e84610769565b8101602085101561089d578190505b6108b16108a985610769565b830182610850565b50505b505050565b600082821c905092915050565b60006108d7600019846008026108b9565b1980831691505092915050565b60006108f083836108c6565b9150826002028217905092915050565b61090a83836106ba565b67ffffffffffffffff811115610923576109226106c5565b5b61092d8254610723565b610938828285610873565b6000601f8311600181146109675760008415610955578287013590505b61095f85826108e4565b8655506109c7565b601f19841661097586610754565b60005b8281101561099d57848901358255600182019150602085019450602081019050610978565b868310156109ba57848901356109b6601f8916826108c6565b8355505b6001600288020188555050505b50505050505050565b7f4e487b7100000000000000000000000000000000000000000000000000000000600052601160045260246000fd5b6000610a0a82610453565b9150610a1583610453565b9250828201905080821115610a2d57610a2c6109d0565b5b92915050565b7f546f6b656e20646f65736e277420657869737400000000000000000000000000600082015250565b6000610a696013836105a7565b9150610a7482610a33565b602082019050919050565b60006020820190508181036000830152610a9881610a5c565b905091905056fea26469706673582212206b83b5139e48426ddd9bf868659bc012cc61c1f537fd3d648ea820d0e4206fe964736f6c63430008120033a26469706673582212208fd8d2f7366b3e636c78878ce3ccaf88ad97db2522b13d804ad7cac3b54011dd64736f6c6343000812003360806040523480156200001157600080fd5b506040516200356b3803806200356b83398181016040528101906200003791906200018f565b6040518060400160405280601d81526020017f5368757474657250726f6f66204578636c7573697665205269676874730000008152506040518060400160405280600481526020017f53504552000000000000000000000000000000000000000000000000000000008152508160009081620000b491906200043b565b508060019081620000c691906200043b565b50505080600660006101000a81548173ffffffffffffffffffffffffffffffffffffffff021916908373ffffffffffffffffffffffffffffffffffffffff1602179055505062000522565b600080fd5b600073ffffffffffffffffffffffffffffffffffffffff82169050919050565b6000620001438262000116565b9050919050565b6000620001578262000136565b9050919050565b62000169816200014a565b81146200017557600080fd5b50565b60008151905062000189816200015e565b92915050565b600060208284031215620001a857620001a762000111565b5b6000620001b88482850162000178565b91505092915050565b600081519050919050565b7f4e487b7100000000000000000000000000000000000000000000000000000000600052604160045260246000fd5b7f4e487b7100000000000000000000000000000000000000000000000000000000600052602260045260246000fd5b600060028204905060018216806200024357607f821691505b602082108103620002595762000258620001fb565b5b50919050565b60008190508160005260206000209050919050565b60006020601f8301049050919050565b600082821b905092915050565b600060088302620002c37fffffffffffffffffffffffffffffffffffffffffffffffffffffffffffffffff8262000284565b620002cf868362000284565b95508019841693508086168417925050509392505050565b6000819050919050565b6000819050919050565b60006200031c620003166200031084620002e7565b620002f1565b620002e7565b9050919050565b6000819050919050565b6200033883620002fb565b62000350620003478262000323565b84845462000291565b825550505050565b600090565b6200036762000358565b620003748184846200032d565b505050565b5b818110156200039c57620003906000826200035d565b6001810190506200037a565b5050565b601f821115620003eb57620003b5816200025f565b620003c08462000274565b81016020851015620003d0578190505b620003e8620003df8562000274565b83018262000379565b50505b505050565b600082821c905092915050565b60006200041060001984600802620003f0565b1980831691505092915050565b60006200042b8383620003fd565b9150826002028217905092915050565b6200044682620001c1565b67ffffffffffffffff811115620004625762000461620001cc565b5b6200046e82546200022a565b6200047b828285620003a0565b600060209050601f831160018114620004b357600084156200049e578287015190505b620004aa85826200041d565b8655506200051a565b601f198416620004c3866200025f565b60005b82811015620004ed57848901518255600182019150602085019450602081019050620004c6565b868310156200050d578489015162000509601f891682620003fd565b8355505b6001600288020188555050505b505050505050565b61303980620005326000396000f3fe608060405234801561001057600080fd5b50600436106101215760003560e01c806370a08231116100ad578063b90bb4e911610071578063b90bb4e914610304578063c87b56dd14610334578063e757223014610364578063e985e9c514610394578063f2d56853146103c457610121565b806370a082311461026257806395d89b4114610292578063a0712d68146102b0578063a22cb465146102cc578063b88d4fde146102e857610121565b806323b872dd116100f457806323b872dd146101c057806342842e0e146101dc57806356c4e05a146101f85780636352211e146102165780637016f6151461024657610121565b806301ffc9a71461012657806306fdde0314610156578063081812fc14610174578063095ea7b3146101a4575b600080fd5b610140600480360381019061013b9190611da6565b6103e0565b60405161014d9190611dee565b60405180910390f35b61015e6104c2565b60405161016b9190611e99565b60405180910390f35b61018e60048036038101906101899190611ef1565b610554565b60405161019b9190611f5f565b60405180910390f35b6101be60048036038101906101b99190611fa6565b61059a565b005b6101da60048036038101906101d59190611fe6565b6106b1565b005b6101f660048036038101906101f19190611fe6565b610711565b005b610200610731565b60405161020d9190612048565b60405180910390f35b610230600480360381019061022b9190611ef1565b610737565b60405161023d9190611f5f565b60405180910390f35b610260600480360381019061025b9190612063565b6107bd565b005b61027c600480360381019061027791906120a3565b610894565b6040516102899190612048565b60405180910390f35b61029a61094b565b6040516102a79190611e99565b60405180910390f35b6102ca60048036038101906102c59190611ef1565b6109dd565b005b6102e660048036038101906102e191906120fc565b610c06565b005b61030260048036038101906102fd9190612271565b610c1c565b005b61031e60048036038101906103199190611ef1565b610c7e565b60405161032b9190612341565b60405180910390f35b61034e60048036038101906103499190611ef1565b610d0b565b60405161035b9190611e99565b60405180910390f35b61037e60048036038101906103799190611ef1565b610d73565b60405161038b9190612048565b60405180910390f35b6103ae60048036038101906103a9919061235c565b610d90565b6040516103bb9190611dee565b60405180910390f35b6103de60048036038101906103d99190611ef1565b610e24565b005b60007f80ac58cd000000000000000000000000000000000000000000000000000000007bffffffffffffffffffffffffffffffffffffffffffffffffffffffff1916827bffffffffffffffffffffffffffffffffffffffffffffffffffffffff191614806104ab57507f5b5e139f000000000000000000000000000000000000000000000000000000007bffffffffffffffffffffffffffffffffffffffffffffffffffffffff1916827bffffffffffffffffffffffffffffffffffffffffffffffffffffffff1916145b806104bb57506104ba82610eb8565b5b9050919050565b6060600080546104d1906123cb565b80601f01602080910402602001604051908101604052809291908181526020018280546104fd906123cb565b801561054a5780601f1061051f5761010080835404028352916020019161054a565b820191906000526020600020905b81548152906001019060200180831161052d57829003601f168201915b5050505050905090565b600061055f82610f22565b6004600083815260200190815260200160002060009054906101000a900473ffffffffffffffffffffffffffffffffffffffff169050919050565b60006105a582610737565b90508073ffffffffffffffffffffffffffffffffffffffff168373ffffffffffffffffffffffffffffffffffffffff1603610615576040517f08c379a000000000000000000000000000000000000000000000000000000000815260040161060c9061246e565b60405180910390fd5b8073ffffffffffffffffffffffffffffffffffffffff16610634610f6d565b73ffffffffffffffffffffffffffffffffffffffff16148061066357506106628161065d610f6d565b610d90565b5b6106a2576040517f08c379a000000000000000000000000000000000000000000000000000000000815260040161069990612500565b60405180910390fd5b6106ac8383610f75565b505050565b6106c26106bc610f6d565b8261102e565b610701576040517f08c379a00000000000000000000000000000000000000000000000000000000081526004016106f890612592565b60405180910390fd5b61070c8383836110c3565b505050565b61072c83838360405180602001604052806000815250610c1c565b505050565b60075481565b600080610743836113bc565b9050600073ffffffffffffffffffffffffffffffffffffffff168173ffffffffffffffffffffffffffffffffffffffff16036107b4576040517f08c379a00000000000000000000000000000000000000000000000000000000081526004016107ab906125fe565b60405180910390fd5b80915050919050565b813373ffffffffffffffffffffffffffffffffffffffff166107de82610737565b73ffffffffffffffffffffffffffffffffffffffff1614610834576040517f08c379a000000000000000000000000000000000000000000000000000000000815260040161082b9061266a565b60405180910390fd5b60008211610877576040517f08c379a000000000000000000000000000000000000000000000000000000000815260040161086e906126d6565b60405180910390fd5b816008600085815260200190815260200160002081905550505050565b60008073ffffffffffffffffffffffffffffffffffffffff168273ffffffffffffffffffffffffffffffffffffffff1603610904576040517f08c379a00000000000000000000000000000000000000000000000000000000081526004016108fb90612768565b60405180910390fd5b600360008373ffffffffffffffffffffffffffffffffffffffff1673ffffffffffffffffffffffffffffffffffffffff168152602001908152602001600020549050919050565b60606001805461095a906123cb565b80601f0160208091040260200160405190810160405280929190818152602001828054610986906123cb565b80156109d35780601f106109a8576101008083540402835291602001916109d3565b820191906000526020600020905b8154815290600101906020018083116109b657829003601f168201915b5050505050905090565b600033905060008173ffffffffffffffffffffffffffffffffffffffff1663893d20e86040518163ffffffff1660e01b8152600401602060405180830381865afa158015610a2f573d6000803e3d6000fd5b505050506040513d601f19601f82011682018060405250810190610a53919061279d565b9050600660009054906101000a900473ffffffffffffffffffffffffffffffffffffffff1673ffffffffffffffffffffffffffffffffffffffff16636f77926b826040518263ffffffff1660e01b8152600401610ab09190611f5f565b600060405180830381865afa158015610acd573d6000803e3d6000fd5b505050506040513d6000823e3d601f19601f82011682018060405250810190610af691906129ed565b6000015173ffffffffffffffffffffffffffffffffffffffff163373ffffffffffffffffffffffffffffffffffffffff1614610b67576040517f08c379a0000000000000000000000000000000000000000000000000000000008152600401610b5e90612a82565b60405180910390fd5b610b73816007546113f9565b82600960006007548152602001908152602001600020600101819055503360096000600754815260200190815260200160002060000160006101000a81548173ffffffffffffffffffffffffffffffffffffffff021916908373ffffffffffffffffffffffffffffffffffffffff160217905550600160076000828254610bfa9190612ad1565b92505081905550505050565b610c18610c11610f6d565b8383611616565b5050565b610c2d610c27610f6d565b8361102e565b610c6c576040517f08c379a0000000000000000000000000000000000000000000000000000000008152600401610c6390612592565b60405180910390fd5b610c7884848484611782565b50505050565b610c86611d0a565b600960008381526020019081526020016000206040518060400160405290816000820160009054906101000a900473ffffffffffffffffffffffffffffffffffffffff1673ffffffffffffffffffffffffffffffffffffffff1673ffffffffffffffffffffffffffffffffffffffff1681526020016001820154815250509050919050565b6060610d1682610f22565b6000610d206117de565b90506000815111610d405760405180602001604052806000815250610d6b565b80610d4a846117f5565b604051602001610d5b929190612b41565b6040516020818303038152906040525b915050919050565b600060086000838152602001908152602001600020549050919050565b6000600560008473ffffffffffffffffffffffffffffffffffffffff1673ffffffffffffffffffffffffffffffffffffffff16815260200190815260200160002060008373ffffffffffffffffffffffffffffffffffffffff1673ffffffffffffffffffffffffffffffffffffffff16815260200190815260200160002060009054906101000a900460ff16905092915050565b803373ffffffffffffffffffffffffffffffffffffffff16610e4582610737565b73ffffffffffffffffffffffffffffffffffffffff1614610e9b576040517f08c379a0000000000000000000000000000000000000000000000000000000008152600401610e929061266a565b60405180910390fd5b600060086000848152602001908152602001600020819055505050565b60007f01ffc9a7000000000000000000000000000000000000000000000000000000007bffffffffffffffffffffffffffffffffffffffffffffffffffffffff1916827bffffffffffffffffffffffffffffffffffffffffffffffffffffffff1916149050919050565b610f2b816118c3565b610f6a576040517f08c379a0000000000000000000000000000000000000000000000000000000008152600401610f61906125fe565b60405180910390fd5b50565b600033905090565b816004600083815260200190815260200160002060006101000a81548173ffffffffffffffffffffffffffffffffffffffff021916908373ffffffffffffffffffffffffffffffffffffffff160217905550808273ffffffffffffffffffffffffffffffffffffffff16610fe883610737565b73ffffffffffffffffffffffffffffffffffffffff167f8c5be1e5ebec7d5bd14f71427d1e84f3dd0314c0f7b2291e5b200ac8c7c3b92560405160405180910390a45050565b60008061103a83610737565b90508073ffffffffffffffffffffffffffffffffffffffff168473ffffffffffffffffffffffffffffffffffffffff16148061107c575061107b8185610d90565b5b806110ba57508373ffffffffffffffffffffffffffffffffffffffff166110a284610554565b73ffffffffffffffffffffffffffffffffffffffff16145b91505092915050565b8273ffffffffffffffffffffffffffffffffffffffff166110e382610737565b73ffffffffffffffffffffffffffffffffffffffff1614611139576040517f08c379a000000000000000000000000000000000000000000000000000000000815260040161113090612bd7565b60405180910390fd5b600073ffffffffffffffffffffffffffffffffffffffff168273ffffffffffffffffffffffffffffffffffffffff16036111a8576040517f08c379a000000000000000000000000000000000000000000000000000000000815260040161119f90612c69565b60405180910390fd5b6111b58383836001611904565b8273ffffffffffffffffffffffffffffffffffffffff166111d582610737565b73ffffffffffffffffffffffffffffffffffffffff161461122b576040517f08c379a000000000000000000000000000000000000000000000000000000000815260040161122290612bd7565b60405180910390fd5b6004600082815260200190815260200160002060006101000a81549073ffffffffffffffffffffffffffffffffffffffff02191690556001600360008573ffffffffffffffffffffffffffffffffffffffff1673ffffffffffffffffffffffffffffffffffffffff168152602001908152602001600020600082825403925050819055506001600360008473ffffffffffffffffffffffffffffffffffffffff1673ffffffffffffffffffffffffffffffffffffffff16815260200190815260200160002060008282540192505081905550816002600083815260200190815260200160002060006101000a81548173ffffffffffffffffffffffffffffffffffffffff021916908373ffffffffffffffffffffffffffffffffffffffff160217905550808273ffffffffffffffffffffffffffffffffffffffff168473ffffffffffffffffffffffffffffffffffffffff167fddf252ad1be2c89b69c2b068fc378daa952ba7f163c4a11628f55a4df523b3ef60405160405180910390a46113b783838360016119ee565b505050565b60006002600083815260200190815260200160002060009054906101000a900473ffffffffffffffffffffffffffffffffffffffff169050919050565b600073ffffffffffffffffffffffffffffffffffffffff168273ffffffffffffffffffffffffffffffffffffffff1603611468576040517f08c379a000000000000000000000000000000000000000000000000000000000815260040161145f90612cd5565b60405180910390fd5b611471816118c3565b156114b1576040517f08c379a00000000000000000000000000000000000000000000000000000000081526004016114a890612d41565b60405180910390fd5b6114bf600083836001611904565b6114c8816118c3565b15611508576040517f08c379a00000000000000000000000000000000000000000000000000000000081526004016114ff90612d41565b60405180910390fd5b6001600360008473ffffffffffffffffffffffffffffffffffffffff1673ffffffffffffffffffffffffffffffffffffffff16815260200190815260200160002060008282540192505081905550816002600083815260200190815260200160002060006101000a81548173ffffffffffffffffffffffffffffffffffffffff021916908373ffffffffffffffffffffffffffffffffffffffff160217905550808273ffffffffffffffffffffffffffffffffffffffff16600073ffffffffffffffffffffffffffffffffffffffff167fddf252ad1be2c89b69c2b068fc378daa952ba7f163c4a11628f55a4df523b3ef60405160405180910390a46116126000838360016119ee565b5050565b8173ffffffffffffffffffffffffffffffffffffffff168373ffffffffffffffffffffffffffffffffffffffff1603611684576040517f08c379a000000000000000000000000000000000000000000000000000000000815260040161167b90612dad565b60405180910390fd5b80600560008573ffffffffffffffffffffffffffffffffffffffff1673ffffffffffffffffffffffffffffffffffffffff16815260200190815260200160002060008473ffffffffffffffffffffffffffffffffffffffff1673ffffffffffffffffffffffffffffffffffffffff16815260200190815260200160002060006101000a81548160ff0219169083151502179055508173ffffffffffffffffffffffffffffffffffffffff168373ffffffffffffffffffffffffffffffffffffffff167f17307eab39ab6107e8899845ad3d59bd9653f200f220920489ca2b5937696c31836040516117759190611dee565b60405180910390a3505050565b61178d8484846110c3565b61179984848484611a0d565b6117d8576040517f08c379a00000000000000000000000000000000000000000000000000000000081526004016117cf90612e3f565b60405180910390fd5b50505050565b606060405180602001604052806000815250905090565b60606000600161180484611b94565b01905060008167ffffffffffffffff81111561182357611822612146565b5b6040519080825280601f01601f1916602001820160405280156118555781602001600182028036833780820191505090505b509050600082602001820190505b6001156118b8578080600190039150507f3031323334353637383961626364656600000000000000000000000000000000600a86061a8153600a85816118ac576118ab612e5f565b5b04945060008503611863575b819350505050919050565b60008073ffffffffffffffffffffffffffffffffffffffff166118e5836113bc565b73ffffffffffffffffffffffffffffffffffffffff1614159050919050565b600660009054906101000a900473ffffffffffffffffffffffffffffffffffffffff1673ffffffffffffffffffffffffffffffffffffffff16636f77926b846040518263ffffffff1660e01b815260040161195f9190611f5f565b600060405180830381865afa15801561197c573d6000803e3d6000fd5b505050506040513d6000823e3d601f19601f820116820180604052508101906119a591906129ed565b608001516119e8576040517f08c379a00000000000000000000000000000000000000000000000000000000081526004016119df90612f00565b60405180910390fd5b50505050565b6000600860008481526020019081526020016000208190555050505050565b6000611a2e8473ffffffffffffffffffffffffffffffffffffffff16611ce7565b15611b87578373ffffffffffffffffffffffffffffffffffffffff1663150b7a02611a57610f6d565b8786866040518563ffffffff1660e01b8152600401611a799493929190612f75565b6020604051808303816000875af1925050508015611ab557506040513d601f19601f82011682018060405250810190611ab29190612fd6565b60015b611b37573d8060008114611ae5576040519150601f19603f3d011682016040523d82523d6000602084013e611aea565b606091505b506000815103611b2f576040517f08c379a0000000000000000000000000000000000000000000000000000000008152600401611b2690612e3f565b60405180910390fd5b805181602001fd5b63150b7a0260e01b7bffffffffffffffffffffffffffffffffffffffffffffffffffffffff1916817bffffffffffffffffffffffffffffffffffffffffffffffffffffffff191614915050611b8c565b600190505b949350505050565b600080600090507a184f03e93ff9f4daa797ed6e38ed64bf6a1f0100000000000000008310611bf2577a184f03e93ff9f4daa797ed6e38ed64bf6a1f0100000000000000008381611be857611be7612e5f565b5b0492506040810190505b6d04ee2d6d415b85acef81000000008310611c2f576d04ee2d6d415b85acef81000000008381611c2557611c24612e5f565b5b0492506020810190505b662386f26fc100008310611c5e57662386f26fc100008381611c5457611c53612e5f565b5b0492506010810190505b6305f5e1008310611c87576305f5e1008381611c7d57611c7c612e5f565b5b0492506008810190505b6127108310611cac576127108381611ca257611ca1612e5f565b5b0492506004810190505b60648310611ccf5760648381611cc557611cc4612e5f565b5b0492506002810190505b600a8310611cde576001810190505b80915050919050565b6000808273ffffffffffffffffffffffffffffffffffffffff163b119050919050565b6040518060400160405280600073ffffffffffffffffffffffffffffffffffffffff168152602001600081525090565b6000604051905090565b600080fd5b600080fd5b60007fffffffff0000000000000000000000000000000000000000000000000000000082169050919050565b611d8381611d4e565b8114611d8e57600080fd5b50565b600081359050611da081611d7a565b92915050565b600060208284031215611dbc57611dbb611d44565b5b6000611dca84828501611d91565b91505092915050565b60008115159050919050565b611de881611dd3565b82525050565b6000602082019050611e036000830184611ddf565b92915050565b600081519050919050565b600082825260208201905092915050565b60005b83811015611e43578082015181840152602081019050611e28565b60008484015250505050565b6000601f19601f8301169050919050565b6000611e6b82611e09565b611e758185611e14565b9350611e85818560208601611e25565b611e8e81611e4f565b840191505092915050565b60006020820190508181036000830152611eb38184611e60565b905092915050565b6000819050919050565b611ece81611ebb565b8114611ed957600080fd5b50565b600081359050611eeb81611ec5565b92915050565b600060208284031215611f0757611f06611d44565b5b6000611f1584828501611edc565b91505092915050565b600073ffffffffffffffffffffffffffffffffffffffff82169050919050565b6000611f4982611f1e565b9050919050565b611f5981611f3e565b82525050565b6000602082019050611f746000830184611f50565b92915050565b611f8381611f3e565b8114611f8e57600080fd5b50565b600081359050611fa081611f7a565b92915050565b60008060408385031215611fbd57611fbc611d44565b5b6000611fcb85828601611f91565b9250506020611fdc85828601611edc565b9150509250929050565b600080600060608486031215611fff57611ffe611d44565b5b600061200d86828701611f91565b935050602061201e86828701611f91565b925050604061202f86828701611edc565b9150509250925092565b61204281611ebb565b82525050565b600060208201905061205d6000830184612039565b92915050565b6000806040838503121561207a57612079611d44565b5b600061208885828601611edc565b925050602061209985828601611edc565b9150509250929050565b6000602082840312156120b9576120b8611d44565b5b60006120c784828501611f91565b91505092915050565b6120d981611dd3565b81146120e457600080fd5b50565b6000813590506120f6816120d0565b92915050565b6000806040838503121561211357612112611d44565b5b600061212185828601611f91565b9250506020612132858286016120e7565b9150509250929050565b600080fd5b600080fd5b7f4e487b7100000000000000000000000000000000000000000000000000000000600052604160045260246000fd5b61217e82611e4f565b810181811067ffffffffffffffff8211171561219d5761219c612146565b5b80604052505050565b60006121b0611d3a565b90506121bc8282612175565b919050565b600067ffffffffffffffff8211156121dc576121db612146565b5b6121e582611e4f565b9050602081019050919050565b82818337600083830152505050565b600061221461220f846121c1565b6121a6565b9050828152602081018484840111156122305761222f612141565b5b61223b8482856121f2565b509392505050565b600082601f8301126122585761225761213c565b5b8135612268848260208601612201565b91505092915050565b6000806000806080858703121561228b5761228a611d44565b5b600061229987828801611f91565b94505060206122aa87828801611f91565b93505060406122bb87828801611edc565b925050606085013567ffffffffffffffff8111156122dc576122db611d49565b5b6122e887828801612243565b91505092959194509250565b6122fd81611f3e565b82525050565b61230c81611ebb565b82525050565b60408201600082015161232860008501826122f4565b50602082015161233b6020850182612303565b50505050565b60006040820190506123566000830184612312565b92915050565b6000806040838503121561237357612372611d44565b5b600061238185828601611f91565b925050602061239285828601611f91565b9150509250929050565b7f4e487b7100000000000000000000000000000000000000000000000000000000600052602260045260246000fd5b600060028204905060018216806123e357607f821691505b6020821081036123f6576123f561239c565b5b50919050565b7f4552433732313a20617070726f76616c20746f2063757272656e74206f776e6560008201527f7200000000000000000000000000000000000000000000000000000000000000602082015250565b6000612458602183611e14565b9150612463826123fc565b604082019050919050565b600060208201905081810360008301526124878161244b565b9050919050565b7f4552433732313a20617070726f76652063616c6c6572206973206e6f7420746f60008201527f6b656e206f776e6572206f7220617070726f76656420666f7220616c6c000000602082015250565b60006124ea603d83611e14565b91506124f58261248e565b604082019050919050565b60006020820190508181036000830152612519816124dd565b9050919050565b7f4552433732313a2063616c6c6572206973206e6f7420746f6b656e206f776e6560008201527f72206f7220617070726f76656400000000000000000000000000000000000000602082015250565b600061257c602d83611e14565b915061258782612520565b604082019050919050565b600060208201905081810360008301526125ab8161256f565b9050919050565b7f4552433732313a20696e76616c696420746f6b656e2049440000000000000000600082015250565b60006125e8601883611e14565b91506125f3826125b2565b602082019050919050565b60006020820190508181036000830152612617816125db565b9050919050565b7f43616c6c6572206973206e6f7420746f6b656e206f776e657200000000000000600082015250565b6000612654601983611e14565b915061265f8261261e565b602082019050919050565b6000602082019050818103600083015261268381612647565b9050919050565b7f5072696365206d7573742062652067726561746572207468616e203000000000600082015250565b60006126c0601c83611e14565b91506126cb8261268a565b602082019050919050565b600060208201905081810360008301526126ef816126b3565b9050919050565b7f4552433732313a2061646472657373207a65726f206973206e6f74206120766160008201527f6c6964206f776e65720000000000000000000000000000000000000000000000602082015250565b6000612752602983611e14565b915061275d826126f6565b604082019050919050565b6000602082019050818103600083015261278181612745565b9050919050565b60008151905061279781611f7a565b92915050565b6000602082840312156127b3576127b2611d44565b5b60006127c184828501612788565b91505092915050565b600080fd5b600080fd5b60006127df82611f3e565b9050919050565b6127ef816127d4565b81146127fa57600080fd5b50565b60008151905061280c816127e6565b92915050565b600067ffffffffffffffff82111561282d5761282c612146565b5b61283682611e4f565b9050602081019050919050565b600061285661285184612812565b6121a6565b90508281526020810184848401111561287257612871612141565b5b61287d848285611e25565b509392505050565b600082601f83011261289a5761289961213c565b5b81516128aa848260208601612843565b91505092915050565b600281106128c057600080fd5b50565b6000815190506128d2816128b3565b92915050565b60007fffffffffffffffffffffffffffff00000000000000000000000000000000000082169050919050565b61290d816128d8565b811461291857600080fd5b50565b60008151905061292a81612904565b92915050565b60008151905061293f816120d0565b92915050565b600060a0828403121561295b5761295a6127ca565b5b61296560a06121a6565b90506000612975848285016127fd565b600083015250602082015167ffffffffffffffff811115612999576129986127cf565b5b6129a584828501612885565b60208301525060406129b9848285016128c3565b60408301525060606129cd8482850161291b565b60608301525060806129e184828501612930565b60808301525092915050565b600060208284031215612a0357612a02611d44565b5b600082015167ffffffffffffffff811115612a2157612a20611d49565b5b612a2d84828501612945565b91505092915050565b7f43616c6c6572206973206e6f7420616c6c6f77656420746f206d696e74000000600082015250565b6000612a6c601d83611e14565b9150612a7782612a36565b602082019050919050565b60006020820190508181036000830152612a9b81612a5f565b9050919050565b7f4e487b7100000000000000000000000000000000000000000000000000000000600052601160045260246000fd5b6000612adc82611ebb565b9150612ae783611ebb565b9250828201905080821115612aff57612afe612aa2565b5b92915050565b600081905092915050565b6000612b1b82611e09565b612b258185612b05565b9350612b35818560208601611e25565b80840191505092915050565b6000612b4d8285612b10565b9150612b598284612b10565b91508190509392505050565b7f4552433732313a207472616e736665722066726f6d20696e636f72726563742060008201527f6f776e6572000000000000000000000000000000000000000000000000000000602082015250565b6000612bc1602583611e14565b9150612bcc82612b65565b604082019050919050565b60006020820190508181036000830152612bf081612bb4565b9050919050565b7f4552433732313a207472616e7366657220746f20746865207a65726f2061646460008201527f7265737300000000000000000000000000000000000000000000000000000000602082015250565b6000612c53602483611e14565b9150612c5e82612bf7565b604082019050919050565b60006020820190508181036000830152612c8281612c46565b9050919050565b7f4552433732313a206d696e7420746f20746865207a65726f2061646472657373600082015250565b6000612cbf602083611e14565b9150612cca82612c89565b602082019050919050565b60006020820190508181036000830152612cee81612cb2565b9050919050565b7f4552433732313a20746f6b656e20616c7265616479206d696e74656400000000600082015250565b6000612d2b601c83611e14565b9150612d3682612cf5565b602082019050919050565b60006020820190508181036000830152612d5a81612d1e565b9050919050565b7f4552433732313a20617070726f766520746f2063616c6c657200000000000000600082015250565b6000612d97601983611e14565b9150612da282612d61565b602082019050919050565b60006020820190508181036000830152612dc681612d8a565b9050919050565b7f4552433732313a207472616e7366657220746f206e6f6e20455243373231526560008201527f63656976657220696d706c656d656e7465720000000000000000000000000000602082015250565b6000612e29603283611e14565b9150612e3482612dcd565b604082019050919050565b60006020820190508181036000830152612e5881612e1c565b9050919050565b7f4e487b7100000000000000000000000000000000000000000000000000000000600052601260045260246000fd5b7f5265636569766572206d7573742062652061205368757474657270726f6f662060008201527f7573657200000000000000000000000000000000000000000000000000000000602082015250565b6000612eea602483611e14565b9150612ef582612e8e565b604082019050919050565b60006020820190508181036000830152612f1981612edd565b9050919050565b600081519050919050565b600082825260208201905092915050565b6000612f4782612f20565b612f518185612f2b565b9350612f61818560208601611e25565b612f6a81611e4f565b840191505092915050565b6000608082019050612f8a6000830187611f50565b612f976020830186611f50565b612fa46040830185612039565b8181036060830152612fb68184612f3c565b905095945050505050565b600081519050612fd081611d7a565b92915050565b600060208284031215612fec57612feb611d44565b5b6000612ffa84828501612fc1565b9150509291505056fea26469706673582212209986fe2dc57b95561a24cacae5146855494bf2b0aa97b50afe9ecb97f88c579464736f6c63430008120033",
  "immutableReferences": {},
  "source": "// SPDX-License-Identifier: MIT\n\npragma solidity 0.8.18;\n\nimport \"./PaternitySBT.sol\";\nimport \"./ExclusiveRightsNFT.sol\";\nimport \"../node_modules/@openzeppelin/contracts/utils/Address.sol\";\nimport \"../node_modules/@openzeppelin/contracts/security/ReentrancyGuard.sol\";\n\n/// @title ShutterProof \n/// @notice ShutterProof helps photographers and photo user to manage authencity and rights\n/// @dev main contract\n/// @author asaintvanne\ncontract ShutterProof is ReentrancyGuard {\n\n    enum UserRole {\n        Photographer,\n        Client\n    }\n\n    struct User {\n        PaternitySBT sbt;\n        string name;\n        UserRole role;\n        bytes14 siret;\n        bool registered;\n    }\n\n    /// @notice ShutterProof users informations\n    mapping(address => User) users;\n\n    /// @notice Contract that manage photo exclusive rights\n    ExclusiveRightsNFT exclusiveRightsNFT;\n\n    /// @notice UserRegistered event is emitted when a user is registered\n    /// @param userAdress New user address\n    /// @param role User role\n    event UserRegistered(address userAdress, UserRole role);\n\n    /// @dev Deploy exclusiveRightsNFT\n    constructor() {\n        exclusiveRightsNFT = new ExclusiveRightsNFT(this);\n    }\n\n    /// @notice Register sender to be a app user\n    /// @param _name User name\n    /// @param _siret User SIRET\n    /// @param _role User role\n    function register(string calldata _name, bytes14 _siret, UserRole _role) external\n    {\n        User memory user = users[msg.sender];\n\n        require(!user.registered, 'User is already registered');\n        require(keccak256(bytes(_name)) != keccak256(bytes(\"\")), \"Name cannot be empty\");\n        for(uint i = 0; i < 14; i++) {\n            require(_siret[i] >= '0' && _siret[i] <= '9', \"SIRET is not well formed\");\n        }\n\n        users[msg.sender].name = _name;\n        users[msg.sender].siret = _siret;\n        users[msg.sender].role = _role;\n        users[msg.sender].registered = true;\n\n        //SBT contract is only created if user is a photographer\n        if (_role == UserRole.Photographer) {\n            users[msg.sender].sbt = new PaternitySBT(msg.sender, exclusiveRightsNFT);\n        }\n\n        emit UserRegistered(msg.sender, _role);\n    }\n\n    /// @notice Get user informations\n    /// @param _address User address\n    function getUser(address _address) view external returns (User memory)\n    {\n        return users[_address];\n    }\n\n    /// @notice Get user informations\n    /// @param _address User address\n    function getPaternitySBT(address _address) view external returns(PaternitySBT)\n    {\n        require(address(users[_address].sbt) != address(0), \"User has no PaternitySBT contract\");\n\n        return users[_address].sbt;\n    }\n\n    /// @notice Buy a NFT that represents exclusive rights\n    /// @dev Protected from reentrance attack\n    /// @param tokenId NFT id (in exclusiveRightsNFT contract)\n    function buyExclusiveRights(uint256 tokenId) nonReentrant payable external\n    {\n        require(users[msg.sender].registered, \"Caller is not registered\");\n\n        uint price = exclusiveRightsNFT.getPrice(tokenId);\n        require(price > 0, \"Photography is not for sale\");\n\n        address seller = exclusiveRightsNFT.ownerOf(tokenId);\n        require(seller != msg.sender, \"Buyer cannot buy his own NFT\");\n\n        require(msg.value >= price, \"Insufficient payment\");\n\n        exclusiveRightsNFT.safeTransferFrom(seller, msg.sender, tokenId);\n\n        (bool success1, ) = seller.call{value: price}(\"\");\n        require(success1, \"Transfer to seller failed\");\n\n        uint256 refund = msg.value - price;\n        if (refund > 0) {\n            (bool success2, ) = msg.sender.call{value: refund}(\"\");\n            require(success2, \"Refund to buyer failed\");\n        }\n    }\n\n    /// @notice Get the contract that manage exclusive rights\n    function getExclusiveRightsNFT() view external returns(ExclusiveRightsNFT)\n    {\n        return exclusiveRightsNFT;\n    }\n}\n",
  "sourcePath": "/Users/a.saintvanne/Desktop/BC/shutter-proof/truffle/contracts/ShutterProof.sol",
  "compiler": {
    "name": "solc",
    "version": "0.8.18+commit.87f61d96.Emscripten.clang"
  },
  "schemaVersion": "3.4.12",
  "updatedAt": "2023-04-08T09:58:56.848Z",
  "networkType": "ethereum",
  "devdoc": {
    "author": "asaintvanne",
    "details": "main contract",
    "events": {
      "UserRegistered(address,uint8)": {
        "params": {
          "role": "User role",
          "userAdress": "New user address"
        }
      }
    },
    "kind": "dev",
    "methods": {
      "buyExclusiveRights(uint256)": {
        "details": "Protected from reentrance attack",
        "params": {
          "tokenId": "NFT id (in exclusiveRightsNFT contract)"
        }
      },
      "constructor": {
        "details": "Deploy exclusiveRightsNFT"
      },
      "getPaternitySBT(address)": {
        "params": {
          "_address": "User address"
        }
      },
      "getUser(address)": {
        "params": {
          "_address": "User address"
        }
      },
      "register(string,bytes14,uint8)": {
        "params": {
          "_name": "User name",
          "_role": "User role",
          "_siret": "User SIRET"
        }
      }
    },
    "title": "ShutterProof ",
    "version": 1
  },
  "userdoc": {
    "events": {
      "UserRegistered(address,uint8)": {
        "notice": "UserRegistered event is emitted when a user is registered"
      }
    },
    "kind": "user",
    "methods": {
      "buyExclusiveRights(uint256)": {
        "notice": "Buy a NFT that represents exclusive rights"
      },
      "getExclusiveRightsNFT()": {
        "notice": "Get the contract that manage exclusive rights"
      },
      "getPaternitySBT(address)": {
        "notice": "Get user informations"
      },
      "getUser(address)": {
        "notice": "Get user informations"
      },
      "register(string,bytes14,uint8)": {
        "notice": "Register sender to be a app user"
      }
    },
    "notice": "ShutterProof helps photographers and photo user to manage authencity and rights",
    "version": 1
  }
}