{
  "contractName": "PaternitySBT",
  "abi": [
    {
      "inputs": [
        {
          "internalType": "address",
          "name": "_owner",
          "type": "address"
        },
        {
          "internalType": "contract ExclusiveRightsNFT",
          "name": "_exclusiveRightsNFT",
          "type": "address"
        }
      ],
      "stateMutability": "nonpayable",
      "type": "constructor"
    },
    {
      "anonymous": false,
      "inputs": [
        {
          "indexed": false,
          "internalType": "uint256",
          "name": "tokenId",
          "type": "uint256"
        }
      ],
      "name": "Mint",
      "type": "event"
    },
    {
      "inputs": [],
      "name": "balance",
      "outputs": [
        {
          "internalType": "uint256",
          "name": "",
          "type": "uint256"
        }
      ],
      "stateMutability": "view",
      "type": "function"
    },
    {
      "inputs": [],
      "name": "owner",
      "outputs": [
        {
          "internalType": "address",
          "name": "",
          "type": "address"
        }
      ],
      "stateMutability": "view",
      "type": "function"
    },
    {
      "inputs": [
        {
          "internalType": "string",
          "name": "_urlHash",
          "type": "string"
        }
      ],
      "name": "mint",
      "outputs": [
        {
          "internalType": "uint256",
          "name": "",
          "type": "uint256"
        }
      ],
      "stateMutability": "nonpayable",
      "type": "function"
    },
    {
      "inputs": [],
      "name": "getOwner",
      "outputs": [
        {
          "internalType": "address",
          "name": "",
          "type": "address"
        }
      ],
      "stateMutability": "view",
      "type": "function"
    },
    {
      "inputs": [
        {
          "internalType": "uint256",
          "name": "_tokenId",
          "type": "uint256"
        }
      ],
      "name": "getToken",
      "outputs": [
        {
          "internalType": "string",
          "name": "",
          "type": "string"
        }
      ],
      "stateMutability": "view",
      "type": "function"
    }
  ],
  "bytecode": "0x60806040523480156200001157600080fd5b5060405162000c9b38038062000c9b83398181016040528101906200003791906200016f565b81600160006101000a81548173ffffffffffffffffffffffffffffffffffffffff021916908373ffffffffffffffffffffffffffffffffffffffff160217905550806000806101000a81548173ffffffffffffffffffffffffffffffffffffffff021916908373ffffffffffffffffffffffffffffffffffffffff1602179055505050620001b6565b600080fd5b600073ffffffffffffffffffffffffffffffffffffffff82169050919050565b6000620000f282620000c5565b9050919050565b6200010481620000e5565b81146200011057600080fd5b50565b6000815190506200012481620000f9565b92915050565b60006200013782620000e5565b9050919050565b62000149816200012a565b81146200015557600080fd5b50565b60008151905062000169816200013e565b92915050565b60008060408385031215620001895762000188620000c0565b5b6000620001998582860162000113565b9250506020620001ac8582860162000158565b9150509250929050565b610ad580620001c66000396000f3fe608060405234801561001057600080fd5b50600436106100575760003560e01c8063893d20e81461005c5780638da5cb5b1461007a578063b69ef8a814610098578063d85d3d27146100b6578063e4b50cb8146100e6575b600080fd5b610064610116565b6040516100719190610438565b60405180910390f35b610082610140565b60405161008f9190610438565b60405180910390f35b6100a0610166565b6040516100ad919061046c565b60405180910390f35b6100d060048036038101906100cb91906104f6565b61016c565b6040516100dd919061046c565b60405180910390f35b61010060048036038101906100fb919061056f565b61030e565b60405161010d919061062c565b60405180910390f35b6000600160009054906101000a900473ffffffffffffffffffffffffffffffffffffffff16905090565b600160009054906101000a900473ffffffffffffffffffffffffffffffffffffffff1681565b60025481565b60003373ffffffffffffffffffffffffffffffffffffffff16600160009054906101000a900473ffffffffffffffffffffffffffffffffffffffff1673ffffffffffffffffffffffffffffffffffffffff16146101fe576040517f08c379a00000000000000000000000000000000000000000000000000000000081526004016101f59061069a565b60405180910390fd5b600060025490508383600360008481526020019081526020016000209182610227929190610900565b5060008054906101000a900473ffffffffffffffffffffffffffffffffffffffff1673ffffffffffffffffffffffffffffffffffffffff1663a0712d68826040518263ffffffff1660e01b8152600401610281919061046c565b600060405180830381600087803b15801561029b57600080fd5b505af11580156102af573d6000803e3d6000fd5b505050506001600260008282546102c691906109ff565b925050819055507f07883703ed0e86588a40d76551c92f8a4b329e3bf19765e0e6749473c1a84665816040516102fc919061046c565b60405180910390a18091505092915050565b60606002548210610354576040517f08c379a000000000000000000000000000000000000000000000000000000000815260040161034b90610a7f565b60405180910390fd5b60036000838152602001908152602001600020805461037290610723565b80601f016020809104026020016040519081016040528092919081815260200182805461039e90610723565b80156103eb5780601f106103c0576101008083540402835291602001916103eb565b820191906000526020600020905b8154815290600101906020018083116103ce57829003601f168201915b50505050509050919050565b600073ffffffffffffffffffffffffffffffffffffffff82169050919050565b6000610422826103f7565b9050919050565b61043281610417565b82525050565b600060208201905061044d6000830184610429565b92915050565b6000819050919050565b61046681610453565b82525050565b6000602082019050610481600083018461045d565b92915050565b600080fd5b600080fd5b600080fd5b600080fd5b600080fd5b60008083601f8401126104b6576104b5610491565b5b8235905067ffffffffffffffff8111156104d3576104d2610496565b5b6020830191508360018202830111156104ef576104ee61049b565b5b9250929050565b6000806020838503121561050d5761050c610487565b5b600083013567ffffffffffffffff81111561052b5761052a61048c565b5b610537858286016104a0565b92509250509250929050565b61054c81610453565b811461055757600080fd5b50565b60008135905061056981610543565b92915050565b60006020828403121561058557610584610487565b5b60006105938482850161055a565b91505092915050565b600081519050919050565b600082825260208201905092915050565b60005b838110156105d65780820151818401526020810190506105bb565b60008484015250505050565b6000601f19601f8301169050919050565b60006105fe8261059c565b61060881856105a7565b93506106188185602086016105b8565b610621816105e2565b840191505092915050565b6000602082019050818103600083015261064681846105f3565b905092915050565b7f43616c6c6572206973206e6f74206f776e657200000000000000000000000000600082015250565b60006106846013836105a7565b915061068f8261064e565b602082019050919050565b600060208201905081810360008301526106b381610677565b9050919050565b600082905092915050565b7f4e487b7100000000000000000000000000000000000000000000000000000000600052604160045260246000fd5b7f4e487b7100000000000000000000000000000000000000000000000000000000600052602260045260246000fd5b6000600282049050600182168061073b57607f821691505b60208210810361074e5761074d6106f4565b5b50919050565b60008190508160005260206000209050919050565b60006020601f8301049050919050565b600082821b905092915050565b6000600883026107b67fffffffffffffffffffffffffffffffffffffffffffffffffffffffffffffffff82610779565b6107c08683610779565b95508019841693508086168417925050509392505050565b6000819050919050565b60006107fd6107f86107f384610453565b6107d8565b610453565b9050919050565b6000819050919050565b610817836107e2565b61082b61082382610804565b848454610786565b825550505050565b600090565b610840610833565b61084b81848461080e565b505050565b5b8181101561086f57610864600082610838565b600181019050610851565b5050565b601f8211156108b45761088581610754565b61088e84610769565b8101602085101561089d578190505b6108b16108a985610769565b830182610850565b50505b505050565b600082821c905092915050565b60006108d7600019846008026108b9565b1980831691505092915050565b60006108f083836108c6565b9150826002028217905092915050565b61090a83836106ba565b67ffffffffffffffff811115610923576109226106c5565b5b61092d8254610723565b610938828285610873565b6000601f8311600181146109675760008415610955578287013590505b61095f85826108e4565b8655506109c7565b601f19841661097586610754565b60005b8281101561099d57848901358255600182019150602085019450602081019050610978565b868310156109ba57848901356109b6601f8916826108c6565b8355505b6001600288020188555050505b50505050505050565b7f4e487b7100000000000000000000000000000000000000000000000000000000600052601160045260246000fd5b6000610a0a82610453565b9150610a1583610453565b9250828201905080821115610a2d57610a2c6109d0565b5b92915050565b7f546f6b656e20646f65736e277420657869737400000000000000000000000000600082015250565b6000610a696013836105a7565b9150610a7482610a33565b602082019050919050565b60006020820190508181036000830152610a9881610a5c565b905091905056fea2646970667358221220858d8f0cacc85407428966a4e49dc92c9326e41c74483683cd343677b72e8a8c64736f6c63430008120033",
  "immutableReferences": {},
  "source": "// SPDX-License-Identifier: MIT\n\npragma solidity 0.8.18;\n\nimport \"./ShutterProof.sol\";\n\n/// @title PaternitySBT manages SBT that represents paternity rights \n/// @dev Part of ShutterProof\n/// @author asaintvanne\ncontract PaternitySBT {\n\n    /// @notice Contract that manage exclusive rights for this SBT\n    ExclusiveRightsNFT exclusiveRightsNFT;\n    /// @notice Author of photographies represented by SBT\n    address public owner;\n    /// @notice Number of SBT\n    uint256 public balance;\n    /// @notice SBT register\n    mapping(uint => string) tokens;\n\n    /// @notice Mint event is emitted when a SBT is minted\n    /// @param tokenId SBT id\n    event Mint(uint tokenId);\n\n\n    constructor(address _owner, ExclusiveRightsNFT _exclusiveRightsNFT)\n    {\n        owner = _owner;\n        exclusiveRightsNFT = _exclusiveRightsNFT;\n    }\n\n    /// @notice Mint a new paternity rights SBT\n    ///@dev Only author can mint a SBT on contract\n    /// @param _urlHash IPFS URL hash\n    function mint(string calldata _urlHash) external returns(uint256)\n    {\n        require(owner == msg.sender, \"Caller is not owner\");\n\n        uint tokenId = balance;\n        tokens[tokenId] = _urlHash;\n        exclusiveRightsNFT.mint(tokenId);\n\n        balance += 1;\n\n        emit Mint(tokenId);\n\n        return tokenId;\n    }\n\n    /// @notice Get contract owner\n    function getOwner() external view returns (address)\n    {\n        return owner;\n    }\n\n    /// @notice Get token\n    function getToken(uint _tokenId) external view returns(string memory)\n    {\n        require(_tokenId < balance, \"Token doesn't exist\");\n        \n        return tokens[_tokenId];\n    }\n}",
  "sourcePath": "/Users/a.saintvanne/Desktop/BC/shutter-proof/truffle/contracts/PaternitySBT.sol",
  "compiler": {
    "name": "solc",
    "version": "0.8.18+commit.87f61d96.Emscripten.clang"
  },
  "schemaVersion": "3.4.12",
  "updatedAt": "2023-04-08T15:56:11.814Z",
  "devdoc": {
    "author": "asaintvanne",
    "details": "Part of ShutterProof",
    "events": {
      "Mint(uint256)": {
        "params": {
          "tokenId": "SBT id"
        }
      }
    },
    "kind": "dev",
    "methods": {
      "mint(string)": {
        "details": "Only author can mint a SBT on contract",
        "params": {
          "_urlHash": "IPFS URL hash"
        }
      }
    },
    "title": "PaternitySBT manages SBT that represents paternity rights ",
    "version": 1
  },
  "userdoc": {
    "events": {
      "Mint(uint256)": {
        "notice": "Mint event is emitted when a SBT is minted"
      }
    },
    "kind": "user",
    "methods": {
      "balance()": {
        "notice": "Number of SBT"
      },
      "getOwner()": {
        "notice": "Get contract owner"
      },
      "getToken(uint256)": {
        "notice": "Get token"
      },
      "mint(string)": {
        "notice": "Mint a new paternity rights SBT"
      },
      "owner()": {
        "notice": "Author of photographies represented by SBT"
      }
    },
    "version": 1
  }
}