{
  "contractName": "PaternitySBT",
  "abi": [
    {
      "inputs": [
        {
          "internalType": "address",
          "name": "_owner",
          "type": "address"
        }
      ],
      "stateMutability": "nonpayable",
      "type": "constructor"
    },
    {
      "anonymous": false,
      "inputs": [
        {
          "indexed": false,
          "internalType": "uint256",
          "name": "",
          "type": "uint256"
        }
      ],
      "name": "Mint",
      "type": "event"
    },
    {
      "inputs": [],
      "name": "balance",
      "outputs": [
        {
          "internalType": "uint256",
          "name": "",
          "type": "uint256"
        }
      ],
      "stateMutability": "view",
      "type": "function"
    },
    {
      "inputs": [],
      "name": "owner",
      "outputs": [
        {
          "internalType": "address",
          "name": "",
          "type": "address"
        }
      ],
      "stateMutability": "view",
      "type": "function"
    },
    {
      "inputs": [
        {
          "internalType": "string",
          "name": "_urlHash",
          "type": "string"
        }
      ],
      "name": "mint",
      "outputs": [
        {
          "internalType": "uint256",
          "name": "",
          "type": "uint256"
        }
      ],
      "stateMutability": "nonpayable",
      "type": "function"
    },
    {
      "inputs": [
        {
          "internalType": "uint256",
          "name": "_tokenId",
          "type": "uint256"
        }
      ],
      "name": "getToken",
      "outputs": [
        {
          "internalType": "string",
          "name": "",
          "type": "string"
        }
      ],
      "stateMutability": "view",
      "type": "function"
    }
  ],
  "bytecode": "0x608060405234801561001057600080fd5b50604051610b09380380610b09833981810160405281019061003291906100db565b806000806101000a81548173ffffffffffffffffffffffffffffffffffffffff021916908373ffffffffffffffffffffffffffffffffffffffff16021790555050610108565b600080fd5b600073ffffffffffffffffffffffffffffffffffffffff82169050919050565b60006100a88261007d565b9050919050565b6100b88161009d565b81146100c357600080fd5b50565b6000815190506100d5816100af565b92915050565b6000602082840312156100f1576100f0610078565b5b60006100ff848285016100c6565b91505092915050565b6109f2806101176000396000f3fe608060405234801561001057600080fd5b506004361061004c5760003560e01c80638da5cb5b14610051578063b69ef8a81461006f578063d85d3d271461008d578063e4b50cb8146100bd575b600080fd5b6100596100ed565b6040516100669190610355565b60405180910390f35b610077610111565b6040516100849190610389565b60405180910390f35b6100a760048036038101906100a29190610413565b610117565b6040516100b49190610389565b60405180910390f35b6100d760048036038101906100d2919061048c565b61022b565b6040516100e49190610549565b60405180910390f35b60008054906101000a900473ffffffffffffffffffffffffffffffffffffffff1681565b60015481565b60003373ffffffffffffffffffffffffffffffffffffffff1660008054906101000a900473ffffffffffffffffffffffffffffffffffffffff1673ffffffffffffffffffffffffffffffffffffffff16146101a7576040517f08c379a000000000000000000000000000000000000000000000000000000000815260040161019e906105b7565b60405180910390fd5b6000600154905083836002600084815260200190815260200160002091826101d092919061081d565b5060018060008282546101e3919061091c565b925050819055507f07883703ed0e86588a40d76551c92f8a4b329e3bf19765e0e6749473c1a84665816040516102199190610389565b60405180910390a18091505092915050565b60606001548210610271576040517f08c379a00000000000000000000000000000000000000000000000000000000081526004016102689061099c565b60405180910390fd5b60026000838152602001908152602001600020805461028f90610640565b80601f01602080910402602001604051908101604052809291908181526020018280546102bb90610640565b80156103085780601f106102dd57610100808354040283529160200191610308565b820191906000526020600020905b8154815290600101906020018083116102eb57829003601f168201915b50505050509050919050565b600073ffffffffffffffffffffffffffffffffffffffff82169050919050565b600061033f82610314565b9050919050565b61034f81610334565b82525050565b600060208201905061036a6000830184610346565b92915050565b6000819050919050565b61038381610370565b82525050565b600060208201905061039e600083018461037a565b92915050565b600080fd5b600080fd5b600080fd5b600080fd5b600080fd5b60008083601f8401126103d3576103d26103ae565b5b8235905067ffffffffffffffff8111156103f0576103ef6103b3565b5b60208301915083600182028301111561040c5761040b6103b8565b5b9250929050565b6000806020838503121561042a576104296103a4565b5b600083013567ffffffffffffffff811115610448576104476103a9565b5b610454858286016103bd565b92509250509250929050565b61046981610370565b811461047457600080fd5b50565b60008135905061048681610460565b92915050565b6000602082840312156104a2576104a16103a4565b5b60006104b084828501610477565b91505092915050565b600081519050919050565b600082825260208201905092915050565b60005b838110156104f35780820151818401526020810190506104d8565b60008484015250505050565b6000601f19601f8301169050919050565b600061051b826104b9565b61052581856104c4565b93506105358185602086016104d5565b61053e816104ff565b840191505092915050565b600060208201905081810360008301526105638184610510565b905092915050565b7f4e6f7420616c6c6f77656420746f206d696e7400000000000000000000000000600082015250565b60006105a16013836104c4565b91506105ac8261056b565b602082019050919050565b600060208201905081810360008301526105d081610594565b9050919050565b600082905092915050565b7f4e487b7100000000000000000000000000000000000000000000000000000000600052604160045260246000fd5b7f4e487b7100000000000000000000000000000000000000000000000000000000600052602260045260246000fd5b6000600282049050600182168061065857607f821691505b60208210810361066b5761066a610611565b5b50919050565b60008190508160005260206000209050919050565b60006020601f8301049050919050565b600082821b905092915050565b6000600883026106d37fffffffffffffffffffffffffffffffffffffffffffffffffffffffffffffffff82610696565b6106dd8683610696565b95508019841693508086168417925050509392505050565b6000819050919050565b600061071a61071561071084610370565b6106f5565b610370565b9050919050565b6000819050919050565b610734836106ff565b61074861074082610721565b8484546106a3565b825550505050565b600090565b61075d610750565b61076881848461072b565b505050565b5b8181101561078c57610781600082610755565b60018101905061076e565b5050565b601f8211156107d1576107a281610671565b6107ab84610686565b810160208510156107ba578190505b6107ce6107c685610686565b83018261076d565b50505b505050565b600082821c905092915050565b60006107f4600019846008026107d6565b1980831691505092915050565b600061080d83836107e3565b9150826002028217905092915050565b61082783836105d7565b67ffffffffffffffff8111156108405761083f6105e2565b5b61084a8254610640565b610855828285610790565b6000601f8311600181146108845760008415610872578287013590505b61087c8582610801565b8655506108e4565b601f19841661089286610671565b60005b828110156108ba57848901358255600182019150602085019450602081019050610895565b868310156108d757848901356108d3601f8916826107e3565b8355505b6001600288020188555050505b50505050505050565b7f4e487b7100000000000000000000000000000000000000000000000000000000600052601160045260246000fd5b600061092782610370565b915061093283610370565b925082820190508082111561094a576109496108ed565b5b92915050565b7f546f6b656e20646f65736e277420657869737400000000000000000000000000600082015250565b60006109866013836104c4565b915061099182610950565b602082019050919050565b600060208201905081810360008301526109b581610979565b905091905056fea2646970667358221220911c7684a1f17ce9d249a891d92ff009bfce04706bed53e086e5851a9ac7691d64736f6c63430008120033",
  "immutableReferences": {},
  "source": "// SPDX-License-Identifier: MIT\n\npragma solidity 0.8.18;\n\ncontract PaternitySBT {\n\n    address public owner;\n    uint256 public balance;\n    mapping(uint => string) tokens;\n\n    event Mint(uint);\n\n    constructor(address _owner)\n    {\n        owner = _owner;\n    }\n\n    function mint(string calldata _urlHash) external returns(uint256)\n    {\n        require(owner == msg.sender, \"Not allowed to mint\");\n\n        uint tokenId = balance;\n        tokens[tokenId] = _urlHash;\n        balance += 1;\n\n        emit Mint(tokenId);\n\n        return tokenId;\n    }\n\n    function getToken(uint _tokenId) external view returns(string memory)\n    {\n        require(_tokenId < balance, \"Token doesn't exist\");\n        \n        return tokens[_tokenId];\n    }\n}",
  "sourcePath": "/Users/a.saintvanne/Desktop/BC/shutter-proof/truffle/contracts/PaternitySBT.sol",
  "compiler": {
    "name": "solc",
    "version": "0.8.18+commit.87f61d96.Emscripten.clang"
  },
  "schemaVersion": "3.4.12",
  "updatedAt": "2023-04-04T15:34:12.254Z",
  "devdoc": {
    "kind": "dev",
    "methods": {},
    "version": 1
  },
  "userdoc": {
    "kind": "user",
    "methods": {},
    "version": 1
  }
}