{
  "contractName": "PaternitySBT",
  "abi": [
    {
      "inputs": [
        {
          "internalType": "address",
          "name": "_owner",
          "type": "address"
        }
      ],
      "stateMutability": "nonpayable",
      "type": "constructor"
    },
    {
      "inputs": [],
      "name": "balance",
      "outputs": [
        {
          "internalType": "uint256",
          "name": "",
          "type": "uint256"
        }
      ],
      "stateMutability": "view",
      "type": "function"
    },
    {
      "inputs": [],
      "name": "owner",
      "outputs": [
        {
          "internalType": "address",
          "name": "",
          "type": "address"
        }
      ],
      "stateMutability": "view",
      "type": "function"
    },
    {
      "inputs": [
        {
          "internalType": "string",
          "name": "_title",
          "type": "string"
        },
        {
          "internalType": "string",
          "name": "_description",
          "type": "string"
        },
        {
          "internalType": "string",
          "name": "_urlHash",
          "type": "string"
        }
      ],
      "name": "mint",
      "outputs": [
        {
          "internalType": "uint256",
          "name": "",
          "type": "uint256"
        }
      ],
      "stateMutability": "nonpayable",
      "type": "function"
    },
    {
      "inputs": [
        {
          "internalType": "uint256",
          "name": "_tokenId",
          "type": "uint256"
        }
      ],
      "name": "getPhotography",
      "outputs": [
        {
          "components": [
            {
              "internalType": "string",
              "name": "title",
              "type": "string"
            },
            {
              "internalType": "string",
              "name": "description",
              "type": "string"
            },
            {
              "internalType": "string",
              "name": "ipfsHash",
              "type": "string"
            }
          ],
          "internalType": "struct PaternitySBT.Photography",
          "name": "",
          "type": "tuple"
        }
      ],
      "stateMutability": "view",
      "type": "function"
    }
  ],
  "bytecode": "0x608060405234801561001057600080fd5b50604051610e24380380610e24833981810160405281019061003291906100db565b806000806101000a81548173ffffffffffffffffffffffffffffffffffffffff021916908373ffffffffffffffffffffffffffffffffffffffff16021790555050610108565b600080fd5b600073ffffffffffffffffffffffffffffffffffffffff82169050919050565b60006100a88261007d565b9050919050565b6100b88161009d565b81146100c357600080fd5b50565b6000815190506100d5816100af565b92915050565b6000602082840312156100f1576100f0610078565b5b60006100ff848285016100c6565b91505092915050565b610d0d806101176000396000f3fe608060405234801561001057600080fd5b506004361061004c5760003560e01c80638da5cb5b1461005157806395bb7cd51461006f578063b69ef8a81461009f578063d645ddf6146100bd575b600080fd5b6100596100ed565b60405161006691906105a3565b60405180910390f35b610089600480360381019061008491906105fe565b610111565b6040516100969190610719565b60405180910390f35b6100a7610338565b6040516100b4919061074a565b60405180910390f35b6100d760048036038101906100d291906107ca565b61033e565b6040516100e4919061074a565b60405180910390f35b60008054906101000a900473ffffffffffffffffffffffffffffffffffffffff1681565b610119610541565b600154821061015d576040517f08c379a0000000000000000000000000000000000000000000000000000000008152600401610154906108db565b60405180910390fd5b6002600083815260200190815260200160002060405180606001604052908160008201805461018b9061092a565b80601f01602080910402602001604051908101604052809291908181526020018280546101b79061092a565b80156102045780601f106101d957610100808354040283529160200191610204565b820191906000526020600020905b8154815290600101906020018083116101e757829003601f168201915b5050505050815260200160018201805461021d9061092a565b80601f01602080910402602001604051908101604052809291908181526020018280546102499061092a565b80156102965780601f1061026b57610100808354040283529160200191610296565b820191906000526020600020905b81548152906001019060200180831161027957829003601f168201915b505050505081526020016002820180546102af9061092a565b80601f01602080910402602001604051908101604052809291908181526020018280546102db9061092a565b80156103285780601f106102fd57610100808354040283529160200191610328565b820191906000526020600020905b81548152906001019060200180831161030b57829003601f168201915b5050505050815250509050919050565b60015481565b60003373ffffffffffffffffffffffffffffffffffffffff1660008054906101000a900473ffffffffffffffffffffffffffffffffffffffff1673ffffffffffffffffffffffffffffffffffffffff16146103ce576040517f08c379a00000000000000000000000000000000000000000000000000000000081526004016103c5906109a7565b60405180910390fd5b6000604051806060016040528089898080601f016020809104026020016040519081016040528093929190818152602001838380828437600081840152601f19601f82011690508083019250505050505050815260200187878080601f016020809104026020016040519081016040528093929190818152602001838380828437600081840152601f19601f82011690508083019250505050505050815260200185858080601f016020809104026020016040519081016040528093929190818152602001838380828437600081840152601f19601f82011690508083019250505050505050815250905060006001549050816002600083815260200190815260200160002060008201518160000190816104e99190610ba2565b5060208201518160010190816104ff9190610ba2565b5060408201518160020190816105159190610ba2565b50905050600180600082825461052b9190610ca3565b9250508190555080925050509695505050505050565b60405180606001604052806060815260200160608152602001606081525090565b600073ffffffffffffffffffffffffffffffffffffffff82169050919050565b600061058d82610562565b9050919050565b61059d81610582565b82525050565b60006020820190506105b86000830184610594565b92915050565b600080fd5b600080fd5b6000819050919050565b6105db816105c8565b81146105e657600080fd5b50565b6000813590506105f8816105d2565b92915050565b600060208284031215610614576106136105be565b5b6000610622848285016105e9565b91505092915050565b600081519050919050565b600082825260208201905092915050565b60005b8381101561066557808201518184015260208101905061064a565b60008484015250505050565b6000601f19601f8301169050919050565b600061068d8261062b565b6106978185610636565b93506106a7818560208601610647565b6106b081610671565b840191505092915050565b600060608301600083015184820360008601526106d88282610682565b915050602083015184820360208601526106f28282610682565b9150506040830151848203604086015261070c8282610682565b9150508091505092915050565b6000602082019050818103600083015261073381846106bb565b905092915050565b610744816105c8565b82525050565b600060208201905061075f600083018461073b565b92915050565b600080fd5b600080fd5b600080fd5b60008083601f84011261078a57610789610765565b5b8235905067ffffffffffffffff8111156107a7576107a661076a565b5b6020830191508360018202830111156107c3576107c261076f565b5b9250929050565b600080600080600080606087890312156107e7576107e66105be565b5b600087013567ffffffffffffffff811115610805576108046105c3565b5b61081189828a01610774565b9650965050602087013567ffffffffffffffff811115610834576108336105c3565b5b61084089828a01610774565b9450945050604087013567ffffffffffffffff811115610863576108626105c3565b5b61086f89828a01610774565b92509250509295509295509295565b600082825260208201905092915050565b7f546f6b656e20646f65736e277420657869737400000000000000000000000000600082015250565b60006108c560138361087e565b91506108d08261088f565b602082019050919050565b600060208201905081810360008301526108f4816108b8565b9050919050565b7f4e487b7100000000000000000000000000000000000000000000000000000000600052602260045260246000fd5b6000600282049050600182168061094257607f821691505b602082108103610955576109546108fb565b5b50919050565b7f4e6f7420616c6c6f77656420746f206d696e7400000000000000000000000000600082015250565b600061099160138361087e565b915061099c8261095b565b602082019050919050565b600060208201905081810360008301526109c081610984565b9050919050565b7f4e487b7100000000000000000000000000000000000000000000000000000000600052604160045260246000fd5b60008190508160005260206000209050919050565b60006020601f8301049050919050565b600082821b905092915050565b600060088302610a587fffffffffffffffffffffffffffffffffffffffffffffffffffffffffffffffff82610a1b565b610a628683610a1b565b95508019841693508086168417925050509392505050565b6000819050919050565b6000610a9f610a9a610a95846105c8565b610a7a565b6105c8565b9050919050565b6000819050919050565b610ab983610a84565b610acd610ac582610aa6565b848454610a28565b825550505050565b600090565b610ae2610ad5565b610aed818484610ab0565b505050565b5b81811015610b1157610b06600082610ada565b600181019050610af3565b5050565b601f821115610b5657610b27816109f6565b610b3084610a0b565b81016020851015610b3f578190505b610b53610b4b85610a0b565b830182610af2565b50505b505050565b600082821c905092915050565b6000610b7960001984600802610b5b565b1980831691505092915050565b6000610b928383610b68565b9150826002028217905092915050565b610bab8261062b565b67ffffffffffffffff811115610bc457610bc36109c7565b5b610bce825461092a565b610bd9828285610b15565b600060209050601f831160018114610c0c5760008415610bfa578287015190505b610c048582610b86565b865550610c6c565b601f198416610c1a866109f6565b60005b82811015610c4257848901518255600182019150602085019450602081019050610c1d565b86831015610c5f5784890151610c5b601f891682610b68565b8355505b6001600288020188555050505b505050505050565b7f4e487b7100000000000000000000000000000000000000000000000000000000600052601160045260246000fd5b6000610cae826105c8565b9150610cb9836105c8565b9250828201905080821115610cd157610cd0610c74565b5b9291505056fea2646970667358221220375c2dbda364e829502d8ef0471c1a0654dbb0a6a6368253ab083dd51f58984064736f6c63430008120033",
  "immutableReferences": {},
  "source": "// SPDX-License-Identifier: MIT\n\npragma solidity 0.8.18;\n\ncontract PaternitySBT {\n\n    struct Photography {\n        string title;\n        string description;\n        string ipfsHash;\n    }\n\n    address public owner;\n    uint256 public balance;\n    mapping(uint => Photography) tokens;\n\n    constructor(address _owner) {\n        owner = _owner;\n    }\n\n    function mint(string calldata _title, string calldata _description, string calldata _urlHash) external returns(uint256) {\n        require(owner == msg.sender, \"Not allowed to mint\");\n\n        Photography memory photography = Photography(_title, _description, _urlHash);\n\n        uint tokenId = balance;\n        tokens[tokenId] = photography;\n        balance += 1;\n\n        return tokenId;\n    }\n\n    function getPhotography(uint _tokenId) external view returns(Photography memory)\n    {\n        require(_tokenId < balance, \"Token doesn't exist\");\n        \n        return tokens[_tokenId];\n    }\n}",
  "sourcePath": "/Users/a.saintvanne/Desktop/BC/shutter-proof/truffle/contracts/PaternitySBT.sol",
  "compiler": {
    "name": "solc",
    "version": "0.8.18+commit.87f61d96.Emscripten.clang"
  },
  "schemaVersion": "3.4.12",
  "updatedAt": "2023-04-03T15:26:02.187Z",
  "devdoc": {
    "kind": "dev",
    "methods": {},
    "version": 1
  },
  "userdoc": {
    "kind": "user",
    "methods": {},
    "version": 1
  }
}