{
  "contractName": "ShutterProof",
  "abi": [
    {
      "anonymous": false,
      "inputs": [
        {
          "indexed": false,
          "internalType": "address",
          "name": "",
          "type": "address"
        },
        {
          "indexed": false,
          "internalType": "enum ShutterProof.UserRole",
          "name": "",
          "type": "uint8"
        }
      ],
      "name": "UserRegistered",
      "type": "event"
    },
    {
      "inputs": [
        {
          "internalType": "string",
          "name": "_name",
          "type": "string"
        },
        {
          "internalType": "bytes14",
          "name": "_siret",
          "type": "bytes14"
        },
        {
          "internalType": "enum ShutterProof.UserRole",
          "name": "_role",
          "type": "uint8"
        }
      ],
      "name": "register",
      "outputs": [],
      "stateMutability": "nonpayable",
      "type": "function"
    },
    {
      "inputs": [],
      "name": "isRegistered",
      "outputs": [
        {
          "internalType": "bool",
          "name": "",
          "type": "bool"
        }
      ],
      "stateMutability": "view",
      "type": "function",
      "constant": true
    },
    {
      "inputs": [],
      "name": "getRole",
      "outputs": [
        {
          "internalType": "enum ShutterProof.UserRole",
          "name": "",
          "type": "uint8"
        }
      ],
      "stateMutability": "view",
      "type": "function",
      "constant": true
    },
    {
      "inputs": [
        {
          "internalType": "address",
          "name": "_user",
          "type": "address"
        }
      ],
      "name": "getPaternitySBT",
      "outputs": [
        {
          "internalType": "contract PaternitySBT",
          "name": "",
          "type": "address"
        }
      ],
      "stateMutability": "view",
      "type": "function",
      "constant": true
    }
  ],
  "bytecode": "0x608060405234801561001057600080fd5b5061230f806100206000396000f3fe60806040523480156200001157600080fd5b5060043610620000525760003560e01c80632236684414620000575780634afe99ad1462000079578063a6280cd614620000af578063fde0817414620000cf575b600080fd5b62000061620000f1565b60405162000070919062000a16565b60405180910390f35b62000097600480360381019062000091919062000aa2565b62000147565b604051620000a6919062000b3f565b60405180910390f35b620000cd6004803603810190620000c7919062000c4f565b62000284565b005b620000d962000904565b604051620000e8919062000d4f565b60405180910390f35b60008060003373ffffffffffffffffffffffffffffffffffffffff1673ffffffffffffffffffffffffffffffffffffffff168152602001908152602001600020600201600f9054906101000a900460ff16905090565b60008073ffffffffffffffffffffffffffffffffffffffff166000808473ffffffffffffffffffffffffffffffffffffffff1673ffffffffffffffffffffffffffffffffffffffff16815260200190815260200160002060000160009054906101000a900473ffffffffffffffffffffffffffffffffffffffff1673ffffffffffffffffffffffffffffffffffffffff16036200021b576040517f08c379a0000000000000000000000000000000000000000000000000000000008152600401620002129062000dcd565b60405180910390fd5b6000808373ffffffffffffffffffffffffffffffffffffffff1673ffffffffffffffffffffffffffffffffffffffff16815260200190815260200160002060000160009054906101000a900473ffffffffffffffffffffffffffffffffffffffff169050919050565b60008060003373ffffffffffffffffffffffffffffffffffffffff1673ffffffffffffffffffffffffffffffffffffffff1681526020019081526020016000206040518060a00160405290816000820160009054906101000a900473ffffffffffffffffffffffffffffffffffffffff1673ffffffffffffffffffffffffffffffffffffffff1673ffffffffffffffffffffffffffffffffffffffff168152602001600182018054620003379062000e1e565b80601f0160208091040260200160405190810160405280929190818152602001828054620003659062000e1e565b8015620003b65780601f106200038a57610100808354040283529160200191620003b6565b820191906000526020600020905b8154815290600101906020018083116200039857829003601f168201915b505050505081526020016002820160009054906101000a900460ff166001811115620003e757620003e662000ccf565b5b6001811115620003fc57620003fb62000ccf565b5b81526020016002820160019054906101000a900460901b71ffffffffffffffffffffffffffffffffffff191671ffffffffffffffffffffffffffffffffffff1916815260200160028201600f9054906101000a900460ff1615151515815250509050806080015115620004a6576040517f08c379a00000000000000000000000000000000000000000000000000000000081526004016200049d9062000ea3565b60405180910390fd5b60405180602001604052806000815250805190602001208585604051620004cf92919062000f08565b6040518091039020036200051a576040517f08c379a0000000000000000000000000000000000000000000000000000000008152600401620005119062000f73565b60405180910390fd5b6000600e60ff161162000564576040517f08c379a00000000000000000000000000000000000000000000000000000000081526004016200055b9062000fe5565b60405180910390fd5b60005b600e81101562000690577f30000000000000000000000000000000000000000000000000000000000000008482600e8110620005a857620005a762001007565b5b1a60f81b7effffffffffffffffffffffffffffffffffffffffffffffffffffffffffffff1916101580156200063857507f39000000000000000000000000000000000000000000000000000000000000008482600e81106200060f576200060e62001007565b5b1a60f81b7effffffffffffffffffffffffffffffffffffffffffffffffffffffffffffff191611155b6200067a576040517f08c379a0000000000000000000000000000000000000000000000000000000008152600401620006719062001086565b60405180910390fd5b80806200068790620010e1565b91505062000567565b5084846000803373ffffffffffffffffffffffffffffffffffffffff1673ffffffffffffffffffffffffffffffffffffffff1681526020019081526020016000206001019182620006e392919062001330565b50826000803373ffffffffffffffffffffffffffffffffffffffff1673ffffffffffffffffffffffffffffffffffffffff16815260200190815260200160002060020160016101000a8154816dffffffffffffffffffffffffffff021916908360901c0217905550816000803373ffffffffffffffffffffffffffffffffffffffff1673ffffffffffffffffffffffffffffffffffffffff16815260200190815260200160002060020160006101000a81548160ff02191690836001811115620007b257620007b162000ccf565b5b021790555060016000803373ffffffffffffffffffffffffffffffffffffffff1673ffffffffffffffffffffffffffffffffffffffff168152602001908152602001600020600201600f6101000a81548160ff0219169083151502179055506000600181111562000828576200082762000ccf565b5b8260018111156200083e576200083d62000ccf565b5b03620008fd57336040516200085390620009eb565b6200085f919062001426565b604051809103906000f0801580156200087c573d6000803e3d6000fd5b506000803373ffffffffffffffffffffffffffffffffffffffff1673ffffffffffffffffffffffffffffffffffffffff16815260200190815260200160002060000160006101000a81548173ffffffffffffffffffffffffffffffffffffffff021916908373ffffffffffffffffffffffffffffffffffffffff1602179055505b5050505050565b60008060003373ffffffffffffffffffffffffffffffffffffffff1673ffffffffffffffffffffffffffffffffffffffff168152602001908152602001600020600201600f9054906101000a900460ff1662000997576040517f08c379a00000000000000000000000000000000000000000000000000000000081526004016200098e9062001493565b60405180910390fd5b6000803373ffffffffffffffffffffffffffffffffffffffff1673ffffffffffffffffffffffffffffffffffffffff16815260200190815260200160002060020160009054906101000a900460ff16905090565b610e2480620014b683390190565b60008115159050919050565b62000a1081620009f9565b82525050565b600060208201905062000a2d600083018462000a05565b92915050565b600080fd5b600080fd5b600073ffffffffffffffffffffffffffffffffffffffff82169050919050565b600062000a6a8262000a3d565b9050919050565b62000a7c8162000a5d565b811462000a8857600080fd5b50565b60008135905062000a9c8162000a71565b92915050565b60006020828403121562000abb5762000aba62000a33565b5b600062000acb8482850162000a8b565b91505092915050565b6000819050919050565b600062000aff62000af962000af38462000a3d565b62000ad4565b62000a3d565b9050919050565b600062000b138262000ade565b9050919050565b600062000b278262000b06565b9050919050565b62000b398162000b1a565b82525050565b600060208201905062000b56600083018462000b2e565b92915050565b600080fd5b600080fd5b600080fd5b60008083601f84011262000b845762000b8362000b5c565b5b8235905067ffffffffffffffff81111562000ba45762000ba362000b61565b5b60208301915083600182028301111562000bc35762000bc262000b66565b5b9250929050565b60007fffffffffffffffffffffffffffff00000000000000000000000000000000000082169050919050565b62000c018162000bca565b811462000c0d57600080fd5b50565b60008135905062000c218162000bf6565b92915050565b6002811062000c3557600080fd5b50565b60008135905062000c498162000c27565b92915050565b6000806000806060858703121562000c6c5762000c6b62000a33565b5b600085013567ffffffffffffffff81111562000c8d5762000c8c62000a38565b5b62000c9b8782880162000b6b565b9450945050602062000cb08782880162000c10565b925050604062000cc38782880162000c38565b91505092959194509250565b7f4e487b7100000000000000000000000000000000000000000000000000000000600052602160045260246000fd5b6002811062000d125762000d1162000ccf565b5b50565b600081905062000d258262000cfe565b919050565b600062000d378262000d15565b9050919050565b62000d498162000d2a565b82525050565b600060208201905062000d66600083018462000d3e565b92915050565b600082825260208201905092915050565b7f55736520686173206e6f2053425420636f6e7472616374000000000000000000600082015250565b600062000db560178362000d6c565b915062000dc28262000d7d565b602082019050919050565b6000602082019050818103600083015262000de88162000da6565b9050919050565b7f4e487b7100000000000000000000000000000000000000000000000000000000600052602260045260246000fd5b6000600282049050600182168062000e3757607f821691505b60208210810362000e4d5762000e4c62000def565b5b50919050565b7f5573657220697320616c72656164792072656769737465726564000000000000600082015250565b600062000e8b601a8362000d6c565b915062000e988262000e53565b602082019050919050565b6000602082019050818103600083015262000ebe8162000e7c565b9050919050565b600081905092915050565b82818337600083830152505050565b600062000eed838562000ec5565b935062000efc83858462000ed0565b82840190509392505050565b600062000f1782848662000edf565b91508190509392505050565b7f4e616d652063616e6e6f7420626520656d707479000000000000000000000000600082015250565b600062000f5b60148362000d6c565b915062000f688262000f23565b602082019050919050565b6000602082019050818103600083015262000f8e8162000f4c565b9050919050565b7f53495245542063616e6e6f7420626520656d7074790000000000000000000000600082015250565b600062000fcd60158362000d6c565b915062000fda8262000f95565b602082019050919050565b60006020820190508181036000830152620010008162000fbe565b9050919050565b7f4e487b7100000000000000000000000000000000000000000000000000000000600052603260045260246000fd5b7f5349524554206973206e6f742077656c6c20666f726d65640000000000000000600082015250565b60006200106e60188362000d6c565b91506200107b8262001036565b602082019050919050565b60006020820190508181036000830152620010a1816200105f565b9050919050565b7f4e487b7100000000000000000000000000000000000000000000000000000000600052601160045260246000fd5b6000819050919050565b6000620010ee82620010d7565b91507fffffffffffffffffffffffffffffffffffffffffffffffffffffffffffffffff8203620011235762001122620010a8565b5b600182019050919050565b600082905092915050565b7f4e487b7100000000000000000000000000000000000000000000000000000000600052604160045260246000fd5b60008190508160005260206000209050919050565b60006020601f8301049050919050565b600082821b905092915050565b600060088302620011cc7fffffffffffffffffffffffffffffffffffffffffffffffffffffffffffffffff826200118d565b620011d886836200118d565b95508019841693508086168417925050509392505050565b6000620012116200120b6200120584620010d7565b62000ad4565b620010d7565b9050919050565b6000819050919050565b6200122d83620011f0565b620012456200123c8262001218565b8484546200119a565b825550505050565b600090565b6200125c6200124d565b6200126981848462001222565b505050565b5b8181101562001291576200128560008262001252565b6001810190506200126f565b5050565b601f821115620012e057620012aa8162001168565b620012b5846200117d565b81016020851015620012c5578190505b620012dd620012d4856200117d565b8301826200126e565b50505b505050565b600082821c905092915050565b60006200130560001984600802620012e5565b1980831691505092915050565b6000620013208383620012f2565b9150826002028217905092915050565b6200133c83836200112e565b67ffffffffffffffff81111562001358576200135762001139565b5b62001364825462000e1e565b6200137182828562001295565b6000601f831160018114620013a5576000841562001390578287013590505b6200139c858262001312565b8655506200140c565b601f198416620013b58662001168565b60005b82811015620013df57848901358255600182019150602085019450602081019050620013b8565b86831015620013ff5784890135620013fb601f891682620012f2565b8355505b6001600288020188555050505b50505050505050565b620014208162000a5d565b82525050565b60006020820190506200143d600083018462001415565b92915050565b7f55736572206973206e6f74207265676973746572656400000000000000000000600082015250565b60006200147b60168362000d6c565b9150620014888262001443565b602082019050919050565b60006020820190508181036000830152620014ae816200146c565b905091905056fe608060405234801561001057600080fd5b50604051610e24380380610e24833981810160405281019061003291906100db565b806000806101000a81548173ffffffffffffffffffffffffffffffffffffffff021916908373ffffffffffffffffffffffffffffffffffffffff16021790555050610108565b600080fd5b600073ffffffffffffffffffffffffffffffffffffffff82169050919050565b60006100a88261007d565b9050919050565b6100b88161009d565b81146100c357600080fd5b50565b6000815190506100d5816100af565b92915050565b6000602082840312156100f1576100f0610078565b5b60006100ff848285016100c6565b91505092915050565b610d0d806101176000396000f3fe608060405234801561001057600080fd5b506004361061004c5760003560e01c80638da5cb5b1461005157806395bb7cd51461006f578063b69ef8a81461009f578063d645ddf6146100bd575b600080fd5b6100596100ed565b60405161006691906105a3565b60405180910390f35b610089600480360381019061008491906105fe565b610111565b6040516100969190610719565b60405180910390f35b6100a7610338565b6040516100b4919061074a565b60405180910390f35b6100d760048036038101906100d291906107ca565b61033e565b6040516100e4919061074a565b60405180910390f35b60008054906101000a900473ffffffffffffffffffffffffffffffffffffffff1681565b610119610541565b600154821061015d576040517f08c379a0000000000000000000000000000000000000000000000000000000008152600401610154906108db565b60405180910390fd5b6002600083815260200190815260200160002060405180606001604052908160008201805461018b9061092a565b80601f01602080910402602001604051908101604052809291908181526020018280546101b79061092a565b80156102045780601f106101d957610100808354040283529160200191610204565b820191906000526020600020905b8154815290600101906020018083116101e757829003601f168201915b5050505050815260200160018201805461021d9061092a565b80601f01602080910402602001604051908101604052809291908181526020018280546102499061092a565b80156102965780601f1061026b57610100808354040283529160200191610296565b820191906000526020600020905b81548152906001019060200180831161027957829003601f168201915b505050505081526020016002820180546102af9061092a565b80601f01602080910402602001604051908101604052809291908181526020018280546102db9061092a565b80156103285780601f106102fd57610100808354040283529160200191610328565b820191906000526020600020905b81548152906001019060200180831161030b57829003601f168201915b5050505050815250509050919050565b60015481565b60003373ffffffffffffffffffffffffffffffffffffffff1660008054906101000a900473ffffffffffffffffffffffffffffffffffffffff1673ffffffffffffffffffffffffffffffffffffffff16146103ce576040517f08c379a00000000000000000000000000000000000000000000000000000000081526004016103c5906109a7565b60405180910390fd5b6000604051806060016040528089898080601f016020809104026020016040519081016040528093929190818152602001838380828437600081840152601f19601f82011690508083019250505050505050815260200187878080601f016020809104026020016040519081016040528093929190818152602001838380828437600081840152601f19601f82011690508083019250505050505050815260200185858080601f016020809104026020016040519081016040528093929190818152602001838380828437600081840152601f19601f82011690508083019250505050505050815250905060006001549050816002600083815260200190815260200160002060008201518160000190816104e99190610ba2565b5060208201518160010190816104ff9190610ba2565b5060408201518160020190816105159190610ba2565b50905050600180600082825461052b9190610ca3565b9250508190555080925050509695505050505050565b60405180606001604052806060815260200160608152602001606081525090565b600073ffffffffffffffffffffffffffffffffffffffff82169050919050565b600061058d82610562565b9050919050565b61059d81610582565b82525050565b60006020820190506105b86000830184610594565b92915050565b600080fd5b600080fd5b6000819050919050565b6105db816105c8565b81146105e657600080fd5b50565b6000813590506105f8816105d2565b92915050565b600060208284031215610614576106136105be565b5b6000610622848285016105e9565b91505092915050565b600081519050919050565b600082825260208201905092915050565b60005b8381101561066557808201518184015260208101905061064a565b60008484015250505050565b6000601f19601f8301169050919050565b600061068d8261062b565b6106978185610636565b93506106a7818560208601610647565b6106b081610671565b840191505092915050565b600060608301600083015184820360008601526106d88282610682565b915050602083015184820360208601526106f28282610682565b9150506040830151848203604086015261070c8282610682565b9150508091505092915050565b6000602082019050818103600083015261073381846106bb565b905092915050565b610744816105c8565b82525050565b600060208201905061075f600083018461073b565b92915050565b600080fd5b600080fd5b600080fd5b60008083601f84011261078a57610789610765565b5b8235905067ffffffffffffffff8111156107a7576107a661076a565b5b6020830191508360018202830111156107c3576107c261076f565b5b9250929050565b600080600080600080606087890312156107e7576107e66105be565b5b600087013567ffffffffffffffff811115610805576108046105c3565b5b61081189828a01610774565b9650965050602087013567ffffffffffffffff811115610834576108336105c3565b5b61084089828a01610774565b9450945050604087013567ffffffffffffffff811115610863576108626105c3565b5b61086f89828a01610774565b92509250509295509295509295565b600082825260208201905092915050565b7f546f6b656e20646f65736e277420657869737400000000000000000000000000600082015250565b60006108c560138361087e565b91506108d08261088f565b602082019050919050565b600060208201905081810360008301526108f4816108b8565b9050919050565b7f4e487b7100000000000000000000000000000000000000000000000000000000600052602260045260246000fd5b6000600282049050600182168061094257607f821691505b602082108103610955576109546108fb565b5b50919050565b7f4e6f7420616c6c6f77656420746f206d696e7400000000000000000000000000600082015250565b600061099160138361087e565b915061099c8261095b565b602082019050919050565b600060208201905081810360008301526109c081610984565b9050919050565b7f4e487b7100000000000000000000000000000000000000000000000000000000600052604160045260246000fd5b60008190508160005260206000209050919050565b60006020601f8301049050919050565b600082821b905092915050565b600060088302610a587fffffffffffffffffffffffffffffffffffffffffffffffffffffffffffffffff82610a1b565b610a628683610a1b565b95508019841693508086168417925050509392505050565b6000819050919050565b6000610a9f610a9a610a95846105c8565b610a7a565b6105c8565b9050919050565b6000819050919050565b610ab983610a84565b610acd610ac582610aa6565b848454610a28565b825550505050565b600090565b610ae2610ad5565b610aed818484610ab0565b505050565b5b81811015610b1157610b06600082610ada565b600181019050610af3565b5050565b601f821115610b5657610b27816109f6565b610b3084610a0b565b81016020851015610b3f578190505b610b53610b4b85610a0b565b830182610af2565b50505b505050565b600082821c905092915050565b6000610b7960001984600802610b5b565b1980831691505092915050565b6000610b928383610b68565b9150826002028217905092915050565b610bab8261062b565b67ffffffffffffffff811115610bc457610bc36109c7565b5b610bce825461092a565b610bd9828285610b15565b600060209050601f831160018114610c0c5760008415610bfa578287015190505b610c048582610b86565b865550610c6c565b601f198416610c1a866109f6565b60005b82811015610c4257848901518255600182019150602085019450602081019050610c1d565b86831015610c5f5784890151610c5b601f891682610b68565b8355505b6001600288020188555050505b505050505050565b7f4e487b7100000000000000000000000000000000000000000000000000000000600052601160045260246000fd5b6000610cae826105c8565b9150610cb9836105c8565b9250828201905080821115610cd157610cd0610c74565b5b9291505056fea2646970667358221220375c2dbda364e829502d8ef0471c1a0654dbb0a6a6368253ab083dd51f58984064736f6c63430008120033a264697066735822122068a0c17cbc98f8b791381fed6089d992844dcfedfe5ca7c1f8bc87c92c40dcb564736f6c63430008120033",
  "immutableReferences": {},
  "source": "// SPDX-License-Identifier: MIT\n\nimport \"./PaternitySBT.sol\";\n\npragma solidity >=0.4.22 <0.9.0;\n\ncontract ShutterProof {\n\n    enum UserRole {\n        Photographer,\n        Client\n    }\n\n    struct User {\n        PaternitySBT sbt;\n        string name;\n        UserRole role;\n        bytes14 siret;\n        bool registered;\n    }\n\n    mapping(address => User) users;\n\n    event UserRegistered(address, UserRole);\n\n    function register(string calldata _name, bytes14 _siret, UserRole _role) external\n    {\n        User memory user = users[msg.sender];\n\n        require(!user.registered, 'User is already registered');\n        require(keccak256(bytes(_name)) != keccak256(bytes(\"\")), \"Name cannot be empty\");\n        require(_siret.length > 0, \"SIRET cannot be empty\");\n        for(uint i = 0; i < 14; i++) {\n            require(_siret[i] >= '0' && _siret[i] <= '9', \"SIRET is not well formed\");\n        }\n\n        users[msg.sender].name = _name;\n        users[msg.sender].siret = _siret;\n        users[msg.sender].role = _role;\n        users[msg.sender].registered = true;\n\n        if (_role == UserRole.Photographer) {\n            users[msg.sender].sbt = new PaternitySBT(msg.sender);\n        }\n    }\n\n    function isRegistered() view external returns (bool)\n    {\n        return users[msg.sender].registered;\n    }\n\n    function getRole() view external returns (UserRole)\n    {\n        require(users[msg.sender].registered, \"User is not registered\");\n\n        return users[msg.sender].role;\n    }\n\n    function getPaternitySBT(address _user) view external returns(PaternitySBT)\n    {\n        require(address(users[_user].sbt) != address(0), \"Use has no SBT contract\");\n\n        return users[_user].sbt;\n    }\n}\n",
  "sourcePath": "/Users/a.saintvanne/Desktop/BC/shutter-proof/truffle/contracts/ShuttterProof.sol",
  "compiler": {
    "name": "solc",
    "version": "0.8.18+commit.87f61d96.Emscripten.clang"
  },
  "schemaVersion": "3.4.12",
  "updatedAt": "2023-04-03T20:32:18.560Z",
  "networkType": "ethereum",
  "devdoc": {
    "kind": "dev",
    "methods": {},
    "version": 1
  },
  "userdoc": {
    "kind": "user",
    "methods": {},
    "version": 1
  }
}