{
  "contractName": "ShutterProof",
  "abi": [
    {
      "inputs": [],
      "stateMutability": "nonpayable",
      "type": "constructor"
    },
    {
      "anonymous": false,
      "inputs": [
        {
          "indexed": false,
          "internalType": "address",
          "name": "",
          "type": "address"
        },
        {
          "indexed": false,
          "internalType": "enum ShutterProof.UserRole",
          "name": "",
          "type": "uint8"
        }
      ],
      "name": "UserRegistered",
      "type": "event"
    },
    {
      "inputs": [
        {
          "internalType": "string",
          "name": "_name",
          "type": "string"
        },
        {
          "internalType": "bytes14",
          "name": "_siret",
          "type": "bytes14"
        },
        {
          "internalType": "enum ShutterProof.UserRole",
          "name": "_role",
          "type": "uint8"
        }
      ],
      "name": "register",
      "outputs": [],
      "stateMutability": "nonpayable",
      "type": "function"
    },
    {
      "inputs": [
        {
          "internalType": "address",
          "name": "_address",
          "type": "address"
        }
      ],
      "name": "getUser",
      "outputs": [
        {
          "components": [
            {
              "internalType": "contract PaternitySBT",
              "name": "sbt",
              "type": "address"
            },
            {
              "internalType": "string",
              "name": "name",
              "type": "string"
            },
            {
              "internalType": "enum ShutterProof.UserRole",
              "name": "role",
              "type": "uint8"
            },
            {
              "internalType": "bytes14",
              "name": "siret",
              "type": "bytes14"
            },
            {
              "internalType": "bool",
              "name": "registered",
              "type": "bool"
            }
          ],
          "internalType": "struct ShutterProof.User",
          "name": "",
          "type": "tuple"
        }
      ],
      "stateMutability": "view",
      "type": "function",
      "constant": true
    },
    {
      "inputs": [],
      "name": "getUser",
      "outputs": [
        {
          "components": [
            {
              "internalType": "contract PaternitySBT",
              "name": "sbt",
              "type": "address"
            },
            {
              "internalType": "string",
              "name": "name",
              "type": "string"
            },
            {
              "internalType": "enum ShutterProof.UserRole",
              "name": "role",
              "type": "uint8"
            },
            {
              "internalType": "bytes14",
              "name": "siret",
              "type": "bytes14"
            },
            {
              "internalType": "bool",
              "name": "registered",
              "type": "bool"
            }
          ],
          "internalType": "struct ShutterProof.User",
          "name": "",
          "type": "tuple"
        }
      ],
      "stateMutability": "view",
      "type": "function",
      "constant": true
    },
    {
      "inputs": [],
      "name": "isRegistered",
      "outputs": [
        {
          "internalType": "bool",
          "name": "",
          "type": "bool"
        }
      ],
      "stateMutability": "view",
      "type": "function",
      "constant": true
    },
    {
      "inputs": [],
      "name": "getRole",
      "outputs": [
        {
          "internalType": "enum ShutterProof.UserRole",
          "name": "",
          "type": "uint8"
        }
      ],
      "stateMutability": "view",
      "type": "function",
      "constant": true
    },
    {
      "inputs": [
        {
          "internalType": "address",
          "name": "_user",
          "type": "address"
        }
      ],
      "name": "getPaternitySBT",
      "outputs": [
        {
          "internalType": "contract PaternitySBT",
          "name": "",
          "type": "address"
        }
      ],
      "stateMutability": "view",
      "type": "function",
      "constant": true
    },
    {
      "inputs": [
        {
          "internalType": "uint256",
          "name": "tokenId",
          "type": "uint256"
        }
      ],
      "name": "buyExclusiveRights",
      "outputs": [],
      "stateMutability": "payable",
      "type": "function",
      "payable": true
    },
    {
      "inputs": [],
      "name": "getExclusiveRightsNFT",
      "outputs": [
        {
          "internalType": "contract ExclusiveRightsNFT",
          "name": "",
          "type": "address"
        }
      ],
      "stateMutability": "view",
      "type": "function",
      "constant": true
    }
  ],
  "bytecode": "0x60806040523480156200001157600080fd5b50600160008190555030604051620000299062000099565b62000035919062000132565b604051809103906000f08015801562000052573d6000803e3d6000fd5b50600260006101000a81548173ffffffffffffffffffffffffffffffffffffffff021916908373ffffffffffffffffffffffffffffffffffffffff1602179055506200014f565b6135e980620033f583390190565b600073ffffffffffffffffffffffffffffffffffffffff82169050919050565b6000819050919050565b6000620000f2620000ec620000e684620000a7565b620000c7565b620000a7565b9050919050565b60006200010682620000d1565b9050919050565b60006200011a82620000f9565b9050919050565b6200012c816200010d565b82525050565b600060208201905062000149600083018462000121565b92915050565b613296806200015f6000396000f3fe608060405260043610620000865760003560e01c8063832880e71162000055578063832880e714620001735780639273607714620001a3578063a6280cd614620001c3578063fde0817414620001f15762000086565b806322366844146200008b5780634afe99ad14620000bb5780635049b90414620000ff5780636f77926b146200012f575b600080fd5b3480156200009857600080fd5b50620000a362000221565b604051620000b29190620014ca565b60405180910390f35b348015620000c857600080fd5b50620000e76004803603810190620000e1919062001556565b62000278565b604051620000f69190620015f3565b60405180910390f35b3480156200010c57600080fd5b5062000117620003b7565b60405162000126919062001635565b60405180910390f35b3480156200013c57600080fd5b506200015b600480360381019062000155919062001556565b620003e1565b6040516200016a91906200184b565b60405180910390f35b3480156200018057600080fd5b506200018b620005c9565b6040516200019a91906200184b565b60405180910390f35b620001c16004803603810190620001bb9190620018aa565b620007af565b005b348015620001d057600080fd5b50620001ef6004803603810190620001e99190620019a3565b62000bb9565b005b348015620001fe57600080fd5b5062000209620012c6565b60405162000218919062001a34565b60405180910390f35b6000600160003373ffffffffffffffffffffffffffffffffffffffff1673ffffffffffffffffffffffffffffffffffffffff168152602001908152602001600020600201600f9054906101000a900460ff16905090565b60008073ffffffffffffffffffffffffffffffffffffffff16600160008473ffffffffffffffffffffffffffffffffffffffff1673ffffffffffffffffffffffffffffffffffffffff16815260200190815260200160002060000160009054906101000a900473ffffffffffffffffffffffffffffffffffffffff1673ffffffffffffffffffffffffffffffffffffffff16036200034d576040517f08c379a0000000000000000000000000000000000000000000000000000000008152600401620003449062001ab2565b60405180910390fd5b600160008373ffffffffffffffffffffffffffffffffffffffff1673ffffffffffffffffffffffffffffffffffffffff16815260200190815260200160002060000160009054906101000a900473ffffffffffffffffffffffffffffffffffffffff169050919050565b6000600260009054906101000a900473ffffffffffffffffffffffffffffffffffffffff16905090565b620003eb6200142e565b600160008373ffffffffffffffffffffffffffffffffffffffff1673ffffffffffffffffffffffffffffffffffffffff1681526020019081526020016000206040518060a00160405290816000820160009054906101000a900473ffffffffffffffffffffffffffffffffffffffff1673ffffffffffffffffffffffffffffffffffffffff1673ffffffffffffffffffffffffffffffffffffffff1681526020016001820180546200049d9062001b03565b80601f0160208091040260200160405190810160405280929190818152602001828054620004cb9062001b03565b80156200051c5780601f10620004f0576101008083540402835291602001916200051c565b820191906000526020600020905b815481529060010190602001808311620004fe57829003601f168201915b505050505081526020016002820160009054906101000a900460ff1660018111156200054d576200054c620016fd565b5b6001811115620005625762000561620016fd565b5b81526020016002820160019054906101000a900460901b71ffffffffffffffffffffffffffffffffffff191671ffffffffffffffffffffffffffffffffffff1916815260200160028201600f9054906101000a900460ff1615151515815250509050919050565b620005d36200142e565b600160003373ffffffffffffffffffffffffffffffffffffffff1673ffffffffffffffffffffffffffffffffffffffff1681526020019081526020016000206040518060a00160405290816000820160009054906101000a900473ffffffffffffffffffffffffffffffffffffffff1673ffffffffffffffffffffffffffffffffffffffff1673ffffffffffffffffffffffffffffffffffffffff168152602001600182018054620006859062001b03565b80601f0160208091040260200160405190810160405280929190818152602001828054620006b39062001b03565b8015620007045780601f10620006d85761010080835404028352916020019162000704565b820191906000526020600020905b815481529060010190602001808311620006e657829003601f168201915b505050505081526020016002820160009054906101000a900460ff166001811115620007355762000734620016fd565b5b60018111156200074a5762000749620016fd565b5b81526020016002820160019054906101000a900460901b71ffffffffffffffffffffffffffffffffffff191671ffffffffffffffffffffffffffffffffffff1916815260200160028201600f9054906101000a900460ff161515151581525050905090565b620007b9620013af565b6000600260009054906101000a900473ffffffffffffffffffffffffffffffffffffffff1673ffffffffffffffffffffffffffffffffffffffff1663e7572230836040518263ffffffff1660e01b815260040162000818919062001b49565b602060405180830381865afa15801562000836573d6000803e3d6000fd5b505050506040513d601f19601f820116820180604052508101906200085c919062001b7d565b905060008111620008a4576040517f08c379a00000000000000000000000000000000000000000000000000000000081526004016200089b9062001bff565b60405180910390fd5b80341015620008ea576040517f08c379a0000000000000000000000000000000000000000000000000000000008152600401620008e19062001c71565b60405180910390fd5b6000600260009054906101000a900473ffffffffffffffffffffffffffffffffffffffff1673ffffffffffffffffffffffffffffffffffffffff16636352211e846040518263ffffffff1660e01b815260040162000949919062001b49565b602060405180830381865afa15801562000967573d6000803e3d6000fd5b505050506040513d601f19601f820116820180604052508101906200098d919062001caa565b9050600260009054906101000a900473ffffffffffffffffffffffffffffffffffffffff1673ffffffffffffffffffffffffffffffffffffffff166342842e0e8233866040518463ffffffff1660e01b8152600401620009f09392919062001ced565b600060405180830381600087803b15801562000a0b57600080fd5b505af115801562000a20573d6000803e3d6000fd5b5050505060008173ffffffffffffffffffffffffffffffffffffffff163460405162000a4c9062001d5f565b60006040518083038185875af1925050503d806000811462000a8b576040519150601f19603f3d011682016040523d82523d6000602084013e62000a90565b606091505b505090508062000ad7576040517f08c379a000000000000000000000000000000000000000000000000000000000815260040162000ace9062001dc6565b60405180910390fd5b6000833462000ae7919062001e17565b9050600081111562000ba85760003373ffffffffffffffffffffffffffffffffffffffff168260405162000b1b9062001d5f565b60006040518083038185875af1925050503d806000811462000b5a576040519150601f19603f3d011682016040523d82523d6000602084013e62000b5f565b606091505b505090508062000ba6576040517f08c379a000000000000000000000000000000000000000000000000000000000815260040162000b9d9062001ea2565b60405180910390fd5b505b5050505062000bb662001401565b50565b62000bda3373ffffffffffffffffffffffffffffffffffffffff166200140b565b1562000c1d576040517f08c379a000000000000000000000000000000000000000000000000000000000815260040162000c149062001f14565b60405180910390fd5b6000600160003373ffffffffffffffffffffffffffffffffffffffff1673ffffffffffffffffffffffffffffffffffffffff1681526020019081526020016000206040518060a00160405290816000820160009054906101000a900473ffffffffffffffffffffffffffffffffffffffff1673ffffffffffffffffffffffffffffffffffffffff1673ffffffffffffffffffffffffffffffffffffffff16815260200160018201805462000cd19062001b03565b80601f016020809104026020016040519081016040528092919081815260200182805462000cff9062001b03565b801562000d505780601f1062000d245761010080835404028352916020019162000d50565b820191906000526020600020905b81548152906001019060200180831162000d3257829003601f168201915b505050505081526020016002820160009054906101000a900460ff16600181111562000d815762000d80620016fd565b5b600181111562000d965762000d95620016fd565b5b81526020016002820160019054906101000a900460901b71ffffffffffffffffffffffffffffffffffff191671ffffffffffffffffffffffffffffffffffff1916815260200160028201600f9054906101000a900460ff161515151581525050905080608001511562000e40576040517f08c379a000000000000000000000000000000000000000000000000000000000815260040162000e379062001f86565b60405180910390fd5b6040518060200160405280600081525080519060200120858560405162000e6992919062001fe0565b60405180910390200362000eb4576040517f08c379a000000000000000000000000000000000000000000000000000000000815260040162000eab906200204b565b60405180910390fd5b6000600e60ff161162000efe576040517f08c379a000000000000000000000000000000000000000000000000000000000815260040162000ef590620020bd565b60405180910390fd5b60005b600e8110156200102a577f30000000000000000000000000000000000000000000000000000000000000008482600e811062000f425762000f41620020df565b5b1a60f81b7effffffffffffffffffffffffffffffffffffffffffffffffffffffffffffff19161015801562000fd257507f39000000000000000000000000000000000000000000000000000000000000008482600e811062000fa95762000fa8620020df565b5b1a60f81b7effffffffffffffffffffffffffffffffffffffffffffffffffffffffffffff191611155b62001014576040517f08c379a00000000000000000000000000000000000000000000000000000000081526004016200100b906200215e565b60405180910390fd5b8080620010219062002180565b91505062000f01565b508484600160003373ffffffffffffffffffffffffffffffffffffffff1673ffffffffffffffffffffffffffffffffffffffff16815260200190815260200160002060010191826200107e929190620023cf565b5082600160003373ffffffffffffffffffffffffffffffffffffffff1673ffffffffffffffffffffffffffffffffffffffff16815260200190815260200160002060020160016101000a8154816dffffffffffffffffffffffffffff021916908360901c021790555081600160003373ffffffffffffffffffffffffffffffffffffffff1673ffffffffffffffffffffffffffffffffffffffff16815260200190815260200160002060020160006101000a81548160ff021916908360018111156200114f576200114e620016fd565b5b021790555060018060003373ffffffffffffffffffffffffffffffffffffffff1673ffffffffffffffffffffffffffffffffffffffff168152602001908152602001600020600201600f6101000a81548160ff02191690831515021790555060006001811115620011c557620011c4620016fd565b5b826001811115620011db57620011da620016fd565b5b03620012bf5733600260009054906101000a900473ffffffffffffffffffffffffffffffffffffffff1660405162001213906200149f565b62001220929190620024b4565b604051809103906000f0801580156200123d573d6000803e3d6000fd5b50600160003373ffffffffffffffffffffffffffffffffffffffff1673ffffffffffffffffffffffffffffffffffffffff16815260200190815260200160002060000160006101000a81548173ffffffffffffffffffffffffffffffffffffffff021916908373ffffffffffffffffffffffffffffffffffffffff1602179055505b5050505050565b6000600160003373ffffffffffffffffffffffffffffffffffffffff1673ffffffffffffffffffffffffffffffffffffffff168152602001908152602001600020600201600f9054906101000a900460ff166200135a576040517f08c379a0000000000000000000000000000000000000000000000000000000008152600401620013519062002531565b60405180910390fd5b600160003373ffffffffffffffffffffffffffffffffffffffff1673ffffffffffffffffffffffffffffffffffffffff16815260200190815260200160002060020160009054906101000a900460ff16905090565b600260005403620013f7576040517f08c379a0000000000000000000000000000000000000000000000000000000008152600401620013ee90620025a3565b60405180910390fd5b6002600081905550565b6001600081905550565b6000808273ffffffffffffffffffffffffffffffffffffffff163b119050919050565b6040518060a00160405280600073ffffffffffffffffffffffffffffffffffffffff1681526020016060815260200160006001811115620014745762001473620016fd565b5b8152602001600071ffffffffffffffffffffffffffffffffffff191681526020016000151581525090565b610c9b80620025c683390190565b60008115159050919050565b620014c481620014ad565b82525050565b6000602082019050620014e16000830184620014b9565b92915050565b600080fd5b600080fd5b600073ffffffffffffffffffffffffffffffffffffffff82169050919050565b60006200151e82620014f1565b9050919050565b620015308162001511565b81146200153c57600080fd5b50565b600081359050620015508162001525565b92915050565b6000602082840312156200156f576200156e620014e7565b5b60006200157f848285016200153f565b91505092915050565b6000819050919050565b6000620015b3620015ad620015a784620014f1565b62001588565b620014f1565b9050919050565b6000620015c78262001592565b9050919050565b6000620015db82620015ba565b9050919050565b620015ed81620015ce565b82525050565b60006020820190506200160a6000830184620015e2565b92915050565b60006200161d82620015ba565b9050919050565b6200162f8162001610565b82525050565b60006020820190506200164c600083018462001624565b92915050565b6200165d81620015ce565b82525050565b600081519050919050565b600082825260208201905092915050565b60005b838110156200169f57808201518184015260208101905062001682565b60008484015250505050565b6000601f19601f8301169050919050565b6000620016c98262001663565b620016d581856200166e565b9350620016e78185602086016200167f565b620016f281620016ab565b840191505092915050565b7f4e487b7100000000000000000000000000000000000000000000000000000000600052602160045260246000fd5b6002811062001740576200173f620016fd565b5b50565b600081905062001753826200172c565b919050565b6000620017658262001743565b9050919050565b620017778162001758565b82525050565b60007fffffffffffffffffffffffffffff00000000000000000000000000000000000082169050919050565b620017b4816200177d565b82525050565b620017c581620014ad565b82525050565b600060a083016000830151620017e5600086018262001652565b5060208301518482036020860152620017ff8282620016bc565b91505060408301516200181660408601826200176c565b5060608301516200182b6060860182620017a9565b506080830151620018406080860182620017ba565b508091505092915050565b60006020820190508181036000830152620018678184620017cb565b905092915050565b6000819050919050565b62001884816200186f565b81146200189057600080fd5b50565b600081359050620018a48162001879565b92915050565b600060208284031215620018c357620018c2620014e7565b5b6000620018d38482850162001893565b91505092915050565b600080fd5b600080fd5b600080fd5b60008083601f840112620019045762001903620018dc565b5b8235905067ffffffffffffffff811115620019245762001923620018e1565b5b602083019150836001820283011115620019435762001942620018e6565b5b9250929050565b62001955816200177d565b81146200196157600080fd5b50565b60008135905062001975816200194a565b92915050565b600281106200198957600080fd5b50565b6000813590506200199d816200197b565b92915050565b60008060008060608587031215620019c057620019bf620014e7565b5b600085013567ffffffffffffffff811115620019e157620019e0620014ec565b5b620019ef87828801620018eb565b9450945050602062001a048782880162001964565b925050604062001a17878288016200198c565b91505092959194509250565b62001a2e8162001758565b82525050565b600060208201905062001a4b600083018462001a23565b92915050565b600082825260208201905092915050565b7f55736520686173206e6f2053425420636f6e7472616374000000000000000000600082015250565b600062001a9a60178362001a51565b915062001aa78262001a62565b602082019050919050565b6000602082019050818103600083015262001acd8162001a8b565b9050919050565b7f4e487b7100000000000000000000000000000000000000000000000000000000600052602260045260246000fd5b6000600282049050600182168062001b1c57607f821691505b60208210810362001b325762001b3162001ad4565b5b50919050565b62001b43816200186f565b82525050565b600060208201905062001b60600083018462001b38565b92915050565b60008151905062001b778162001879565b92915050565b60006020828403121562001b965762001b95620014e7565b5b600062001ba68482850162001b66565b91505092915050565b7f50686f746f677261706879206973206e6f7420666f722073616c650000000000600082015250565b600062001be7601b8362001a51565b915062001bf48262001baf565b602082019050919050565b6000602082019050818103600083015262001c1a8162001bd8565b9050919050565b7f496e73756666696369656e74207061796d656e74000000000000000000000000600082015250565b600062001c5960148362001a51565b915062001c668262001c21565b602082019050919050565b6000602082019050818103600083015262001c8c8162001c4a565b9050919050565b60008151905062001ca48162001525565b92915050565b60006020828403121562001cc35762001cc2620014e7565b5b600062001cd38482850162001c93565b91505092915050565b62001ce78162001511565b82525050565b600060608201905062001d04600083018662001cdc565b62001d13602083018562001cdc565b62001d22604083018462001b38565b949350505050565b600081905092915050565b50565b600062001d4760008362001d2a565b915062001d548262001d35565b600082019050919050565b600062001d6c8262001d38565b9150819050919050565b7f5472616e7366657220746f2073656c6c6572206661696c656400000000000000600082015250565b600062001dae60198362001a51565b915062001dbb8262001d76565b602082019050919050565b6000602082019050818103600083015262001de18162001d9f565b9050919050565b7f4e487b7100000000000000000000000000000000000000000000000000000000600052601160045260246000fd5b600062001e24826200186f565b915062001e31836200186f565b925082820390508181111562001e4c5762001e4b62001de8565b5b92915050565b7f526566756e6420746f206275796572206661696c656400000000000000000000600082015250565b600062001e8a60168362001a51565b915062001e978262001e52565b602082019050919050565b6000602082019050818103600083015262001ebd8162001e7b565b9050919050565b7f436f6e74726163742063616e6e6f742062652072656769737465726564000000600082015250565b600062001efc601d8362001a51565b915062001f098262001ec4565b602082019050919050565b6000602082019050818103600083015262001f2f8162001eed565b9050919050565b7f5573657220697320616c72656164792072656769737465726564000000000000600082015250565b600062001f6e601a8362001a51565b915062001f7b8262001f36565b602082019050919050565b6000602082019050818103600083015262001fa18162001f5f565b9050919050565b82818337600083830152505050565b600062001fc5838562001d2a565b935062001fd483858462001fa8565b82840190509392505050565b600062001fef82848662001fb7565b91508190509392505050565b7f4e616d652063616e6e6f7420626520656d707479000000000000000000000000600082015250565b60006200203360148362001a51565b9150620020408262001ffb565b602082019050919050565b60006020820190508181036000830152620020668162002024565b9050919050565b7f53495245542063616e6e6f7420626520656d7074790000000000000000000000600082015250565b6000620020a560158362001a51565b9150620020b2826200206d565b602082019050919050565b60006020820190508181036000830152620020d88162002096565b9050919050565b7f4e487b7100000000000000000000000000000000000000000000000000000000600052603260045260246000fd5b7f5349524554206973206e6f742077656c6c20666f726d65640000000000000000600082015250565b60006200214660188362001a51565b915062002153826200210e565b602082019050919050565b60006020820190508181036000830152620021798162002137565b9050919050565b60006200218d826200186f565b91507fffffffffffffffffffffffffffffffffffffffffffffffffffffffffffffffff8203620021c257620021c162001de8565b5b600182019050919050565b600082905092915050565b7f4e487b7100000000000000000000000000000000000000000000000000000000600052604160045260246000fd5b60008190508160005260206000209050919050565b60006020601f8301049050919050565b600082821b905092915050565b6000600883026200226b7fffffffffffffffffffffffffffffffffffffffffffffffffffffffffffffffff826200222c565b6200227786836200222c565b95508019841693508086168417925050509392505050565b6000620022b0620022aa620022a4846200186f565b62001588565b6200186f565b9050919050565b6000819050919050565b620022cc836200228f565b620022e4620022db82620022b7565b84845462002239565b825550505050565b600090565b620022fb620022ec565b62002308818484620022c1565b505050565b5b81811015620023305762002324600082620022f1565b6001810190506200230e565b5050565b601f8211156200237f57620023498162002207565b62002354846200221c565b8101602085101562002364578190505b6200237c62002373856200221c565b8301826200230d565b50505b505050565b600082821c905092915050565b6000620023a46000198460080262002384565b1980831691505092915050565b6000620023bf838362002391565b9150826002028217905092915050565b620023db8383620021cd565b67ffffffffffffffff811115620023f757620023f6620021d8565b5b62002403825462001b03565b6200241082828562002334565b6000601f8311600181146200244457600084156200242f578287013590505b6200243b8582620023b1565b865550620024ab565b601f198416620024548662002207565b60005b828110156200247e5784890135825560018201915060208501945060208101905062002457565b868310156200249e57848901356200249a601f89168262002391565b8355505b6001600288020188555050505b50505050505050565b6000604082019050620024cb600083018562001cdc565b620024da602083018462001624565b9392505050565b7f55736572206973206e6f74207265676973746572656400000000000000000000600082015250565b60006200251960168362001a51565b91506200252682620024e1565b602082019050919050565b600060208201905081810360008301526200254c816200250a565b9050919050565b7f5265656e7472616e637947756172643a207265656e7472616e742063616c6c00600082015250565b60006200258b601f8362001a51565b9150620025988262002553565b602082019050919050565b60006020820190508181036000830152620025be816200257c565b905091905056fe60806040523480156200001157600080fd5b5060405162000c9b38038062000c9b83398181016040528101906200003791906200016f565b81600160006101000a81548173ffffffffffffffffffffffffffffffffffffffff021916908373ffffffffffffffffffffffffffffffffffffffff160217905550806000806101000a81548173ffffffffffffffffffffffffffffffffffffffff021916908373ffffffffffffffffffffffffffffffffffffffff1602179055505050620001b6565b600080fd5b600073ffffffffffffffffffffffffffffffffffffffff82169050919050565b6000620000f282620000c5565b9050919050565b6200010481620000e5565b81146200011057600080fd5b50565b6000815190506200012481620000f9565b92915050565b60006200013782620000e5565b9050919050565b62000149816200012a565b81146200015557600080fd5b50565b60008151905062000169816200013e565b92915050565b60008060408385031215620001895762000188620000c0565b5b6000620001998582860162000113565b9250506020620001ac8582860162000158565b9150509250929050565b610ad580620001c66000396000f3fe608060405234801561001057600080fd5b50600436106100575760003560e01c8063893d20e81461005c5780638da5cb5b1461007a578063b69ef8a814610098578063d85d3d27146100b6578063e4b50cb8146100e6575b600080fd5b610064610116565b6040516100719190610438565b60405180910390f35b610082610140565b60405161008f9190610438565b60405180910390f35b6100a0610166565b6040516100ad919061046c565b60405180910390f35b6100d060048036038101906100cb91906104f6565b61016c565b6040516100dd919061046c565b60405180910390f35b61010060048036038101906100fb919061056f565b61030e565b60405161010d919061062c565b60405180910390f35b6000600160009054906101000a900473ffffffffffffffffffffffffffffffffffffffff16905090565b600160009054906101000a900473ffffffffffffffffffffffffffffffffffffffff1681565b60025481565b60003373ffffffffffffffffffffffffffffffffffffffff16600160009054906101000a900473ffffffffffffffffffffffffffffffffffffffff1673ffffffffffffffffffffffffffffffffffffffff16146101fe576040517f08c379a00000000000000000000000000000000000000000000000000000000081526004016101f59061069a565b60405180910390fd5b600060025490508383600360008481526020019081526020016000209182610227929190610900565b5060008054906101000a900473ffffffffffffffffffffffffffffffffffffffff1673ffffffffffffffffffffffffffffffffffffffff1663a0712d68826040518263ffffffff1660e01b8152600401610281919061046c565b600060405180830381600087803b15801561029b57600080fd5b505af11580156102af573d6000803e3d6000fd5b505050506001600260008282546102c691906109ff565b925050819055507f07883703ed0e86588a40d76551c92f8a4b329e3bf19765e0e6749473c1a84665816040516102fc919061046c565b60405180910390a18091505092915050565b60606002548210610354576040517f08c379a000000000000000000000000000000000000000000000000000000000815260040161034b90610a7f565b60405180910390fd5b60036000838152602001908152602001600020805461037290610723565b80601f016020809104026020016040519081016040528092919081815260200182805461039e90610723565b80156103eb5780601f106103c0576101008083540402835291602001916103eb565b820191906000526020600020905b8154815290600101906020018083116103ce57829003601f168201915b50505050509050919050565b600073ffffffffffffffffffffffffffffffffffffffff82169050919050565b6000610422826103f7565b9050919050565b61043281610417565b82525050565b600060208201905061044d6000830184610429565b92915050565b6000819050919050565b61046681610453565b82525050565b6000602082019050610481600083018461045d565b92915050565b600080fd5b600080fd5b600080fd5b600080fd5b600080fd5b60008083601f8401126104b6576104b5610491565b5b8235905067ffffffffffffffff8111156104d3576104d2610496565b5b6020830191508360018202830111156104ef576104ee61049b565b5b9250929050565b6000806020838503121561050d5761050c610487565b5b600083013567ffffffffffffffff81111561052b5761052a61048c565b5b610537858286016104a0565b92509250509250929050565b61054c81610453565b811461055757600080fd5b50565b60008135905061056981610543565b92915050565b60006020828403121561058557610584610487565b5b60006105938482850161055a565b91505092915050565b600081519050919050565b600082825260208201905092915050565b60005b838110156105d65780820151818401526020810190506105bb565b60008484015250505050565b6000601f19601f8301169050919050565b60006105fe8261059c565b61060881856105a7565b93506106188185602086016105b8565b610621816105e2565b840191505092915050565b6000602082019050818103600083015261064681846105f3565b905092915050565b7f4e6f7420616c6c6f77656420746f206d696e7400000000000000000000000000600082015250565b60006106846013836105a7565b915061068f8261064e565b602082019050919050565b600060208201905081810360008301526106b381610677565b9050919050565b600082905092915050565b7f4e487b7100000000000000000000000000000000000000000000000000000000600052604160045260246000fd5b7f4e487b7100000000000000000000000000000000000000000000000000000000600052602260045260246000fd5b6000600282049050600182168061073b57607f821691505b60208210810361074e5761074d6106f4565b5b50919050565b60008190508160005260206000209050919050565b60006020601f8301049050919050565b600082821b905092915050565b6000600883026107b67fffffffffffffffffffffffffffffffffffffffffffffffffffffffffffffffff82610779565b6107c08683610779565b95508019841693508086168417925050509392505050565b6000819050919050565b60006107fd6107f86107f384610453565b6107d8565b610453565b9050919050565b6000819050919050565b610817836107e2565b61082b61082382610804565b848454610786565b825550505050565b600090565b610840610833565b61084b81848461080e565b505050565b5b8181101561086f57610864600082610838565b600181019050610851565b5050565b601f8211156108b45761088581610754565b61088e84610769565b8101602085101561089d578190505b6108b16108a985610769565b830182610850565b50505b505050565b600082821c905092915050565b60006108d7600019846008026108b9565b1980831691505092915050565b60006108f083836108c6565b9150826002028217905092915050565b61090a83836106ba565b67ffffffffffffffff811115610923576109226106c5565b5b61092d8254610723565b610938828285610873565b6000601f8311600181146109675760008415610955578287013590505b61095f85826108e4565b8655506109c7565b601f19841661097586610754565b60005b8281101561099d57848901358255600182019150602085019450602081019050610978565b868310156109ba57848901356109b6601f8916826108c6565b8355505b6001600288020188555050505b50505050505050565b7f4e487b7100000000000000000000000000000000000000000000000000000000600052601160045260246000fd5b6000610a0a82610453565b9150610a1583610453565b9250828201905080821115610a2d57610a2c6109d0565b5b92915050565b7f546f6b656e20646f65736e277420657869737400000000000000000000000000600082015250565b6000610a696013836105a7565b9150610a7482610a33565b602082019050919050565b60006020820190508181036000830152610a9881610a5c565b905091905056fea264697066735822122027fddf0008b149808b0d0950542440c83d0dfef92d4d9b1efceb2fadfad8327764736f6c63430008120033a2646970667358221220ce48efd0bf029300048a520ba2240fcf222ce88ad85ed535a68fb1085d140eb164736f6c6343000812003360806040523480156200001157600080fd5b50604051620035e9380380620035e983398181016040528101906200003791906200018f565b6040518060400160405280601d81526020017f5368757474657250726f6f66204578636c7573697665205269676874730000008152506040518060400160405280600481526020017f53504552000000000000000000000000000000000000000000000000000000008152508160009081620000b491906200043b565b508060019081620000c691906200043b565b50505080600660006101000a81548173ffffffffffffffffffffffffffffffffffffffff021916908373ffffffffffffffffffffffffffffffffffffffff1602179055505062000522565b600080fd5b600073ffffffffffffffffffffffffffffffffffffffff82169050919050565b6000620001438262000116565b9050919050565b6000620001578262000136565b9050919050565b62000169816200014a565b81146200017557600080fd5b50565b60008151905062000189816200015e565b92915050565b600060208284031215620001a857620001a762000111565b5b6000620001b88482850162000178565b91505092915050565b600081519050919050565b7f4e487b7100000000000000000000000000000000000000000000000000000000600052604160045260246000fd5b7f4e487b7100000000000000000000000000000000000000000000000000000000600052602260045260246000fd5b600060028204905060018216806200024357607f821691505b602082108103620002595762000258620001fb565b5b50919050565b60008190508160005260206000209050919050565b60006020601f8301049050919050565b600082821b905092915050565b600060088302620002c37fffffffffffffffffffffffffffffffffffffffffffffffffffffffffffffffff8262000284565b620002cf868362000284565b95508019841693508086168417925050509392505050565b6000819050919050565b6000819050919050565b60006200031c620003166200031084620002e7565b620002f1565b620002e7565b9050919050565b6000819050919050565b6200033883620002fb565b62000350620003478262000323565b84845462000291565b825550505050565b600090565b6200036762000358565b620003748184846200032d565b505050565b5b818110156200039c57620003906000826200035d565b6001810190506200037a565b5050565b601f821115620003eb57620003b5816200025f565b620003c08462000274565b81016020851015620003d0578190505b620003e8620003df8562000274565b83018262000379565b50505b505050565b600082821c905092915050565b60006200041060001984600802620003f0565b1980831691505092915050565b60006200042b8383620003fd565b9150826002028217905092915050565b6200044682620001c1565b67ffffffffffffffff811115620004625762000461620001cc565b5b6200046e82546200022a565b6200047b828285620003a0565b600060209050601f831160018114620004b357600084156200049e578287015190505b620004aa85826200041d565b8655506200051a565b601f198416620004c3866200025f565b60005b82811015620004ed57848901518255600182019150602085019450602081019050620004c6565b868310156200050d578489015162000509601f891682620003fd565b8355505b6001600288020188555050505b505050505050565b6130b780620005326000396000f3fe608060405234801561001057600080fd5b50600436106101165760003560e01c806395d89b41116100a2578063b90bb4e911610071578063b90bb4e9146102db578063c87b56dd1461030b578063e75722301461033b578063e985e9c51461036b578063f2d568531461039b57610116565b806395d89b4114610269578063a0712d6814610287578063a22cb465146102a3578063b88d4fde146102bf57610116565b806323b872dd116100e957806323b872dd146101b557806342842e0e146101d15780636352211e146101ed5780637016f6151461021d57806370a082311461023957610116565b806301ffc9a71461011b57806306fdde031461014b578063081812fc14610169578063095ea7b314610199575b600080fd5b61013560048036038101906101309190611e24565b6103b7565b6040516101429190611e6c565b60405180910390f35b610153610499565b6040516101609190611f17565b60405180910390f35b610183600480360381019061017e9190611f6f565b61052b565b6040516101909190611fdd565b60405180910390f35b6101b360048036038101906101ae9190612024565b610571565b005b6101cf60048036038101906101ca9190612064565b610688565b005b6101eb60048036038101906101e69190612064565b6106e8565b005b61020760048036038101906102029190611f6f565b610708565b6040516102149190611fdd565b60405180910390f35b610237600480360381019061023291906120b7565b61078e565b005b610253600480360381019061024e91906120f7565b610865565b6040516102609190612133565b60405180910390f35b61027161091c565b60405161027e9190611f17565b60405180910390f35b6102a1600480360381019061029c9190611f6f565b6109ae565b005b6102bd60048036038101906102b8919061217a565b610bd7565b005b6102d960048036038101906102d491906122ef565b610bed565b005b6102f560048036038101906102f09190611f6f565b610c4f565b60405161030291906123bf565b60405180910390f35b61032560048036038101906103209190611f6f565b610cdc565b6040516103329190611f17565b60405180910390f35b61035560048036038101906103509190611f6f565b610d44565b6040516103629190612133565b60405180910390f35b610385600480360381019061038091906123da565b610d61565b6040516103929190611e6c565b60405180910390f35b6103b560048036038101906103b09190611f6f565b610df5565b005b60007f80ac58cd000000000000000000000000000000000000000000000000000000007bffffffffffffffffffffffffffffffffffffffffffffffffffffffff1916827bffffffffffffffffffffffffffffffffffffffffffffffffffffffff1916148061048257507f5b5e139f000000000000000000000000000000000000000000000000000000007bffffffffffffffffffffffffffffffffffffffffffffffffffffffff1916827bffffffffffffffffffffffffffffffffffffffffffffffffffffffff1916145b80610492575061049182610eff565b5b9050919050565b6060600080546104a890612449565b80601f01602080910402602001604051908101604052809291908181526020018280546104d490612449565b80156105215780601f106104f657610100808354040283529160200191610521565b820191906000526020600020905b81548152906001019060200180831161050457829003601f168201915b5050505050905090565b600061053682610f69565b6004600083815260200190815260200160002060009054906101000a900473ffffffffffffffffffffffffffffffffffffffff169050919050565b600061057c82610708565b90508073ffffffffffffffffffffffffffffffffffffffff168373ffffffffffffffffffffffffffffffffffffffff16036105ec576040517f08c379a00000000000000000000000000000000000000000000000000000000081526004016105e3906124ec565b60405180910390fd5b8073ffffffffffffffffffffffffffffffffffffffff1661060b610fb4565b73ffffffffffffffffffffffffffffffffffffffff16148061063a575061063981610634610fb4565b610d61565b5b610679576040517f08c379a00000000000000000000000000000000000000000000000000000000081526004016106709061257e565b60405180910390fd5b6106838383610fbc565b505050565b610699610693610fb4565b82611075565b6106d8576040517f08c379a00000000000000000000000000000000000000000000000000000000081526004016106cf90612610565b60405180910390fd5b6106e383838361110a565b505050565b61070383838360405180602001604052806000815250610bed565b505050565b60008061071483611403565b9050600073ffffffffffffffffffffffffffffffffffffffff168173ffffffffffffffffffffffffffffffffffffffff1603610785576040517f08c379a000000000000000000000000000000000000000000000000000000000815260040161077c9061267c565b60405180910390fd5b80915050919050565b813373ffffffffffffffffffffffffffffffffffffffff166107af82610708565b73ffffffffffffffffffffffffffffffffffffffff1614610805576040517f08c379a00000000000000000000000000000000000000000000000000000000081526004016107fc906126e8565b60405180910390fd5b60008211610848576040517f08c379a000000000000000000000000000000000000000000000000000000000815260040161083f90612754565b60405180910390fd5b816008600085815260200190815260200160002081905550505050565b60008073ffffffffffffffffffffffffffffffffffffffff168273ffffffffffffffffffffffffffffffffffffffff16036108d5576040517f08c379a00000000000000000000000000000000000000000000000000000000081526004016108cc906127e6565b60405180910390fd5b600360008373ffffffffffffffffffffffffffffffffffffffff1673ffffffffffffffffffffffffffffffffffffffff168152602001908152602001600020549050919050565b60606001805461092b90612449565b80601f016020809104026020016040519081016040528092919081815260200182805461095790612449565b80156109a45780601f10610979576101008083540402835291602001916109a4565b820191906000526020600020905b81548152906001019060200180831161098757829003601f168201915b5050505050905090565b600033905060008173ffffffffffffffffffffffffffffffffffffffff1663893d20e86040518163ffffffff1660e01b8152600401602060405180830381865afa158015610a00573d6000803e3d6000fd5b505050506040513d601f19601f82011682018060405250810190610a24919061281b565b9050600660009054906101000a900473ffffffffffffffffffffffffffffffffffffffff1673ffffffffffffffffffffffffffffffffffffffff16636f77926b826040518263ffffffff1660e01b8152600401610a819190611fdd565b600060405180830381865afa158015610a9e573d6000803e3d6000fd5b505050506040513d6000823e3d601f19601f82011682018060405250810190610ac79190612a6b565b6000015173ffffffffffffffffffffffffffffffffffffffff163373ffffffffffffffffffffffffffffffffffffffff1614610b38576040517f08c379a0000000000000000000000000000000000000000000000000000000008152600401610b2f90612b00565b60405180910390fd5b610b4481600754611440565b82600960006007548152602001908152602001600020600101819055503360096000600754815260200190815260200160002060000160006101000a81548173ffffffffffffffffffffffffffffffffffffffff021916908373ffffffffffffffffffffffffffffffffffffffff160217905550600160076000828254610bcb9190612b4f565b92505081905550505050565b610be9610be2610fb4565b838361165d565b5050565b610bfe610bf8610fb4565b83611075565b610c3d576040517f08c379a0000000000000000000000000000000000000000000000000000000008152600401610c3490612610565b60405180910390fd5b610c49848484846117c9565b50505050565b610c57611d88565b600960008381526020019081526020016000206040518060400160405290816000820160009054906101000a900473ffffffffffffffffffffffffffffffffffffffff1673ffffffffffffffffffffffffffffffffffffffff1673ffffffffffffffffffffffffffffffffffffffff1681526020016001820154815250509050919050565b6060610ce782610f69565b6000610cf1611825565b90506000815111610d115760405180602001604052806000815250610d3c565b80610d1b8461183c565b604051602001610d2c929190612bbf565b6040516020818303038152906040525b915050919050565b600060086000838152602001908152602001600020549050919050565b6000600560008473ffffffffffffffffffffffffffffffffffffffff1673ffffffffffffffffffffffffffffffffffffffff16815260200190815260200160002060008373ffffffffffffffffffffffffffffffffffffffff1673ffffffffffffffffffffffffffffffffffffffff16815260200190815260200160002060009054906101000a900460ff16905092915050565b803373ffffffffffffffffffffffffffffffffffffffff16610e1682610708565b73ffffffffffffffffffffffffffffffffffffffff1614610e6c576040517f08c379a0000000000000000000000000000000000000000000000000000000008152600401610e63906126e8565b60405180910390fd5b3373ffffffffffffffffffffffffffffffffffffffff16610e8c83610708565b73ffffffffffffffffffffffffffffffffffffffff1614610ee2576040517f08c379a0000000000000000000000000000000000000000000000000000000008152600401610ed9906126e8565b60405180910390fd5b600060086000848152602001908152602001600020819055505050565b60007f01ffc9a7000000000000000000000000000000000000000000000000000000007bffffffffffffffffffffffffffffffffffffffffffffffffffffffff1916827bffffffffffffffffffffffffffffffffffffffffffffffffffffffff1916149050919050565b610f728161190a565b610fb1576040517f08c379a0000000000000000000000000000000000000000000000000000000008152600401610fa89061267c565b60405180910390fd5b50565b600033905090565b816004600083815260200190815260200160002060006101000a81548173ffffffffffffffffffffffffffffffffffffffff021916908373ffffffffffffffffffffffffffffffffffffffff160217905550808273ffffffffffffffffffffffffffffffffffffffff1661102f83610708565b73ffffffffffffffffffffffffffffffffffffffff167f8c5be1e5ebec7d5bd14f71427d1e84f3dd0314c0f7b2291e5b200ac8c7c3b92560405160405180910390a45050565b60008061108183610708565b90508073ffffffffffffffffffffffffffffffffffffffff168473ffffffffffffffffffffffffffffffffffffffff1614806110c357506110c28185610d61565b5b8061110157508373ffffffffffffffffffffffffffffffffffffffff166110e98461052b565b73ffffffffffffffffffffffffffffffffffffffff16145b91505092915050565b8273ffffffffffffffffffffffffffffffffffffffff1661112a82610708565b73ffffffffffffffffffffffffffffffffffffffff1614611180576040517f08c379a000000000000000000000000000000000000000000000000000000000815260040161117790612c55565b60405180910390fd5b600073ffffffffffffffffffffffffffffffffffffffff168273ffffffffffffffffffffffffffffffffffffffff16036111ef576040517f08c379a00000000000000000000000000000000000000000000000000000000081526004016111e690612ce7565b60405180910390fd5b6111fc838383600161194b565b8273ffffffffffffffffffffffffffffffffffffffff1661121c82610708565b73ffffffffffffffffffffffffffffffffffffffff1614611272576040517f08c379a000000000000000000000000000000000000000000000000000000000815260040161126990612c55565b60405180910390fd5b6004600082815260200190815260200160002060006101000a81549073ffffffffffffffffffffffffffffffffffffffff02191690556001600360008573ffffffffffffffffffffffffffffffffffffffff1673ffffffffffffffffffffffffffffffffffffffff168152602001908152602001600020600082825403925050819055506001600360008473ffffffffffffffffffffffffffffffffffffffff1673ffffffffffffffffffffffffffffffffffffffff16815260200190815260200160002060008282540192505081905550816002600083815260200190815260200160002060006101000a81548173ffffffffffffffffffffffffffffffffffffffff021916908373ffffffffffffffffffffffffffffffffffffffff160217905550808273ffffffffffffffffffffffffffffffffffffffff168473ffffffffffffffffffffffffffffffffffffffff167fddf252ad1be2c89b69c2b068fc378daa952ba7f163c4a11628f55a4df523b3ef60405160405180910390a46113fe8383836001611a6c565b505050565b60006002600083815260200190815260200160002060009054906101000a900473ffffffffffffffffffffffffffffffffffffffff169050919050565b600073ffffffffffffffffffffffffffffffffffffffff168273ffffffffffffffffffffffffffffffffffffffff16036114af576040517f08c379a00000000000000000000000000000000000000000000000000000000081526004016114a690612d53565b60405180910390fd5b6114b88161190a565b156114f8576040517f08c379a00000000000000000000000000000000000000000000000000000000081526004016114ef90612dbf565b60405180910390fd5b61150660008383600161194b565b61150f8161190a565b1561154f576040517f08c379a000000000000000000000000000000000000000000000000000000000815260040161154690612dbf565b60405180910390fd5b6001600360008473ffffffffffffffffffffffffffffffffffffffff1673ffffffffffffffffffffffffffffffffffffffff16815260200190815260200160002060008282540192505081905550816002600083815260200190815260200160002060006101000a81548173ffffffffffffffffffffffffffffffffffffffff021916908373ffffffffffffffffffffffffffffffffffffffff160217905550808273ffffffffffffffffffffffffffffffffffffffff16600073ffffffffffffffffffffffffffffffffffffffff167fddf252ad1be2c89b69c2b068fc378daa952ba7f163c4a11628f55a4df523b3ef60405160405180910390a4611659600083836001611a6c565b5050565b8173ffffffffffffffffffffffffffffffffffffffff168373ffffffffffffffffffffffffffffffffffffffff16036116cb576040517f08c379a00000000000000000000000000000000000000000000000000000000081526004016116c290612e2b565b60405180910390fd5b80600560008573ffffffffffffffffffffffffffffffffffffffff1673ffffffffffffffffffffffffffffffffffffffff16815260200190815260200160002060008473ffffffffffffffffffffffffffffffffffffffff1673ffffffffffffffffffffffffffffffffffffffff16815260200190815260200160002060006101000a81548160ff0219169083151502179055508173ffffffffffffffffffffffffffffffffffffffff168373ffffffffffffffffffffffffffffffffffffffff167f17307eab39ab6107e8899845ad3d59bd9653f200f220920489ca2b5937696c31836040516117bc9190611e6c565b60405180910390a3505050565b6117d484848461110a565b6117e084848484611a8b565b61181f576040517f08c379a000000000000000000000000000000000000000000000000000000000815260040161181690612ebd565b60405180910390fd5b50505050565b606060405180602001604052806000815250905090565b60606000600161184b84611c12565b01905060008167ffffffffffffffff81111561186a576118696121c4565b5b6040519080825280601f01601f19166020018201604052801561189c5781602001600182028036833780820191505090505b509050600082602001820190505b6001156118ff578080600190039150507f3031323334353637383961626364656600000000000000000000000000000000600a86061a8153600a85816118f3576118f2612edd565b5b049450600085036118aa575b819350505050919050565b60008073ffffffffffffffffffffffffffffffffffffffff1661192c83611403565b73ffffffffffffffffffffffffffffffffffffffff1614159050919050565b600073ffffffffffffffffffffffffffffffffffffffff168373ffffffffffffffffffffffffffffffffffffffff161480611a275750600660009054906101000a900473ffffffffffffffffffffffffffffffffffffffff1673ffffffffffffffffffffffffffffffffffffffff16636f77926b846040518263ffffffff1660e01b81526004016119dc9190611fdd565b600060405180830381865afa1580156119f9573d6000803e3d6000fd5b505050506040513d6000823e3d601f19601f82011682018060405250810190611a229190612a6b565b608001515b611a66576040517f08c379a0000000000000000000000000000000000000000000000000000000008152600401611a5d90612f7e565b60405180910390fd5b50505050565b6000600860008481526020019081526020016000208190555050505050565b6000611aac8473ffffffffffffffffffffffffffffffffffffffff16611d65565b15611c05578373ffffffffffffffffffffffffffffffffffffffff1663150b7a02611ad5610fb4565b8786866040518563ffffffff1660e01b8152600401611af79493929190612ff3565b6020604051808303816000875af1925050508015611b3357506040513d601f19601f82011682018060405250810190611b309190613054565b60015b611bb5573d8060008114611b63576040519150601f19603f3d011682016040523d82523d6000602084013e611b68565b606091505b506000815103611bad576040517f08c379a0000000000000000000000000000000000000000000000000000000008152600401611ba490612ebd565b60405180910390fd5b805181602001fd5b63150b7a0260e01b7bffffffffffffffffffffffffffffffffffffffffffffffffffffffff1916817bffffffffffffffffffffffffffffffffffffffffffffffffffffffff191614915050611c0a565b600190505b949350505050565b600080600090507a184f03e93ff9f4daa797ed6e38ed64bf6a1f0100000000000000008310611c70577a184f03e93ff9f4daa797ed6e38ed64bf6a1f0100000000000000008381611c6657611c65612edd565b5b0492506040810190505b6d04ee2d6d415b85acef81000000008310611cad576d04ee2d6d415b85acef81000000008381611ca357611ca2612edd565b5b0492506020810190505b662386f26fc100008310611cdc57662386f26fc100008381611cd257611cd1612edd565b5b0492506010810190505b6305f5e1008310611d05576305f5e1008381611cfb57611cfa612edd565b5b0492506008810190505b6127108310611d2a576127108381611d2057611d1f612edd565b5b0492506004810190505b60648310611d4d5760648381611d4357611d42612edd565b5b0492506002810190505b600a8310611d5c576001810190505b80915050919050565b6000808273ffffffffffffffffffffffffffffffffffffffff163b119050919050565b6040518060400160405280600073ffffffffffffffffffffffffffffffffffffffff168152602001600081525090565b6000604051905090565b600080fd5b600080fd5b60007fffffffff0000000000000000000000000000000000000000000000000000000082169050919050565b611e0181611dcc565b8114611e0c57600080fd5b50565b600081359050611e1e81611df8565b92915050565b600060208284031215611e3a57611e39611dc2565b5b6000611e4884828501611e0f565b91505092915050565b60008115159050919050565b611e6681611e51565b82525050565b6000602082019050611e816000830184611e5d565b92915050565b600081519050919050565b600082825260208201905092915050565b60005b83811015611ec1578082015181840152602081019050611ea6565b60008484015250505050565b6000601f19601f8301169050919050565b6000611ee982611e87565b611ef38185611e92565b9350611f03818560208601611ea3565b611f0c81611ecd565b840191505092915050565b60006020820190508181036000830152611f318184611ede565b905092915050565b6000819050919050565b611f4c81611f39565b8114611f5757600080fd5b50565b600081359050611f6981611f43565b92915050565b600060208284031215611f8557611f84611dc2565b5b6000611f9384828501611f5a565b91505092915050565b600073ffffffffffffffffffffffffffffffffffffffff82169050919050565b6000611fc782611f9c565b9050919050565b611fd781611fbc565b82525050565b6000602082019050611ff26000830184611fce565b92915050565b61200181611fbc565b811461200c57600080fd5b50565b60008135905061201e81611ff8565b92915050565b6000806040838503121561203b5761203a611dc2565b5b60006120498582860161200f565b925050602061205a85828601611f5a565b9150509250929050565b60008060006060848603121561207d5761207c611dc2565b5b600061208b8682870161200f565b935050602061209c8682870161200f565b92505060406120ad86828701611f5a565b9150509250925092565b600080604083850312156120ce576120cd611dc2565b5b60006120dc85828601611f5a565b92505060206120ed85828601611f5a565b9150509250929050565b60006020828403121561210d5761210c611dc2565b5b600061211b8482850161200f565b91505092915050565b61212d81611f39565b82525050565b60006020820190506121486000830184612124565b92915050565b61215781611e51565b811461216257600080fd5b50565b6000813590506121748161214e565b92915050565b6000806040838503121561219157612190611dc2565b5b600061219f8582860161200f565b92505060206121b085828601612165565b9150509250929050565b600080fd5b600080fd5b7f4e487b7100000000000000000000000000000000000000000000000000000000600052604160045260246000fd5b6121fc82611ecd565b810181811067ffffffffffffffff8211171561221b5761221a6121c4565b5b80604052505050565b600061222e611db8565b905061223a82826121f3565b919050565b600067ffffffffffffffff82111561225a576122596121c4565b5b61226382611ecd565b9050602081019050919050565b82818337600083830152505050565b600061229261228d8461223f565b612224565b9050828152602081018484840111156122ae576122ad6121bf565b5b6122b9848285612270565b509392505050565b600082601f8301126122d6576122d56121ba565b5b81356122e684826020860161227f565b91505092915050565b6000806000806080858703121561230957612308611dc2565b5b60006123178782880161200f565b94505060206123288782880161200f565b935050604061233987828801611f5a565b925050606085013567ffffffffffffffff81111561235a57612359611dc7565b5b612366878288016122c1565b91505092959194509250565b61237b81611fbc565b82525050565b61238a81611f39565b82525050565b6040820160008201516123a66000850182612372565b5060208201516123b96020850182612381565b50505050565b60006040820190506123d46000830184612390565b92915050565b600080604083850312156123f1576123f0611dc2565b5b60006123ff8582860161200f565b92505060206124108582860161200f565b9150509250929050565b7f4e487b7100000000000000000000000000000000000000000000000000000000600052602260045260246000fd5b6000600282049050600182168061246157607f821691505b6020821081036124745761247361241a565b5b50919050565b7f4552433732313a20617070726f76616c20746f2063757272656e74206f776e6560008201527f7200000000000000000000000000000000000000000000000000000000000000602082015250565b60006124d6602183611e92565b91506124e18261247a565b604082019050919050565b60006020820190508181036000830152612505816124c9565b9050919050565b7f4552433732313a20617070726f76652063616c6c6572206973206e6f7420746f60008201527f6b656e206f776e6572206f7220617070726f76656420666f7220616c6c000000602082015250565b6000612568603d83611e92565b91506125738261250c565b604082019050919050565b600060208201905081810360008301526125978161255b565b9050919050565b7f4552433732313a2063616c6c6572206973206e6f7420746f6b656e206f776e6560008201527f72206f7220617070726f76656400000000000000000000000000000000000000602082015250565b60006125fa602d83611e92565b91506126058261259e565b604082019050919050565b60006020820190508181036000830152612629816125ed565b9050919050565b7f4552433732313a20696e76616c696420746f6b656e2049440000000000000000600082015250565b6000612666601883611e92565b915061267182612630565b602082019050919050565b6000602082019050818103600083015261269581612659565b9050919050565b7f43616c6c6572206973206e6f74206f776e657200000000000000000000000000600082015250565b60006126d2601383611e92565b91506126dd8261269c565b602082019050919050565b60006020820190508181036000830152612701816126c5565b9050919050565b7f5072696365206d7573742062652067726561746572207468616e203000000000600082015250565b600061273e601c83611e92565b915061274982612708565b602082019050919050565b6000602082019050818103600083015261276d81612731565b9050919050565b7f4552433732313a2061646472657373207a65726f206973206e6f74206120766160008201527f6c6964206f776e65720000000000000000000000000000000000000000000000602082015250565b60006127d0602983611e92565b91506127db82612774565b604082019050919050565b600060208201905081810360008301526127ff816127c3565b9050919050565b60008151905061281581611ff8565b92915050565b60006020828403121561283157612830611dc2565b5b600061283f84828501612806565b91505092915050565b600080fd5b600080fd5b600061285d82611fbc565b9050919050565b61286d81612852565b811461287857600080fd5b50565b60008151905061288a81612864565b92915050565b600067ffffffffffffffff8211156128ab576128aa6121c4565b5b6128b482611ecd565b9050602081019050919050565b60006128d46128cf84612890565b612224565b9050828152602081018484840111156128f0576128ef6121bf565b5b6128fb848285611ea3565b509392505050565b600082601f830112612918576129176121ba565b5b81516129288482602086016128c1565b91505092915050565b6002811061293e57600080fd5b50565b60008151905061295081612931565b92915050565b60007fffffffffffffffffffffffffffff00000000000000000000000000000000000082169050919050565b61298b81612956565b811461299657600080fd5b50565b6000815190506129a881612982565b92915050565b6000815190506129bd8161214e565b92915050565b600060a082840312156129d9576129d8612848565b5b6129e360a0612224565b905060006129f38482850161287b565b600083015250602082015167ffffffffffffffff811115612a1757612a1661284d565b5b612a2384828501612903565b6020830152506040612a3784828501612941565b6040830152506060612a4b84828501612999565b6060830152506080612a5f848285016129ae565b60808301525092915050565b600060208284031215612a8157612a80611dc2565b5b600082015167ffffffffffffffff811115612a9f57612a9e611dc7565b5b612aab848285016129c3565b91505092915050565b7f43616c6c6572206973206e6f7420616c6c6f77656420746f206d696e74000000600082015250565b6000612aea601d83611e92565b9150612af582612ab4565b602082019050919050565b60006020820190508181036000830152612b1981612add565b9050919050565b7f4e487b7100000000000000000000000000000000000000000000000000000000600052601160045260246000fd5b6000612b5a82611f39565b9150612b6583611f39565b9250828201905080821115612b7d57612b7c612b20565b5b92915050565b600081905092915050565b6000612b9982611e87565b612ba38185612b83565b9350612bb3818560208601611ea3565b80840191505092915050565b6000612bcb8285612b8e565b9150612bd78284612b8e565b91508190509392505050565b7f4552433732313a207472616e736665722066726f6d20696e636f72726563742060008201527f6f776e6572000000000000000000000000000000000000000000000000000000602082015250565b6000612c3f602583611e92565b9150612c4a82612be3565b604082019050919050565b60006020820190508181036000830152612c6e81612c32565b9050919050565b7f4552433732313a207472616e7366657220746f20746865207a65726f2061646460008201527f7265737300000000000000000000000000000000000000000000000000000000602082015250565b6000612cd1602483611e92565b9150612cdc82612c75565b604082019050919050565b60006020820190508181036000830152612d0081612cc4565b9050919050565b7f4552433732313a206d696e7420746f20746865207a65726f2061646472657373600082015250565b6000612d3d602083611e92565b9150612d4882612d07565b602082019050919050565b60006020820190508181036000830152612d6c81612d30565b9050919050565b7f4552433732313a20746f6b656e20616c7265616479206d696e74656400000000600082015250565b6000612da9601c83611e92565b9150612db482612d73565b602082019050919050565b60006020820190508181036000830152612dd881612d9c565b9050919050565b7f4552433732313a20617070726f766520746f2063616c6c657200000000000000600082015250565b6000612e15601983611e92565b9150612e2082612ddf565b602082019050919050565b60006020820190508181036000830152612e4481612e08565b9050919050565b7f4552433732313a207472616e7366657220746f206e6f6e20455243373231526560008201527f63656976657220696d706c656d656e7465720000000000000000000000000000602082015250565b6000612ea7603283611e92565b9150612eb282612e4b565b604082019050919050565b60006020820190508181036000830152612ed681612e9a565b9050919050565b7f4e487b7100000000000000000000000000000000000000000000000000000000600052601260045260246000fd5b7f5265636569766572206d7573742062652061205368757474657270726f6f662060008201527f7573657200000000000000000000000000000000000000000000000000000000602082015250565b6000612f68602483611e92565b9150612f7382612f0c565b604082019050919050565b60006020820190508181036000830152612f9781612f5b565b9050919050565b600081519050919050565b600082825260208201905092915050565b6000612fc582612f9e565b612fcf8185612fa9565b9350612fdf818560208601611ea3565b612fe881611ecd565b840191505092915050565b60006080820190506130086000830187611fce565b6130156020830186611fce565b6130226040830185612124565b81810360608301526130348184612fba565b905095945050505050565b60008151905061304e81611df8565b92915050565b60006020828403121561306a57613069611dc2565b5b60006130788482850161303f565b9150509291505056fea2646970667358221220560afc8734fa2a2f087f6e4a554bec951ce772d1a1f61d81e997ebb1fb064a9464736f6c63430008120033",
  "immutableReferences": {},
  "source": "// SPDX-License-Identifier: MIT\n\npragma solidity >=0.4.22 <0.9.0;\n\nimport \"./PaternitySBT.sol\";\nimport \"./ExclusiveRightsNFT.sol\";\nimport \"../node_modules/@openzeppelin/contracts/utils/Address.sol\";\nimport \"../node_modules/@openzeppelin/contracts/security/ReentrancyGuard.sol\";\n\ncontract ShutterProof is ReentrancyGuard {\n\n    using Address for address;\n\n    enum UserRole {\n        Photographer,\n        Client\n    }\n\n    struct User {\n        PaternitySBT sbt;\n        string name;\n        UserRole role;\n        bytes14 siret;\n        bool registered;\n    }\n\n    mapping(address => User) users;\n    ExclusiveRightsNFT exclusiveRightsNFT;\n\n    event UserRegistered(address, UserRole);\n\n    constructor() {\n        exclusiveRightsNFT = new ExclusiveRightsNFT(this);\n    }\n\n    function register(string calldata _name, bytes14 _siret, UserRole _role) external\n    {\n        require(!msg.sender.isContract(), \"Contract cannot be registered\");\n\n        User memory user = users[msg.sender];\n\n        require(!user.registered, 'User is already registered');\n        require(keccak256(bytes(_name)) != keccak256(bytes(\"\")), \"Name cannot be empty\");\n        require(_siret.length > 0, \"SIRET cannot be empty\");\n        for(uint i = 0; i < 14; i++) {\n            require(_siret[i] >= '0' && _siret[i] <= '9', \"SIRET is not well formed\");\n        }\n\n        users[msg.sender].name = _name;\n        users[msg.sender].siret = _siret;\n        users[msg.sender].role = _role;\n        users[msg.sender].registered = true;\n\n        if (_role == UserRole.Photographer) {\n            users[msg.sender].sbt = new PaternitySBT(msg.sender, exclusiveRightsNFT);\n        }\n    }\n\n    function getUser() view external returns (User memory)\n    {\n        return users[msg.sender];\n    }\n\n    function getUser(address _address) view external returns (User memory)\n    {\n        return users[_address];\n    }\n\n    function isRegistered() view external returns (bool)\n    {\n        return users[msg.sender].registered;\n    }\n\n    function getRole() view external returns (UserRole)\n    {\n        require(users[msg.sender].registered, \"User is not registered\");\n\n        return users[msg.sender].role;\n    }\n\n    function getPaternitySBT(address _user) view external returns(PaternitySBT)\n    {\n        require(address(users[_user].sbt) != address(0), \"Use has no SBT contract\");\n\n        return users[_user].sbt;\n    }\n\n    function buyExclusiveRights(uint256 tokenId) nonReentrant payable external\n    {\n        uint price = exclusiveRightsNFT.getPrice(tokenId);\n        require(price > 0, \"Photography is not for sale\");\n        require(msg.value >= price, \"Insufficient payment\");\n\n        address seller = exclusiveRightsNFT.ownerOf(tokenId);\n        exclusiveRightsNFT.safeTransferFrom(seller, msg.sender, tokenId);\n\n        (bool success1, ) = seller.call{value: msg.value}(\"\");\n        require(success1, \"Transfer to seller failed\");\n\n        uint256 refund = msg.value - price;\n        if (refund > 0) {\n            (bool success2, ) = msg.sender.call{value: refund}(\"\");\n            require(success2, \"Refund to buyer failed\");\n        }\n    }\n\n    function getExclusiveRightsNFT() view external returns(ExclusiveRightsNFT)\n    {\n        return exclusiveRightsNFT;\n    }\n}\n",
  "sourcePath": "/Users/a.saintvanne/Desktop/BC/shutter-proof/truffle/contracts/ShutterProof.sol",
  "compiler": {
    "name": "solc",
    "version": "0.8.18+commit.87f61d96.Emscripten.clang"
  },
  "schemaVersion": "3.4.12",
  "updatedAt": "2023-04-06T21:03:44.003Z",
  "networkType": "ethereum",
  "devdoc": {
    "kind": "dev",
    "methods": {},
    "version": 1
  },
  "userdoc": {
    "kind": "user",
    "methods": {},
    "version": 1
  }
}