{
  "contractName": "ShutterProof",
  "abi": [
    {
      "inputs": [],
      "stateMutability": "nonpayable",
      "type": "constructor"
    },
    {
      "anonymous": false,
      "inputs": [
        {
          "indexed": false,
          "internalType": "address",
          "name": "userAdress",
          "type": "address"
        },
        {
          "indexed": false,
          "internalType": "enum ShutterProof.UserRole",
          "name": "role",
          "type": "uint8"
        }
      ],
      "name": "UserRegistered",
      "type": "event"
    },
    {
      "inputs": [
        {
          "internalType": "string",
          "name": "_name",
          "type": "string"
        },
        {
          "internalType": "bytes14",
          "name": "_siret",
          "type": "bytes14"
        },
        {
          "internalType": "enum ShutterProof.UserRole",
          "name": "_role",
          "type": "uint8"
        }
      ],
      "name": "register",
      "outputs": [],
      "stateMutability": "nonpayable",
      "type": "function"
    },
    {
      "inputs": [
        {
          "internalType": "address",
          "name": "_address",
          "type": "address"
        }
      ],
      "name": "getUser",
      "outputs": [
        {
          "components": [
            {
              "internalType": "contract PaternitySBT",
              "name": "sbt",
              "type": "address"
            },
            {
              "internalType": "string",
              "name": "name",
              "type": "string"
            },
            {
              "internalType": "enum ShutterProof.UserRole",
              "name": "role",
              "type": "uint8"
            },
            {
              "internalType": "bytes14",
              "name": "siret",
              "type": "bytes14"
            },
            {
              "internalType": "bool",
              "name": "registered",
              "type": "bool"
            }
          ],
          "internalType": "struct ShutterProof.User",
          "name": "",
          "type": "tuple"
        }
      ],
      "stateMutability": "view",
      "type": "function",
      "constant": true
    },
    {
      "inputs": [
        {
          "internalType": "address",
          "name": "_address",
          "type": "address"
        }
      ],
      "name": "getPaternitySBT",
      "outputs": [
        {
          "internalType": "contract PaternitySBT",
          "name": "",
          "type": "address"
        }
      ],
      "stateMutability": "view",
      "type": "function",
      "constant": true
    },
    {
      "inputs": [
        {
          "internalType": "uint256",
          "name": "tokenId",
          "type": "uint256"
        }
      ],
      "name": "buyExclusiveRights",
      "outputs": [],
      "stateMutability": "payable",
      "type": "function",
      "payable": true
    },
    {
      "inputs": [],
      "name": "getExclusiveRightsNFT",
      "outputs": [
        {
          "internalType": "contract ExclusiveRightsNFT",
          "name": "",
          "type": "address"
        }
      ],
      "stateMutability": "view",
      "type": "function",
      "constant": true
    }
  ],
  "bytecode": "0x60806040523480156200001157600080fd5b50600160008190555030604051620000299062000099565b62000035919062000132565b604051809103906000f08015801562000052573d6000803e3d6000fd5b50600260006101000a81548173ffffffffffffffffffffffffffffffffffffffff021916908373ffffffffffffffffffffffffffffffffffffffff1602179055506200014f565b6135738062002f6c83390190565b600073ffffffffffffffffffffffffffffffffffffffff82169050919050565b6000819050919050565b6000620000f2620000ec620000e684620000a7565b620000c7565b620000a7565b9050919050565b60006200010682620000d1565b9050919050565b60006200011a82620000f9565b9050919050565b6200012c816200010d565b82525050565b600060208201905062000149600083018462000121565b92915050565b612e0d806200015f6000396000f3fe608060405260043610620000505760003560e01c80634afe99ad14620000555780635049b90414620000995780636f77926b14620000c957806392736077146200010d578063a6280cd6146200012d575b600080fd5b3480156200006257600080fd5b506200008160048036038101906200007b91906200113b565b6200015b565b604051620000909190620011d8565b60405180910390f35b348015620000a657600080fd5b50620000b16200029a565b604051620000c091906200121a565b60405180910390f35b348015620000d657600080fd5b50620000f56004803603810190620000ef91906200113b565b620002c4565b6040516200010491906200143c565b60405180910390f35b6200012b60048036038101906200012591906200149b565b620004ac565b005b3480156200013a57600080fd5b5062000159600480360381019062000153919062001594565b62000948565b005b60008073ffffffffffffffffffffffffffffffffffffffff16600160008473ffffffffffffffffffffffffffffffffffffffff1673ffffffffffffffffffffffffffffffffffffffff16815260200190815260200160002060000160009054906101000a900473ffffffffffffffffffffffffffffffffffffffff1673ffffffffffffffffffffffffffffffffffffffff160362000230576040517f08c379a000000000000000000000000000000000000000000000000000000000815260040162000227906200169b565b60405180910390fd5b600160008373ffffffffffffffffffffffffffffffffffffffff1673ffffffffffffffffffffffffffffffffffffffff16815260200190815260200160002060000160009054906101000a900473ffffffffffffffffffffffffffffffffffffffff169050919050565b6000600260009054906101000a900473ffffffffffffffffffffffffffffffffffffffff16905090565b620002ce6200104d565b600160008373ffffffffffffffffffffffffffffffffffffffff1673ffffffffffffffffffffffffffffffffffffffff1681526020019081526020016000206040518060a00160405290816000820160009054906101000a900473ffffffffffffffffffffffffffffffffffffffff1673ffffffffffffffffffffffffffffffffffffffff1673ffffffffffffffffffffffffffffffffffffffff1681526020016001820180546200038090620016ec565b80601f0160208091040260200160405190810160405280929190818152602001828054620003ae90620016ec565b8015620003ff5780601f10620003d357610100808354040283529160200191620003ff565b820191906000526020600020905b815481529060010190602001808311620003e157829003601f168201915b505050505081526020016002820160009054906101000a900460ff16600181111562000430576200042f620012e2565b5b6001811115620004455762000444620012e2565b5b81526020016002820160019054906101000a900460901b71ffffffffffffffffffffffffffffffffffff191671ffffffffffffffffffffffffffffffffffff1916815260200160028201600f9054906101000a900460ff1615151515815250509050919050565b620004b662000ff1565b600160003373ffffffffffffffffffffffffffffffffffffffff1673ffffffffffffffffffffffffffffffffffffffff168152602001908152602001600020600201600f9054906101000a900460ff1662000548576040517f08c379a00000000000000000000000000000000000000000000000000000000081526004016200053f9062001771565b60405180910390fd5b6000600260009054906101000a900473ffffffffffffffffffffffffffffffffffffffff1673ffffffffffffffffffffffffffffffffffffffff1663e7572230836040518263ffffffff1660e01b8152600401620005a79190620017a4565b602060405180830381865afa158015620005c5573d6000803e3d6000fd5b505050506040513d601f19601f82011682018060405250810190620005eb9190620017d8565b90506000811162000633576040517f08c379a00000000000000000000000000000000000000000000000000000000081526004016200062a906200185a565b60405180910390fd5b8034101562000679576040517f08c379a00000000000000000000000000000000000000000000000000000000081526004016200067090620018cc565b60405180910390fd5b6000600260009054906101000a900473ffffffffffffffffffffffffffffffffffffffff1673ffffffffffffffffffffffffffffffffffffffff16636352211e846040518263ffffffff1660e01b8152600401620006d89190620017a4565b602060405180830381865afa158015620006f6573d6000803e3d6000fd5b505050506040513d601f19601f820116820180604052508101906200071c919062001905565b9050600260009054906101000a900473ffffffffffffffffffffffffffffffffffffffff1673ffffffffffffffffffffffffffffffffffffffff166342842e0e8233866040518463ffffffff1660e01b81526004016200077f9392919062001948565b600060405180830381600087803b1580156200079a57600080fd5b505af1158015620007af573d6000803e3d6000fd5b5050505060008173ffffffffffffffffffffffffffffffffffffffff1683604051620007db90620019ba565b60006040518083038185875af1925050503d80600081146200081a576040519150601f19603f3d011682016040523d82523d6000602084013e6200081f565b606091505b505090508062000866576040517f08c379a00000000000000000000000000000000000000000000000000000000081526004016200085d9062001a21565b60405180910390fd5b6000833462000876919062001a72565b90506000811115620009375760003373ffffffffffffffffffffffffffffffffffffffff1682604051620008aa90620019ba565b60006040518083038185875af1925050503d8060008114620008e9576040519150601f19603f3d011682016040523d82523d6000602084013e620008ee565b606091505b505090508062000935576040517f08c379a00000000000000000000000000000000000000000000000000000000081526004016200092c9062001afd565b60405180910390fd5b505b505050506200094562001043565b50565b6000600160003373ffffffffffffffffffffffffffffffffffffffff1673ffffffffffffffffffffffffffffffffffffffff1681526020019081526020016000206040518060a00160405290816000820160009054906101000a900473ffffffffffffffffffffffffffffffffffffffff1673ffffffffffffffffffffffffffffffffffffffff1673ffffffffffffffffffffffffffffffffffffffff168152602001600182018054620009fc90620016ec565b80601f016020809104026020016040519081016040528092919081815260200182805462000a2a90620016ec565b801562000a7b5780601f1062000a4f5761010080835404028352916020019162000a7b565b820191906000526020600020905b81548152906001019060200180831162000a5d57829003601f168201915b505050505081526020016002820160009054906101000a900460ff16600181111562000aac5762000aab620012e2565b5b600181111562000ac15762000ac0620012e2565b5b81526020016002820160019054906101000a900460901b71ffffffffffffffffffffffffffffffffffff191671ffffffffffffffffffffffffffffffffffff1916815260200160028201600f9054906101000a900460ff161515151581525050905080608001511562000b6b576040517f08c379a000000000000000000000000000000000000000000000000000000000815260040162000b629062001b6f565b60405180910390fd5b6040518060200160405280600081525080519060200120858560405162000b9492919062001bc9565b60405180910390200362000bdf576040517f08c379a000000000000000000000000000000000000000000000000000000000815260040162000bd69062001c34565b60405180910390fd5b6000600e60ff161162000c29576040517f08c379a000000000000000000000000000000000000000000000000000000000815260040162000c209062001ca6565b60405180910390fd5b60005b600e81101562000d55577f30000000000000000000000000000000000000000000000000000000000000008482600e811062000c6d5762000c6c62001cc8565b5b1a60f81b7effffffffffffffffffffffffffffffffffffffffffffffffffffffffffffff19161015801562000cfd57507f39000000000000000000000000000000000000000000000000000000000000008482600e811062000cd45762000cd362001cc8565b5b1a60f81b7effffffffffffffffffffffffffffffffffffffffffffffffffffffffffffff191611155b62000d3f576040517f08c379a000000000000000000000000000000000000000000000000000000000815260040162000d369062001d47565b60405180910390fd5b808062000d4c9062001d69565b91505062000c2c565b508484600160003373ffffffffffffffffffffffffffffffffffffffff1673ffffffffffffffffffffffffffffffffffffffff168152602001908152602001600020600101918262000da992919062001fb8565b5082600160003373ffffffffffffffffffffffffffffffffffffffff1673ffffffffffffffffffffffffffffffffffffffff16815260200190815260200160002060020160016101000a8154816dffffffffffffffffffffffffffff021916908360901c021790555081600160003373ffffffffffffffffffffffffffffffffffffffff1673ffffffffffffffffffffffffffffffffffffffff16815260200190815260200160002060020160006101000a81548160ff0219169083600181111562000e7a5762000e79620012e2565b5b021790555060018060003373ffffffffffffffffffffffffffffffffffffffff1673ffffffffffffffffffffffffffffffffffffffff168152602001908152602001600020600201600f6101000a81548160ff0219169083151502179055506000600181111562000ef05762000eef620012e2565b5b82600181111562000f065762000f05620012e2565b5b0362000fea5733600260009054906101000a900473ffffffffffffffffffffffffffffffffffffffff1660405162000f3e90620010be565b62000f4b9291906200209d565b604051809103906000f08015801562000f68573d6000803e3d6000fd5b50600160003373ffffffffffffffffffffffffffffffffffffffff1673ffffffffffffffffffffffffffffffffffffffff16815260200190815260200160002060000160006101000a81548173ffffffffffffffffffffffffffffffffffffffff021916908373ffffffffffffffffffffffffffffffffffffffff1602179055505b5050505050565b60026000540362001039576040517f08c379a000000000000000000000000000000000000000000000000000000000815260040162001030906200211a565b60405180910390fd5b6002600081905550565b6001600081905550565b6040518060a00160405280600073ffffffffffffffffffffffffffffffffffffffff1681526020016060815260200160006001811115620010935762001092620012e2565b5b8152602001600071ffffffffffffffffffffffffffffffffffff191681526020016000151581525090565b610c9b806200213d83390190565b600080fd5b600080fd5b600073ffffffffffffffffffffffffffffffffffffffff82169050919050565b60006200110382620010d6565b9050919050565b6200111581620010f6565b81146200112157600080fd5b50565b60008135905062001135816200110a565b92915050565b600060208284031215620011545762001153620010cc565b5b6000620011648482850162001124565b91505092915050565b6000819050919050565b600062001198620011926200118c84620010d6565b6200116d565b620010d6565b9050919050565b6000620011ac8262001177565b9050919050565b6000620011c0826200119f565b9050919050565b620011d281620011b3565b82525050565b6000602082019050620011ef6000830184620011c7565b92915050565b600062001202826200119f565b9050919050565b6200121481620011f5565b82525050565b600060208201905062001231600083018462001209565b92915050565b6200124281620011b3565b82525050565b600081519050919050565b600082825260208201905092915050565b60005b838110156200128457808201518184015260208101905062001267565b60008484015250505050565b6000601f19601f8301169050919050565b6000620012ae8262001248565b620012ba818562001253565b9350620012cc81856020860162001264565b620012d78162001290565b840191505092915050565b7f4e487b7100000000000000000000000000000000000000000000000000000000600052602160045260246000fd5b60028110620013255762001324620012e2565b5b50565b6000819050620013388262001311565b919050565b60006200134a8262001328565b9050919050565b6200135c816200133d565b82525050565b60007fffffffffffffffffffffffffffff00000000000000000000000000000000000082169050919050565b620013998162001362565b82525050565b60008115159050919050565b620013b6816200139f565b82525050565b600060a083016000830151620013d6600086018262001237565b5060208301518482036020860152620013f08282620012a1565b915050604083015162001407604086018262001351565b5060608301516200141c60608601826200138e565b506080830151620014316080860182620013ab565b508091505092915050565b60006020820190508181036000830152620014588184620013bc565b905092915050565b6000819050919050565b620014758162001460565b81146200148157600080fd5b50565b60008135905062001495816200146a565b92915050565b600060208284031215620014b457620014b3620010cc565b5b6000620014c48482850162001484565b91505092915050565b600080fd5b600080fd5b600080fd5b60008083601f840112620014f557620014f4620014cd565b5b8235905067ffffffffffffffff811115620015155762001514620014d2565b5b602083019150836001820283011115620015345762001533620014d7565b5b9250929050565b620015468162001362565b81146200155257600080fd5b50565b60008135905062001566816200153b565b92915050565b600281106200157a57600080fd5b50565b6000813590506200158e816200156c565b92915050565b60008060008060608587031215620015b157620015b0620010cc565b5b600085013567ffffffffffffffff811115620015d257620015d1620010d1565b5b620015e087828801620014dc565b94509450506020620015f58782880162001555565b925050604062001608878288016200157d565b91505092959194509250565b600082825260208201905092915050565b7f5573657220686173206e6f2050617465726e69747953425420636f6e7472616360008201527f7400000000000000000000000000000000000000000000000000000000000000602082015250565b60006200168360218362001614565b9150620016908262001625565b604082019050919050565b60006020820190508181036000830152620016b68162001674565b9050919050565b7f4e487b7100000000000000000000000000000000000000000000000000000000600052602260045260246000fd5b600060028204905060018216806200170557607f821691505b6020821081036200171b576200171a620016bd565b5b50919050565b7f43616c6c206973206e6f74207265676973746572656400000000000000000000600082015250565b60006200175960168362001614565b9150620017668262001721565b602082019050919050565b600060208201905081810360008301526200178c816200174a565b9050919050565b6200179e8162001460565b82525050565b6000602082019050620017bb600083018462001793565b92915050565b600081519050620017d2816200146a565b92915050565b600060208284031215620017f157620017f0620010cc565b5b60006200180184828501620017c1565b91505092915050565b7f50686f746f677261706879206973206e6f7420666f722073616c650000000000600082015250565b600062001842601b8362001614565b91506200184f826200180a565b602082019050919050565b60006020820190508181036000830152620018758162001833565b9050919050565b7f496e73756666696369656e74207061796d656e74000000000000000000000000600082015250565b6000620018b460148362001614565b9150620018c1826200187c565b602082019050919050565b60006020820190508181036000830152620018e781620018a5565b9050919050565b600081519050620018ff816200110a565b92915050565b6000602082840312156200191e576200191d620010cc565b5b60006200192e84828501620018ee565b91505092915050565b6200194281620010f6565b82525050565b60006060820190506200195f600083018662001937565b6200196e602083018562001937565b6200197d604083018462001793565b949350505050565b600081905092915050565b50565b6000620019a260008362001985565b9150620019af8262001990565b600082019050919050565b6000620019c78262001993565b9150819050919050565b7f5472616e7366657220746f2073656c6c6572206661696c656400000000000000600082015250565b600062001a0960198362001614565b915062001a1682620019d1565b602082019050919050565b6000602082019050818103600083015262001a3c81620019fa565b9050919050565b7f4e487b7100000000000000000000000000000000000000000000000000000000600052601160045260246000fd5b600062001a7f8262001460565b915062001a8c8362001460565b925082820390508181111562001aa75762001aa662001a43565b5b92915050565b7f526566756e6420746f206275796572206661696c656400000000000000000000600082015250565b600062001ae560168362001614565b915062001af28262001aad565b602082019050919050565b6000602082019050818103600083015262001b188162001ad6565b9050919050565b7f5573657220697320616c72656164792072656769737465726564000000000000600082015250565b600062001b57601a8362001614565b915062001b648262001b1f565b602082019050919050565b6000602082019050818103600083015262001b8a8162001b48565b9050919050565b82818337600083830152505050565b600062001bae838562001985565b935062001bbd83858462001b91565b82840190509392505050565b600062001bd882848662001ba0565b91508190509392505050565b7f4e616d652063616e6e6f7420626520656d707479000000000000000000000000600082015250565b600062001c1c60148362001614565b915062001c298262001be4565b602082019050919050565b6000602082019050818103600083015262001c4f8162001c0d565b9050919050565b7f53495245542063616e6e6f7420626520656d7074790000000000000000000000600082015250565b600062001c8e60158362001614565b915062001c9b8262001c56565b602082019050919050565b6000602082019050818103600083015262001cc18162001c7f565b9050919050565b7f4e487b7100000000000000000000000000000000000000000000000000000000600052603260045260246000fd5b7f5349524554206973206e6f742077656c6c20666f726d65640000000000000000600082015250565b600062001d2f60188362001614565b915062001d3c8262001cf7565b602082019050919050565b6000602082019050818103600083015262001d628162001d20565b9050919050565b600062001d768262001460565b91507fffffffffffffffffffffffffffffffffffffffffffffffffffffffffffffffff820362001dab5762001daa62001a43565b5b600182019050919050565b600082905092915050565b7f4e487b7100000000000000000000000000000000000000000000000000000000600052604160045260246000fd5b60008190508160005260206000209050919050565b60006020601f8301049050919050565b600082821b905092915050565b60006008830262001e547fffffffffffffffffffffffffffffffffffffffffffffffffffffffffffffffff8262001e15565b62001e60868362001e15565b95508019841693508086168417925050509392505050565b600062001e9962001e9362001e8d8462001460565b6200116d565b62001460565b9050919050565b6000819050919050565b62001eb58362001e78565b62001ecd62001ec48262001ea0565b84845462001e22565b825550505050565b600090565b62001ee462001ed5565b62001ef181848462001eaa565b505050565b5b8181101562001f195762001f0d60008262001eda565b60018101905062001ef7565b5050565b601f82111562001f685762001f328162001df0565b62001f3d8462001e05565b8101602085101562001f4d578190505b62001f6562001f5c8562001e05565b83018262001ef6565b50505b505050565b600082821c905092915050565b600062001f8d6000198460080262001f6d565b1980831691505092915050565b600062001fa8838362001f7a565b9150826002028217905092915050565b62001fc4838362001db6565b67ffffffffffffffff81111562001fe05762001fdf62001dc1565b5b62001fec8254620016ec565b62001ff982828562001f1d565b6000601f8311600181146200202d576000841562002018578287013590505b62002024858262001f9a565b86555062002094565b601f1984166200203d8662001df0565b60005b82811015620020675784890135825560018201915060208501945060208101905062002040565b8683101562002087578489013562002083601f89168262001f7a565b8355505b6001600288020188555050505b50505050505050565b6000604082019050620020b4600083018562001937565b620020c3602083018462001209565b9392505050565b7f5265656e7472616e637947756172643a207265656e7472616e742063616c6c00600082015250565b600062002102601f8362001614565b91506200210f82620020ca565b602082019050919050565b600060208201905081810360008301526200213581620020f3565b905091905056fe60806040523480156200001157600080fd5b5060405162000c9b38038062000c9b83398181016040528101906200003791906200016f565b81600160006101000a81548173ffffffffffffffffffffffffffffffffffffffff021916908373ffffffffffffffffffffffffffffffffffffffff160217905550806000806101000a81548173ffffffffffffffffffffffffffffffffffffffff021916908373ffffffffffffffffffffffffffffffffffffffff1602179055505050620001b6565b600080fd5b600073ffffffffffffffffffffffffffffffffffffffff82169050919050565b6000620000f282620000c5565b9050919050565b6200010481620000e5565b81146200011057600080fd5b50565b6000815190506200012481620000f9565b92915050565b60006200013782620000e5565b9050919050565b62000149816200012a565b81146200015557600080fd5b50565b60008151905062000169816200013e565b92915050565b60008060408385031215620001895762000188620000c0565b5b6000620001998582860162000113565b9250506020620001ac8582860162000158565b9150509250929050565b610ad580620001c66000396000f3fe608060405234801561001057600080fd5b50600436106100575760003560e01c8063893d20e81461005c5780638da5cb5b1461007a578063b69ef8a814610098578063d85d3d27146100b6578063e4b50cb8146100e6575b600080fd5b610064610116565b6040516100719190610438565b60405180910390f35b610082610140565b60405161008f9190610438565b60405180910390f35b6100a0610166565b6040516100ad919061046c565b60405180910390f35b6100d060048036038101906100cb91906104f6565b61016c565b6040516100dd919061046c565b60405180910390f35b61010060048036038101906100fb919061056f565b61030e565b60405161010d919061062c565b60405180910390f35b6000600160009054906101000a900473ffffffffffffffffffffffffffffffffffffffff16905090565b600160009054906101000a900473ffffffffffffffffffffffffffffffffffffffff1681565b60025481565b60003373ffffffffffffffffffffffffffffffffffffffff16600160009054906101000a900473ffffffffffffffffffffffffffffffffffffffff1673ffffffffffffffffffffffffffffffffffffffff16146101fe576040517f08c379a00000000000000000000000000000000000000000000000000000000081526004016101f59061069a565b60405180910390fd5b600060025490508383600360008481526020019081526020016000209182610227929190610900565b5060008054906101000a900473ffffffffffffffffffffffffffffffffffffffff1673ffffffffffffffffffffffffffffffffffffffff1663a0712d68826040518263ffffffff1660e01b8152600401610281919061046c565b600060405180830381600087803b15801561029b57600080fd5b505af11580156102af573d6000803e3d6000fd5b505050506001600260008282546102c691906109ff565b925050819055507f07883703ed0e86588a40d76551c92f8a4b329e3bf19765e0e6749473c1a84665816040516102fc919061046c565b60405180910390a18091505092915050565b60606002548210610354576040517f08c379a000000000000000000000000000000000000000000000000000000000815260040161034b90610a7f565b60405180910390fd5b60036000838152602001908152602001600020805461037290610723565b80601f016020809104026020016040519081016040528092919081815260200182805461039e90610723565b80156103eb5780601f106103c0576101008083540402835291602001916103eb565b820191906000526020600020905b8154815290600101906020018083116103ce57829003601f168201915b50505050509050919050565b600073ffffffffffffffffffffffffffffffffffffffff82169050919050565b6000610422826103f7565b9050919050565b61043281610417565b82525050565b600060208201905061044d6000830184610429565b92915050565b6000819050919050565b61046681610453565b82525050565b6000602082019050610481600083018461045d565b92915050565b600080fd5b600080fd5b600080fd5b600080fd5b600080fd5b60008083601f8401126104b6576104b5610491565b5b8235905067ffffffffffffffff8111156104d3576104d2610496565b5b6020830191508360018202830111156104ef576104ee61049b565b5b9250929050565b6000806020838503121561050d5761050c610487565b5b600083013567ffffffffffffffff81111561052b5761052a61048c565b5b610537858286016104a0565b92509250509250929050565b61054c81610453565b811461055757600080fd5b50565b60008135905061056981610543565b92915050565b60006020828403121561058557610584610487565b5b60006105938482850161055a565b91505092915050565b600081519050919050565b600082825260208201905092915050565b60005b838110156105d65780820151818401526020810190506105bb565b60008484015250505050565b6000601f19601f8301169050919050565b60006105fe8261059c565b61060881856105a7565b93506106188185602086016105b8565b610621816105e2565b840191505092915050565b6000602082019050818103600083015261064681846105f3565b905092915050565b7f4e6f7420616c6c6f77656420746f206d696e7400000000000000000000000000600082015250565b60006106846013836105a7565b915061068f8261064e565b602082019050919050565b600060208201905081810360008301526106b381610677565b9050919050565b600082905092915050565b7f4e487b7100000000000000000000000000000000000000000000000000000000600052604160045260246000fd5b7f4e487b7100000000000000000000000000000000000000000000000000000000600052602260045260246000fd5b6000600282049050600182168061073b57607f821691505b60208210810361074e5761074d6106f4565b5b50919050565b60008190508160005260206000209050919050565b60006020601f8301049050919050565b600082821b905092915050565b6000600883026107b67fffffffffffffffffffffffffffffffffffffffffffffffffffffffffffffffff82610779565b6107c08683610779565b95508019841693508086168417925050509392505050565b6000819050919050565b60006107fd6107f86107f384610453565b6107d8565b610453565b9050919050565b6000819050919050565b610817836107e2565b61082b61082382610804565b848454610786565b825550505050565b600090565b610840610833565b61084b81848461080e565b505050565b5b8181101561086f57610864600082610838565b600181019050610851565b5050565b601f8211156108b45761088581610754565b61088e84610769565b8101602085101561089d578190505b6108b16108a985610769565b830182610850565b50505b505050565b600082821c905092915050565b60006108d7600019846008026108b9565b1980831691505092915050565b60006108f083836108c6565b9150826002028217905092915050565b61090a83836106ba565b67ffffffffffffffff811115610923576109226106c5565b5b61092d8254610723565b610938828285610873565b6000601f8311600181146109675760008415610955578287013590505b61095f85826108e4565b8655506109c7565b601f19841661097586610754565b60005b8281101561099d57848901358255600182019150602085019450602081019050610978565b868310156109ba57848901356109b6601f8916826108c6565b8355505b6001600288020188555050505b50505050505050565b7f4e487b7100000000000000000000000000000000000000000000000000000000600052601160045260246000fd5b6000610a0a82610453565b9150610a1583610453565b9250828201905080821115610a2d57610a2c6109d0565b5b92915050565b7f546f6b656e20646f65736e277420657869737400000000000000000000000000600082015250565b6000610a696013836105a7565b9150610a7482610a33565b602082019050919050565b60006020820190508181036000830152610a9881610a5c565b905091905056fea26469706673582212205bed479f9b0a700e1f286d7435568c5046cd1f3130a8f990b3393190f604e6ca64736f6c63430008120033a264697066735822122082ba870bb35467ef4d88514ffa73ae57375ee3329b574ee7ad5fb261affc8b7064736f6c6343000812003360806040523480156200001157600080fd5b50604051620035733803806200357383398181016040528101906200003791906200018f565b6040518060400160405280601d81526020017f5368757474657250726f6f66204578636c7573697665205269676874730000008152506040518060400160405280600481526020017f53504552000000000000000000000000000000000000000000000000000000008152508160009081620000b491906200043b565b508060019081620000c691906200043b565b50505080600660006101000a81548173ffffffffffffffffffffffffffffffffffffffff021916908373ffffffffffffffffffffffffffffffffffffffff1602179055505062000522565b600080fd5b600073ffffffffffffffffffffffffffffffffffffffff82169050919050565b6000620001438262000116565b9050919050565b6000620001578262000136565b9050919050565b62000169816200014a565b81146200017557600080fd5b50565b60008151905062000189816200015e565b92915050565b600060208284031215620001a857620001a762000111565b5b6000620001b88482850162000178565b91505092915050565b600081519050919050565b7f4e487b7100000000000000000000000000000000000000000000000000000000600052604160045260246000fd5b7f4e487b7100000000000000000000000000000000000000000000000000000000600052602260045260246000fd5b600060028204905060018216806200024357607f821691505b602082108103620002595762000258620001fb565b5b50919050565b60008190508160005260206000209050919050565b60006020601f8301049050919050565b600082821b905092915050565b600060088302620002c37fffffffffffffffffffffffffffffffffffffffffffffffffffffffffffffffff8262000284565b620002cf868362000284565b95508019841693508086168417925050509392505050565b6000819050919050565b6000819050919050565b60006200031c620003166200031084620002e7565b620002f1565b620002e7565b9050919050565b6000819050919050565b6200033883620002fb565b62000350620003478262000323565b84845462000291565b825550505050565b600090565b6200036762000358565b620003748184846200032d565b505050565b5b818110156200039c57620003906000826200035d565b6001810190506200037a565b5050565b601f821115620003eb57620003b5816200025f565b620003c08462000274565b81016020851015620003d0578190505b620003e8620003df8562000274565b83018262000379565b50505b505050565b600082821c905092915050565b60006200041060001984600802620003f0565b1980831691505092915050565b60006200042b8383620003fd565b9150826002028217905092915050565b6200044682620001c1565b67ffffffffffffffff811115620004625762000461620001cc565b5b6200046e82546200022a565b6200047b828285620003a0565b600060209050601f831160018114620004b357600084156200049e578287015190505b620004aa85826200041d565b8655506200051a565b601f198416620004c3866200025f565b60005b82811015620004ed57848901518255600182019150602085019450602081019050620004c6565b868310156200050d578489015162000509601f891682620003fd565b8355505b6001600288020188555050505b505050505050565b61304180620005326000396000f3fe608060405234801561001057600080fd5b50600436106101165760003560e01c806395d89b41116100a2578063b90bb4e911610071578063b90bb4e9146102db578063c87b56dd1461030b578063e75722301461033b578063e985e9c51461036b578063f2d568531461039b57610116565b806395d89b4114610269578063a0712d6814610287578063a22cb465146102a3578063b88d4fde146102bf57610116565b806323b872dd116100e957806323b872dd146101b557806342842e0e146101d15780636352211e146101ed5780637016f6151461021d57806370a082311461023957610116565b806301ffc9a71461011b57806306fdde031461014b578063081812fc14610169578063095ea7b314610199575b600080fd5b61013560048036038101906101309190611dae565b6103b7565b6040516101429190611df6565b60405180910390f35b610153610499565b6040516101609190611ea1565b60405180910390f35b610183600480360381019061017e9190611ef9565b61052b565b6040516101909190611f67565b60405180910390f35b6101b360048036038101906101ae9190611fae565b610571565b005b6101cf60048036038101906101ca9190611fee565b610688565b005b6101eb60048036038101906101e69190611fee565b6106e8565b005b61020760048036038101906102029190611ef9565b610708565b6040516102149190611f67565b60405180910390f35b61023760048036038101906102329190612041565b61078e565b005b610253600480360381019061024e9190612081565b610865565b60405161026091906120bd565b60405180910390f35b61027161091c565b60405161027e9190611ea1565b60405180910390f35b6102a1600480360381019061029c9190611ef9565b6109ae565b005b6102bd60048036038101906102b89190612104565b610bd7565b005b6102d960048036038101906102d49190612279565b610bed565b005b6102f560048036038101906102f09190611ef9565b610c4f565b6040516103029190612349565b60405180910390f35b61032560048036038101906103209190611ef9565b610cdc565b6040516103329190611ea1565b60405180910390f35b61035560048036038101906103509190611ef9565b610d44565b60405161036291906120bd565b60405180910390f35b61038560048036038101906103809190612364565b610d61565b6040516103929190611df6565b60405180910390f35b6103b560048036038101906103b09190611ef9565b610df5565b005b60007f80ac58cd000000000000000000000000000000000000000000000000000000007bffffffffffffffffffffffffffffffffffffffffffffffffffffffff1916827bffffffffffffffffffffffffffffffffffffffffffffffffffffffff1916148061048257507f5b5e139f000000000000000000000000000000000000000000000000000000007bffffffffffffffffffffffffffffffffffffffffffffffffffffffff1916827bffffffffffffffffffffffffffffffffffffffffffffffffffffffff1916145b80610492575061049182610e89565b5b9050919050565b6060600080546104a8906123d3565b80601f01602080910402602001604051908101604052809291908181526020018280546104d4906123d3565b80156105215780601f106104f657610100808354040283529160200191610521565b820191906000526020600020905b81548152906001019060200180831161050457829003601f168201915b5050505050905090565b600061053682610ef3565b6004600083815260200190815260200160002060009054906101000a900473ffffffffffffffffffffffffffffffffffffffff169050919050565b600061057c82610708565b90508073ffffffffffffffffffffffffffffffffffffffff168373ffffffffffffffffffffffffffffffffffffffff16036105ec576040517f08c379a00000000000000000000000000000000000000000000000000000000081526004016105e390612476565b60405180910390fd5b8073ffffffffffffffffffffffffffffffffffffffff1661060b610f3e565b73ffffffffffffffffffffffffffffffffffffffff16148061063a575061063981610634610f3e565b610d61565b5b610679576040517f08c379a000000000000000000000000000000000000000000000000000000000815260040161067090612508565b60405180910390fd5b6106838383610f46565b505050565b610699610693610f3e565b82610fff565b6106d8576040517f08c379a00000000000000000000000000000000000000000000000000000000081526004016106cf9061259a565b60405180910390fd5b6106e3838383611094565b505050565b61070383838360405180602001604052806000815250610bed565b505050565b6000806107148361138d565b9050600073ffffffffffffffffffffffffffffffffffffffff168173ffffffffffffffffffffffffffffffffffffffff1603610785576040517f08c379a000000000000000000000000000000000000000000000000000000000815260040161077c90612606565b60405180910390fd5b80915050919050565b813373ffffffffffffffffffffffffffffffffffffffff166107af82610708565b73ffffffffffffffffffffffffffffffffffffffff1614610805576040517f08c379a00000000000000000000000000000000000000000000000000000000081526004016107fc90612672565b60405180910390fd5b60008211610848576040517f08c379a000000000000000000000000000000000000000000000000000000000815260040161083f906126de565b60405180910390fd5b816008600085815260200190815260200160002081905550505050565b60008073ffffffffffffffffffffffffffffffffffffffff168273ffffffffffffffffffffffffffffffffffffffff16036108d5576040517f08c379a00000000000000000000000000000000000000000000000000000000081526004016108cc90612770565b60405180910390fd5b600360008373ffffffffffffffffffffffffffffffffffffffff1673ffffffffffffffffffffffffffffffffffffffff168152602001908152602001600020549050919050565b60606001805461092b906123d3565b80601f0160208091040260200160405190810160405280929190818152602001828054610957906123d3565b80156109a45780601f10610979576101008083540402835291602001916109a4565b820191906000526020600020905b81548152906001019060200180831161098757829003601f168201915b5050505050905090565b600033905060008173ffffffffffffffffffffffffffffffffffffffff1663893d20e86040518163ffffffff1660e01b8152600401602060405180830381865afa158015610a00573d6000803e3d6000fd5b505050506040513d601f19601f82011682018060405250810190610a2491906127a5565b9050600660009054906101000a900473ffffffffffffffffffffffffffffffffffffffff1673ffffffffffffffffffffffffffffffffffffffff16636f77926b826040518263ffffffff1660e01b8152600401610a819190611f67565b600060405180830381865afa158015610a9e573d6000803e3d6000fd5b505050506040513d6000823e3d601f19601f82011682018060405250810190610ac791906129f5565b6000015173ffffffffffffffffffffffffffffffffffffffff163373ffffffffffffffffffffffffffffffffffffffff1614610b38576040517f08c379a0000000000000000000000000000000000000000000000000000000008152600401610b2f90612a8a565b60405180910390fd5b610b44816007546113ca565b82600960006007548152602001908152602001600020600101819055503360096000600754815260200190815260200160002060000160006101000a81548173ffffffffffffffffffffffffffffffffffffffff021916908373ffffffffffffffffffffffffffffffffffffffff160217905550600160076000828254610bcb9190612ad9565b92505081905550505050565b610be9610be2610f3e565b83836115e7565b5050565b610bfe610bf8610f3e565b83610fff565b610c3d576040517f08c379a0000000000000000000000000000000000000000000000000000000008152600401610c349061259a565b60405180910390fd5b610c4984848484611753565b50505050565b610c57611d12565b600960008381526020019081526020016000206040518060400160405290816000820160009054906101000a900473ffffffffffffffffffffffffffffffffffffffff1673ffffffffffffffffffffffffffffffffffffffff1673ffffffffffffffffffffffffffffffffffffffff1681526020016001820154815250509050919050565b6060610ce782610ef3565b6000610cf16117af565b90506000815111610d115760405180602001604052806000815250610d3c565b80610d1b846117c6565b604051602001610d2c929190612b49565b6040516020818303038152906040525b915050919050565b600060086000838152602001908152602001600020549050919050565b6000600560008473ffffffffffffffffffffffffffffffffffffffff1673ffffffffffffffffffffffffffffffffffffffff16815260200190815260200160002060008373ffffffffffffffffffffffffffffffffffffffff1673ffffffffffffffffffffffffffffffffffffffff16815260200190815260200160002060009054906101000a900460ff16905092915050565b803373ffffffffffffffffffffffffffffffffffffffff16610e1682610708565b73ffffffffffffffffffffffffffffffffffffffff1614610e6c576040517f08c379a0000000000000000000000000000000000000000000000000000000008152600401610e6390612672565b60405180910390fd5b600060086000848152602001908152602001600020819055505050565b60007f01ffc9a7000000000000000000000000000000000000000000000000000000007bffffffffffffffffffffffffffffffffffffffffffffffffffffffff1916827bffffffffffffffffffffffffffffffffffffffffffffffffffffffff1916149050919050565b610efc81611894565b610f3b576040517f08c379a0000000000000000000000000000000000000000000000000000000008152600401610f3290612606565b60405180910390fd5b50565b600033905090565b816004600083815260200190815260200160002060006101000a81548173ffffffffffffffffffffffffffffffffffffffff021916908373ffffffffffffffffffffffffffffffffffffffff160217905550808273ffffffffffffffffffffffffffffffffffffffff16610fb983610708565b73ffffffffffffffffffffffffffffffffffffffff167f8c5be1e5ebec7d5bd14f71427d1e84f3dd0314c0f7b2291e5b200ac8c7c3b92560405160405180910390a45050565b60008061100b83610708565b90508073ffffffffffffffffffffffffffffffffffffffff168473ffffffffffffffffffffffffffffffffffffffff16148061104d575061104c8185610d61565b5b8061108b57508373ffffffffffffffffffffffffffffffffffffffff166110738461052b565b73ffffffffffffffffffffffffffffffffffffffff16145b91505092915050565b8273ffffffffffffffffffffffffffffffffffffffff166110b482610708565b73ffffffffffffffffffffffffffffffffffffffff161461110a576040517f08c379a000000000000000000000000000000000000000000000000000000000815260040161110190612bdf565b60405180910390fd5b600073ffffffffffffffffffffffffffffffffffffffff168273ffffffffffffffffffffffffffffffffffffffff1603611179576040517f08c379a000000000000000000000000000000000000000000000000000000000815260040161117090612c71565b60405180910390fd5b61118683838360016118d5565b8273ffffffffffffffffffffffffffffffffffffffff166111a682610708565b73ffffffffffffffffffffffffffffffffffffffff16146111fc576040517f08c379a00000000000000000000000000000000000000000000000000000000081526004016111f390612bdf565b60405180910390fd5b6004600082815260200190815260200160002060006101000a81549073ffffffffffffffffffffffffffffffffffffffff02191690556001600360008573ffffffffffffffffffffffffffffffffffffffff1673ffffffffffffffffffffffffffffffffffffffff168152602001908152602001600020600082825403925050819055506001600360008473ffffffffffffffffffffffffffffffffffffffff1673ffffffffffffffffffffffffffffffffffffffff16815260200190815260200160002060008282540192505081905550816002600083815260200190815260200160002060006101000a81548173ffffffffffffffffffffffffffffffffffffffff021916908373ffffffffffffffffffffffffffffffffffffffff160217905550808273ffffffffffffffffffffffffffffffffffffffff168473ffffffffffffffffffffffffffffffffffffffff167fddf252ad1be2c89b69c2b068fc378daa952ba7f163c4a11628f55a4df523b3ef60405160405180910390a461138883838360016119f6565b505050565b60006002600083815260200190815260200160002060009054906101000a900473ffffffffffffffffffffffffffffffffffffffff169050919050565b600073ffffffffffffffffffffffffffffffffffffffff168273ffffffffffffffffffffffffffffffffffffffff1603611439576040517f08c379a000000000000000000000000000000000000000000000000000000000815260040161143090612cdd565b60405180910390fd5b61144281611894565b15611482576040517f08c379a000000000000000000000000000000000000000000000000000000000815260040161147990612d49565b60405180910390fd5b6114906000838360016118d5565b61149981611894565b156114d9576040517f08c379a00000000000000000000000000000000000000000000000000000000081526004016114d090612d49565b60405180910390fd5b6001600360008473ffffffffffffffffffffffffffffffffffffffff1673ffffffffffffffffffffffffffffffffffffffff16815260200190815260200160002060008282540192505081905550816002600083815260200190815260200160002060006101000a81548173ffffffffffffffffffffffffffffffffffffffff021916908373ffffffffffffffffffffffffffffffffffffffff160217905550808273ffffffffffffffffffffffffffffffffffffffff16600073ffffffffffffffffffffffffffffffffffffffff167fddf252ad1be2c89b69c2b068fc378daa952ba7f163c4a11628f55a4df523b3ef60405160405180910390a46115e36000838360016119f6565b5050565b8173ffffffffffffffffffffffffffffffffffffffff168373ffffffffffffffffffffffffffffffffffffffff1603611655576040517f08c379a000000000000000000000000000000000000000000000000000000000815260040161164c90612db5565b60405180910390fd5b80600560008573ffffffffffffffffffffffffffffffffffffffff1673ffffffffffffffffffffffffffffffffffffffff16815260200190815260200160002060008473ffffffffffffffffffffffffffffffffffffffff1673ffffffffffffffffffffffffffffffffffffffff16815260200190815260200160002060006101000a81548160ff0219169083151502179055508173ffffffffffffffffffffffffffffffffffffffff168373ffffffffffffffffffffffffffffffffffffffff167f17307eab39ab6107e8899845ad3d59bd9653f200f220920489ca2b5937696c31836040516117469190611df6565b60405180910390a3505050565b61175e848484611094565b61176a84848484611a15565b6117a9576040517f08c379a00000000000000000000000000000000000000000000000000000000081526004016117a090612e47565b60405180910390fd5b50505050565b606060405180602001604052806000815250905090565b6060600060016117d584611b9c565b01905060008167ffffffffffffffff8111156117f4576117f361214e565b5b6040519080825280601f01601f1916602001820160405280156118265781602001600182028036833780820191505090505b509050600082602001820190505b600115611889578080600190039150507f3031323334353637383961626364656600000000000000000000000000000000600a86061a8153600a858161187d5761187c612e67565b5b04945060008503611834575b819350505050919050565b60008073ffffffffffffffffffffffffffffffffffffffff166118b68361138d565b73ffffffffffffffffffffffffffffffffffffffff1614159050919050565b600073ffffffffffffffffffffffffffffffffffffffff168373ffffffffffffffffffffffffffffffffffffffff1614806119b15750600660009054906101000a900473ffffffffffffffffffffffffffffffffffffffff1673ffffffffffffffffffffffffffffffffffffffff16636f77926b846040518263ffffffff1660e01b81526004016119669190611f67565b600060405180830381865afa158015611983573d6000803e3d6000fd5b505050506040513d6000823e3d601f19601f820116820180604052508101906119ac91906129f5565b608001515b6119f0576040517f08c379a00000000000000000000000000000000000000000000000000000000081526004016119e790612f08565b60405180910390fd5b50505050565b6000600860008481526020019081526020016000208190555050505050565b6000611a368473ffffffffffffffffffffffffffffffffffffffff16611cef565b15611b8f578373ffffffffffffffffffffffffffffffffffffffff1663150b7a02611a5f610f3e565b8786866040518563ffffffff1660e01b8152600401611a819493929190612f7d565b6020604051808303816000875af1925050508015611abd57506040513d601f19601f82011682018060405250810190611aba9190612fde565b60015b611b3f573d8060008114611aed576040519150601f19603f3d011682016040523d82523d6000602084013e611af2565b606091505b506000815103611b37576040517f08c379a0000000000000000000000000000000000000000000000000000000008152600401611b2e90612e47565b60405180910390fd5b805181602001fd5b63150b7a0260e01b7bffffffffffffffffffffffffffffffffffffffffffffffffffffffff1916817bffffffffffffffffffffffffffffffffffffffffffffffffffffffff191614915050611b94565b600190505b949350505050565b600080600090507a184f03e93ff9f4daa797ed6e38ed64bf6a1f0100000000000000008310611bfa577a184f03e93ff9f4daa797ed6e38ed64bf6a1f0100000000000000008381611bf057611bef612e67565b5b0492506040810190505b6d04ee2d6d415b85acef81000000008310611c37576d04ee2d6d415b85acef81000000008381611c2d57611c2c612e67565b5b0492506020810190505b662386f26fc100008310611c6657662386f26fc100008381611c5c57611c5b612e67565b5b0492506010810190505b6305f5e1008310611c8f576305f5e1008381611c8557611c84612e67565b5b0492506008810190505b6127108310611cb4576127108381611caa57611ca9612e67565b5b0492506004810190505b60648310611cd75760648381611ccd57611ccc612e67565b5b0492506002810190505b600a8310611ce6576001810190505b80915050919050565b6000808273ffffffffffffffffffffffffffffffffffffffff163b119050919050565b6040518060400160405280600073ffffffffffffffffffffffffffffffffffffffff168152602001600081525090565b6000604051905090565b600080fd5b600080fd5b60007fffffffff0000000000000000000000000000000000000000000000000000000082169050919050565b611d8b81611d56565b8114611d9657600080fd5b50565b600081359050611da881611d82565b92915050565b600060208284031215611dc457611dc3611d4c565b5b6000611dd284828501611d99565b91505092915050565b60008115159050919050565b611df081611ddb565b82525050565b6000602082019050611e0b6000830184611de7565b92915050565b600081519050919050565b600082825260208201905092915050565b60005b83811015611e4b578082015181840152602081019050611e30565b60008484015250505050565b6000601f19601f8301169050919050565b6000611e7382611e11565b611e7d8185611e1c565b9350611e8d818560208601611e2d565b611e9681611e57565b840191505092915050565b60006020820190508181036000830152611ebb8184611e68565b905092915050565b6000819050919050565b611ed681611ec3565b8114611ee157600080fd5b50565b600081359050611ef381611ecd565b92915050565b600060208284031215611f0f57611f0e611d4c565b5b6000611f1d84828501611ee4565b91505092915050565b600073ffffffffffffffffffffffffffffffffffffffff82169050919050565b6000611f5182611f26565b9050919050565b611f6181611f46565b82525050565b6000602082019050611f7c6000830184611f58565b92915050565b611f8b81611f46565b8114611f9657600080fd5b50565b600081359050611fa881611f82565b92915050565b60008060408385031215611fc557611fc4611d4c565b5b6000611fd385828601611f99565b9250506020611fe485828601611ee4565b9150509250929050565b60008060006060848603121561200757612006611d4c565b5b600061201586828701611f99565b935050602061202686828701611f99565b925050604061203786828701611ee4565b9150509250925092565b6000806040838503121561205857612057611d4c565b5b600061206685828601611ee4565b925050602061207785828601611ee4565b9150509250929050565b60006020828403121561209757612096611d4c565b5b60006120a584828501611f99565b91505092915050565b6120b781611ec3565b82525050565b60006020820190506120d260008301846120ae565b92915050565b6120e181611ddb565b81146120ec57600080fd5b50565b6000813590506120fe816120d8565b92915050565b6000806040838503121561211b5761211a611d4c565b5b600061212985828601611f99565b925050602061213a858286016120ef565b9150509250929050565b600080fd5b600080fd5b7f4e487b7100000000000000000000000000000000000000000000000000000000600052604160045260246000fd5b61218682611e57565b810181811067ffffffffffffffff821117156121a5576121a461214e565b5b80604052505050565b60006121b8611d42565b90506121c4828261217d565b919050565b600067ffffffffffffffff8211156121e4576121e361214e565b5b6121ed82611e57565b9050602081019050919050565b82818337600083830152505050565b600061221c612217846121c9565b6121ae565b90508281526020810184848401111561223857612237612149565b5b6122438482856121fa565b509392505050565b600082601f8301126122605761225f612144565b5b8135612270848260208601612209565b91505092915050565b6000806000806080858703121561229357612292611d4c565b5b60006122a187828801611f99565b94505060206122b287828801611f99565b93505060406122c387828801611ee4565b925050606085013567ffffffffffffffff8111156122e4576122e3611d51565b5b6122f08782880161224b565b91505092959194509250565b61230581611f46565b82525050565b61231481611ec3565b82525050565b60408201600082015161233060008501826122fc565b506020820151612343602085018261230b565b50505050565b600060408201905061235e600083018461231a565b92915050565b6000806040838503121561237b5761237a611d4c565b5b600061238985828601611f99565b925050602061239a85828601611f99565b9150509250929050565b7f4e487b7100000000000000000000000000000000000000000000000000000000600052602260045260246000fd5b600060028204905060018216806123eb57607f821691505b6020821081036123fe576123fd6123a4565b5b50919050565b7f4552433732313a20617070726f76616c20746f2063757272656e74206f776e6560008201527f7200000000000000000000000000000000000000000000000000000000000000602082015250565b6000612460602183611e1c565b915061246b82612404565b604082019050919050565b6000602082019050818103600083015261248f81612453565b9050919050565b7f4552433732313a20617070726f76652063616c6c6572206973206e6f7420746f60008201527f6b656e206f776e6572206f7220617070726f76656420666f7220616c6c000000602082015250565b60006124f2603d83611e1c565b91506124fd82612496565b604082019050919050565b60006020820190508181036000830152612521816124e5565b9050919050565b7f4552433732313a2063616c6c6572206973206e6f7420746f6b656e206f776e6560008201527f72206f7220617070726f76656400000000000000000000000000000000000000602082015250565b6000612584602d83611e1c565b915061258f82612528565b604082019050919050565b600060208201905081810360008301526125b381612577565b9050919050565b7f4552433732313a20696e76616c696420746f6b656e2049440000000000000000600082015250565b60006125f0601883611e1c565b91506125fb826125ba565b602082019050919050565b6000602082019050818103600083015261261f816125e3565b9050919050565b7f43616c6c6572206973206e6f7420746f6b656e206f776e657200000000000000600082015250565b600061265c601983611e1c565b915061266782612626565b602082019050919050565b6000602082019050818103600083015261268b8161264f565b9050919050565b7f5072696365206d7573742062652067726561746572207468616e203000000000600082015250565b60006126c8601c83611e1c565b91506126d382612692565b602082019050919050565b600060208201905081810360008301526126f7816126bb565b9050919050565b7f4552433732313a2061646472657373207a65726f206973206e6f74206120766160008201527f6c6964206f776e65720000000000000000000000000000000000000000000000602082015250565b600061275a602983611e1c565b9150612765826126fe565b604082019050919050565b600060208201905081810360008301526127898161274d565b9050919050565b60008151905061279f81611f82565b92915050565b6000602082840312156127bb576127ba611d4c565b5b60006127c984828501612790565b91505092915050565b600080fd5b600080fd5b60006127e782611f46565b9050919050565b6127f7816127dc565b811461280257600080fd5b50565b600081519050612814816127ee565b92915050565b600067ffffffffffffffff8211156128355761283461214e565b5b61283e82611e57565b9050602081019050919050565b600061285e6128598461281a565b6121ae565b90508281526020810184848401111561287a57612879612149565b5b612885848285611e2d565b509392505050565b600082601f8301126128a2576128a1612144565b5b81516128b284826020860161284b565b91505092915050565b600281106128c857600080fd5b50565b6000815190506128da816128bb565b92915050565b60007fffffffffffffffffffffffffffff00000000000000000000000000000000000082169050919050565b612915816128e0565b811461292057600080fd5b50565b6000815190506129328161290c565b92915050565b600081519050612947816120d8565b92915050565b600060a08284031215612963576129626127d2565b5b61296d60a06121ae565b9050600061297d84828501612805565b600083015250602082015167ffffffffffffffff8111156129a1576129a06127d7565b5b6129ad8482850161288d565b60208301525060406129c1848285016128cb565b60408301525060606129d584828501612923565b60608301525060806129e984828501612938565b60808301525092915050565b600060208284031215612a0b57612a0a611d4c565b5b600082015167ffffffffffffffff811115612a2957612a28611d51565b5b612a358482850161294d565b91505092915050565b7f43616c6c6572206973206e6f7420616c6c6f77656420746f206d696e74000000600082015250565b6000612a74601d83611e1c565b9150612a7f82612a3e565b602082019050919050565b60006020820190508181036000830152612aa381612a67565b9050919050565b7f4e487b7100000000000000000000000000000000000000000000000000000000600052601160045260246000fd5b6000612ae482611ec3565b9150612aef83611ec3565b9250828201905080821115612b0757612b06612aaa565b5b92915050565b600081905092915050565b6000612b2382611e11565b612b2d8185612b0d565b9350612b3d818560208601611e2d565b80840191505092915050565b6000612b558285612b18565b9150612b618284612b18565b91508190509392505050565b7f4552433732313a207472616e736665722066726f6d20696e636f72726563742060008201527f6f776e6572000000000000000000000000000000000000000000000000000000602082015250565b6000612bc9602583611e1c565b9150612bd482612b6d565b604082019050919050565b60006020820190508181036000830152612bf881612bbc565b9050919050565b7f4552433732313a207472616e7366657220746f20746865207a65726f2061646460008201527f7265737300000000000000000000000000000000000000000000000000000000602082015250565b6000612c5b602483611e1c565b9150612c6682612bff565b604082019050919050565b60006020820190508181036000830152612c8a81612c4e565b9050919050565b7f4552433732313a206d696e7420746f20746865207a65726f2061646472657373600082015250565b6000612cc7602083611e1c565b9150612cd282612c91565b602082019050919050565b60006020820190508181036000830152612cf681612cba565b9050919050565b7f4552433732313a20746f6b656e20616c7265616479206d696e74656400000000600082015250565b6000612d33601c83611e1c565b9150612d3e82612cfd565b602082019050919050565b60006020820190508181036000830152612d6281612d26565b9050919050565b7f4552433732313a20617070726f766520746f2063616c6c657200000000000000600082015250565b6000612d9f601983611e1c565b9150612daa82612d69565b602082019050919050565b60006020820190508181036000830152612dce81612d92565b9050919050565b7f4552433732313a207472616e7366657220746f206e6f6e20455243373231526560008201527f63656976657220696d706c656d656e7465720000000000000000000000000000602082015250565b6000612e31603283611e1c565b9150612e3c82612dd5565b604082019050919050565b60006020820190508181036000830152612e6081612e24565b9050919050565b7f4e487b7100000000000000000000000000000000000000000000000000000000600052601260045260246000fd5b7f5265636569766572206d7573742062652061205368757474657270726f6f662060008201527f7573657200000000000000000000000000000000000000000000000000000000602082015250565b6000612ef2602483611e1c565b9150612efd82612e96565b604082019050919050565b60006020820190508181036000830152612f2181612ee5565b9050919050565b600081519050919050565b600082825260208201905092915050565b6000612f4f82612f28565b612f598185612f33565b9350612f69818560208601611e2d565b612f7281611e57565b840191505092915050565b6000608082019050612f926000830187611f58565b612f9f6020830186611f58565b612fac60408301856120ae565b8181036060830152612fbe8184612f44565b905095945050505050565b600081519050612fd881611d82565b92915050565b600060208284031215612ff457612ff3611d4c565b5b600061300284828501612fc9565b9150509291505056fea26469706673582212206ae1c2bde61be69ff08cda890d94066f2a19b766bf2d16a8aacea690bc85c0cd64736f6c63430008120033",
  "immutableReferences": {},
  "source": "// SPDX-License-Identifier: MIT\n\npragma solidity 0.8.18;\n\nimport \"./PaternitySBT.sol\";\nimport \"./ExclusiveRightsNFT.sol\";\nimport \"../node_modules/@openzeppelin/contracts/utils/Address.sol\";\nimport \"../node_modules/@openzeppelin/contracts/security/ReentrancyGuard.sol\";\n\n/// @title ShutterProof \n/// @notice ShutterProof helps photographers and photo user to manage authencity and rights\n/// @dev main contract\n/// @author asaintvanne\ncontract ShutterProof is ReentrancyGuard {\n\n    enum UserRole {\n        Photographer,\n        Client\n    }\n\n    struct User {\n        PaternitySBT sbt;\n        string name;\n        UserRole role;\n        bytes14 siret;\n        bool registered;\n    }\n\n    /// @notice ShutterProof users informations\n    mapping(address => User) users;\n\n    /// @notice Contract that manage photo exclusive rights\n    ExclusiveRightsNFT exclusiveRightsNFT;\n\n    /// @notice UserRegistered event is emitted when a user is registered\n    /// @param userAdress New user address\n    /// @param role User role\n    event UserRegistered(address userAdress, UserRole role);\n\n    /// @dev Deploy exclusiveRightsNFT\n    constructor() {\n        exclusiveRightsNFT = new ExclusiveRightsNFT(this);\n    }\n\n    /// @notice Register sender to be a app user\n    /// @param _name User name\n    /// @param _siret User SIRET\n    /// @param _role User role\n    function register(string calldata _name, bytes14 _siret, UserRole _role) external\n    {\n        User memory user = users[msg.sender];\n\n        require(!user.registered, 'User is already registered');\n        require(keccak256(bytes(_name)) != keccak256(bytes(\"\")), \"Name cannot be empty\");\n        require(_siret.length > 0, \"SIRET cannot be empty\");\n        for(uint i = 0; i < 14; i++) {\n            require(_siret[i] >= '0' && _siret[i] <= '9', \"SIRET is not well formed\");\n        }\n\n        users[msg.sender].name = _name;\n        users[msg.sender].siret = _siret;\n        users[msg.sender].role = _role;\n        users[msg.sender].registered = true;\n\n        //SBT contract is only created if user is a photographer\n        if (_role == UserRole.Photographer) {\n            users[msg.sender].sbt = new PaternitySBT(msg.sender, exclusiveRightsNFT);\n        }\n    }\n\n    /// @notice Get user informations\n    /// @param _address User address\n    function getUser(address _address) view external returns (User memory)\n    {\n        return users[_address];\n    }\n\n    /// @notice Get user informations\n    /// @param _address User address\n    function getPaternitySBT(address _address) view external returns(PaternitySBT)\n    {\n        require(address(users[_address].sbt) != address(0), \"User has no PaternitySBT contract\");\n\n        return users[_address].sbt;\n    }\n\n    /// @notice Buy a NFT that represents exclusive rights\n    /// @param tokenId NFT id (in exclusiveRightsNFT contract)\n    function buyExclusiveRights(uint256 tokenId) nonReentrant payable external\n    {\n        require(users[msg.sender].registered, \"Call is not registered\");\n\n        uint price = exclusiveRightsNFT.getPrice(tokenId);\n        require(price > 0, \"Photography is not for sale\");\n        require(msg.value >= price, \"Insufficient payment\");\n\n        address seller = exclusiveRightsNFT.ownerOf(tokenId);\n        exclusiveRightsNFT.safeTransferFrom(seller, msg.sender, tokenId);\n\n        (bool success1, ) = seller.call{value: price}(\"\");\n        require(success1, \"Transfer to seller failed\");\n\n        uint256 refund = msg.value - price;\n        if (refund > 0) {\n            (bool success2, ) = msg.sender.call{value: refund}(\"\");\n            require(success2, \"Refund to buyer failed\");\n        }\n    }\n\n    /// @notice Get the contract that manage exclusive rights\n    function getExclusiveRightsNFT() view external returns(ExclusiveRightsNFT)\n    {\n        return exclusiveRightsNFT;\n    }\n}\n",
  "sourcePath": "/Users/a.saintvanne/Desktop/BC/shutter-proof/truffle/contracts/ShutterProof.sol",
  "compiler": {
    "name": "solc",
    "version": "0.8.18+commit.87f61d96.Emscripten.clang"
  },
  "schemaVersion": "3.4.12",
  "updatedAt": "2023-04-07T16:26:45.544Z",
  "networkType": "ethereum",
  "devdoc": {
    "author": "asaintvanne",
    "details": "main contract",
    "events": {
      "UserRegistered(address,uint8)": {
        "params": {
          "role": "User role",
          "userAdress": "New user address"
        }
      }
    },
    "kind": "dev",
    "methods": {
      "buyExclusiveRights(uint256)": {
        "params": {
          "tokenId": "NFT id (in exclusiveRightsNFT contract)"
        }
      },
      "constructor": {
        "details": "Deploy exclusiveRightsNFT"
      },
      "getPaternitySBT(address)": {
        "params": {
          "_address": "User address"
        }
      },
      "getUser(address)": {
        "params": {
          "_address": "User address"
        }
      },
      "register(string,bytes14,uint8)": {
        "params": {
          "_name": "User name",
          "_role": "User role",
          "_siret": "User SIRET"
        }
      }
    },
    "title": "ShutterProof ",
    "version": 1
  },
  "userdoc": {
    "events": {
      "UserRegistered(address,uint8)": {
        "notice": "UserRegistered event is emitted when a user is registered"
      }
    },
    "kind": "user",
    "methods": {
      "buyExclusiveRights(uint256)": {
        "notice": "Buy a NFT that represents exclusive rights"
      },
      "getExclusiveRightsNFT()": {
        "notice": "Get the contract that manage exclusive rights"
      },
      "getPaternitySBT(address)": {
        "notice": "Get user informations"
      },
      "getUser(address)": {
        "notice": "Get user informations"
      },
      "register(string,bytes14,uint8)": {
        "notice": "Register sender to be a app user"
      }
    },
    "notice": "ShutterProof helps photographers and photo user to manage authencity and rights",
    "version": 1
  }
}